{
  "contractName": "CreatorsFacet",
  "abi": [
    {
      "inputs": [],
      "name": "creatorWithdrawal",
      "outputs": [],
      "stateMutability": "payable",
      "type": "function"
    },
    {
      "inputs": [],
      "name": "checkCreatorBalance",
      "outputs": [
        {
          "internalType": "uint256",
          "name": "",
          "type": "uint256"
        }
      ],
      "stateMutability": "view",
      "type": "function"
    }
  ],
  "bytecode": "0x608060405234801561001057600080fd5b50610521806100206000396000f3fe6080604052600436106100295760003560e01c806352cc97fc1461002e578063bd8921e614610038575b600080fd5b610036610063565b005b34801561004457600080fd5b5061004d610268565b60405161005a9190610424565b60405180910390f35b600061006d6103de565b9050806001016000600281106100865761008561043f565b5b0160009054906101000a900473ffffffffffffffffffffffffffffffffffffffff1673ffffffffffffffffffffffffffffffffffffffff163373ffffffffffffffffffffffffffffffffffffffff1614806101445750806001016001600281106100f3576100f261043f565b5b0160009054906101000a900473ffffffffffffffffffffffffffffffffffffffff1673ffffffffffffffffffffffffffffffffffffffff163373ffffffffffffffffffffffffffffffffffffffff16145b610183576040517f08c379a000000000000000000000000000000000000000000000000000000000815260040161017a906104cb565b60405180910390fd5b600061018d6103de565b905060008160000160003373ffffffffffffffffffffffffffffffffffffffff1673ffffffffffffffffffffffffffffffffffffffff16815260200190815260200160002054905060008260000160003373ffffffffffffffffffffffffffffffffffffffff1673ffffffffffffffffffffffffffffffffffffffff168152602001908152602001600020819055503373ffffffffffffffffffffffffffffffffffffffff166108fc829081150290604051600060405180830381858888f19350505050158015610262573d6000803e3d6000fd5b50505050565b6000806102736103de565b90508060010160006002811061028c5761028b61043f565b5b0160009054906101000a900473ffffffffffffffffffffffffffffffffffffffff1673ffffffffffffffffffffffffffffffffffffffff163373ffffffffffffffffffffffffffffffffffffffff16148061034a5750806001016001600281106102f9576102f861043f565b5b0160009054906101000a900473ffffffffffffffffffffffffffffffffffffffff1673ffffffffffffffffffffffffffffffffffffffff163373ffffffffffffffffffffffffffffffffffffffff16145b610389576040517f08c379a0000000000000000000000000000000000000000000000000000000008152600401610380906104cb565b60405180910390fd5b60006103936103de565b90508060000160003373ffffffffffffffffffffffffffffffffffffffff1673ffffffffffffffffffffffffffffffffffffffff168152602001908152602001600020549250505090565b6000807faaecf6edcf861fc17fc9c5b0a28686a3e50a6d0beadccbac12a685bd4ed4771790508091505090565b6000819050919050565b61041e8161040b565b82525050565b60006020820190506104396000830184610415565b92915050565b7f4e487b7100000000000000000000000000000000000000000000000000000000600052603260045260246000fd5b600082825260208201905092915050565b7f6f6e6c792063726561746f727300000000000000000000000000000000000000600082015250565b60006104b5600d8361046e565b91506104c08261047f565b602082019050919050565b600060208201905081810360008301526104e4816104a8565b905091905056fea264697066735822122016bf7341319d47b81dd1313dbfa1d0c76453f40406e3d31c82f02a958959bf7064736f6c634300080b0033",
  "immutableReferences": {},
  "source": "//SPDX-License-Identifier: MIT\n\npragma solidity 0.8.11;\n\nimport {\n    Dixel,\n    LibDixel\n} from \"../libraries/LibDixel.sol\";\n\ncontract CreatorsFacet {\n\n        /**\n    * @notice\n    */\n    modifier isCreator() {\n        LibDixel.CreatorsStorage storage cs = LibDixel.creatorsStorage();\n        require(msg.sender == cs.creators[0] || msg.sender == cs.creators[1], \"only creators\");\n        _;\n    }\n\n\n        /**\n     *@notice\n     */\n    function creatorWithdrawal() external payable isCreator() {\n        LibDixel.CreatorsStorage storage cs = LibDixel.creatorsStorage();\n        uint withdrawal = cs.creatorsBalance[msg.sender];\n        cs.creatorsBalance[msg.sender] = 0;\n        payable(msg.sender).transfer(withdrawal);\n    }\n\n    /**\n     *@notice\n     */\n    function checkCreatorBalance() external view isCreator() returns(uint) {\n        LibDixel.CreatorsStorage storage cs = LibDixel.creatorsStorage();\n        return cs.creatorsBalance[msg.sender];\n    }\n}",
  "sourcePath": "/home/torof/blockchain-developer-bootcamp-final-project/contracts/facets/CreatorsFacet.sol",
  "compiler": {
    "name": "solc",
    "version": "0.8.11+commit.d7f03943.Emscripten.clang"
  },
  "schemaVersion": "3.4.4",
  "updatedAt": "2022-01-31T18:51:12.038Z",
  "devdoc": {
    "kind": "dev",
    "methods": {},
    "version": 1
  },
  "userdoc": {
    "kind": "user",
    "methods": {},
    "version": 1
  }
}