{
  "contractName": "DixelFacet",
  "abi": [
    {
      "anonymous": false,
      "inputs": [
        {
          "indexed": true,
          "internalType": "address",
          "name": "owner",
          "type": "address"
        },
        {
          "indexed": true,
          "internalType": "address",
          "name": "approved",
          "type": "address"
        },
        {
          "indexed": true,
          "internalType": "uint256",
          "name": "tokenId",
          "type": "uint256"
        }
      ],
      "name": "Approval",
      "type": "event"
    },
    {
      "anonymous": false,
      "inputs": [
        {
          "indexed": true,
          "internalType": "address",
          "name": "owner",
          "type": "address"
        },
        {
          "indexed": true,
          "internalType": "address",
          "name": "operator",
          "type": "address"
        },
        {
          "indexed": false,
          "internalType": "bool",
          "name": "approved",
          "type": "bool"
        }
      ],
      "name": "ApprovalForAll",
      "type": "event"
    },
    {
      "anonymous": false,
      "inputs": [
        {
          "indexed": false,
          "internalType": "address",
          "name": "_minter",
          "type": "address"
        },
        {
          "indexed": false,
          "internalType": "uint256",
          "name": "_id",
          "type": "uint256"
        },
        {
          "indexed": false,
          "internalType": "uint256",
          "name": "_mintPrice",
          "type": "uint256"
        },
        {
          "components": [
            {
              "internalType": "uint256",
              "name": "level",
              "type": "uint256"
            },
            {
              "internalType": "string",
              "name": "URI",
              "type": "string"
            },
            {
              "internalType": "string[]",
              "name": "levelURI",
              "type": "string[]"
            },
            {
              "internalType": "uint256",
              "name": "rarity",
              "type": "uint256"
            },
            {
              "internalType": "uint256",
              "name": "stakeInitTime",
              "type": "uint256"
            },
            {
              "internalType": "bool",
              "name": "staked",
              "type": "bool"
            }
          ],
          "indexed": false,
          "internalType": "struct Dixel",
          "name": "_dixel",
          "type": "tuple"
        }
      ],
      "name": "DixelMinted",
      "type": "event"
    },
    {
      "anonymous": false,
      "inputs": [
        {
          "indexed": false,
          "internalType": "uint256",
          "name": "_tokenId",
          "type": "uint256"
        },
        {
          "indexed": false,
          "internalType": "uint256",
          "name": "_oldLevel",
          "type": "uint256"
        },
        {
          "indexed": false,
          "internalType": "uint256",
          "name": "_newLevel",
          "type": "uint256"
        },
        {
          "components": [
            {
              "internalType": "uint256",
              "name": "level",
              "type": "uint256"
            },
            {
              "internalType": "string",
              "name": "URI",
              "type": "string"
            },
            {
              "internalType": "string[]",
              "name": "levelURI",
              "type": "string[]"
            },
            {
              "internalType": "uint256",
              "name": "rarity",
              "type": "uint256"
            },
            {
              "internalType": "uint256",
              "name": "stakeInitTime",
              "type": "uint256"
            },
            {
              "internalType": "bool",
              "name": "staked",
              "type": "bool"
            }
          ],
          "indexed": false,
          "internalType": "struct Dixel",
          "name": "_dixel",
          "type": "tuple"
        }
      ],
      "name": "LevelUp",
      "type": "event"
    },
    {
      "anonymous": false,
      "inputs": [
        {
          "indexed": false,
          "internalType": "uint256",
          "name": "_id",
          "type": "uint256"
        },
        {
          "indexed": false,
          "internalType": "bool",
          "name": "_isStaked",
          "type": "bool"
        },
        {
          "components": [
            {
              "internalType": "uint256",
              "name": "level",
              "type": "uint256"
            },
            {
              "internalType": "string",
              "name": "URI",
              "type": "string"
            },
            {
              "internalType": "string[]",
              "name": "levelURI",
              "type": "string[]"
            },
            {
              "internalType": "uint256",
              "name": "rarity",
              "type": "uint256"
            },
            {
              "internalType": "uint256",
              "name": "stakeInitTime",
              "type": "uint256"
            },
            {
              "internalType": "bool",
              "name": "staked",
              "type": "bool"
            }
          ],
          "indexed": false,
          "internalType": "struct Dixel",
          "name": "_dixel",
          "type": "tuple"
        }
      ],
      "name": "Staking",
      "type": "event"
    },
    {
      "anonymous": false,
      "inputs": [
        {
          "indexed": true,
          "internalType": "address",
          "name": "from",
          "type": "address"
        },
        {
          "indexed": true,
          "internalType": "address",
          "name": "to",
          "type": "address"
        },
        {
          "indexed": true,
          "internalType": "uint256",
          "name": "tokenId",
          "type": "uint256"
        }
      ],
      "name": "Transfer",
      "type": "event"
    },
    {
      "anonymous": false,
      "inputs": [
        {
          "indexed": false,
          "internalType": "uint256",
          "name": "_id",
          "type": "uint256"
        },
        {
          "indexed": false,
          "internalType": "bool",
          "name": "_isStaked",
          "type": "bool"
        },
        {
          "indexed": false,
          "internalType": "uint256",
          "name": "_starmProduced",
          "type": "uint256"
        },
        {
          "components": [
            {
              "internalType": "uint256",
              "name": "level",
              "type": "uint256"
            },
            {
              "internalType": "string",
              "name": "URI",
              "type": "string"
            },
            {
              "internalType": "string[]",
              "name": "levelURI",
              "type": "string[]"
            },
            {
              "internalType": "uint256",
              "name": "rarity",
              "type": "uint256"
            },
            {
              "internalType": "uint256",
              "name": "stakeInitTime",
              "type": "uint256"
            },
            {
              "internalType": "bool",
              "name": "staked",
              "type": "bool"
            }
          ],
          "indexed": false,
          "internalType": "struct Dixel",
          "name": "_dixel",
          "type": "tuple"
        }
      ],
      "name": "UnStaking",
      "type": "event"
    },
    {
      "inputs": [
        {
          "internalType": "address",
          "name": "_to",
          "type": "address"
        },
        {
          "internalType": "uint256",
          "name": "_tokenId",
          "type": "uint256"
        }
      ],
      "name": "approve",
      "outputs": [],
      "stateMutability": "nonpayable",
      "type": "function"
    },
    {
      "inputs": [
        {
          "internalType": "address",
          "name": "owner",
          "type": "address"
        }
      ],
      "name": "balanceOf",
      "outputs": [
        {
          "internalType": "uint256",
          "name": "balance",
          "type": "uint256"
        }
      ],
      "stateMutability": "view",
      "type": "function",
      "constant": true
    },
    {
      "inputs": [
        {
          "internalType": "uint256",
          "name": "tokenId",
          "type": "uint256"
        }
      ],
      "name": "getApproved",
      "outputs": [
        {
          "internalType": "address",
          "name": "",
          "type": "address"
        }
      ],
      "stateMutability": "view",
      "type": "function",
      "constant": true
    },
    {
      "inputs": [
        {
          "internalType": "address",
          "name": "owner",
          "type": "address"
        },
        {
          "internalType": "address",
          "name": "operator",
          "type": "address"
        }
      ],
      "name": "isApprovedForAll",
      "outputs": [
        {
          "internalType": "bool",
          "name": "",
          "type": "bool"
        }
      ],
      "stateMutability": "view",
      "type": "function",
      "constant": true
    },
    {
      "inputs": [],
      "name": "name",
      "outputs": [
        {
          "internalType": "string",
          "name": "",
          "type": "string"
        }
      ],
      "stateMutability": "view",
      "type": "function",
      "constant": true
    },
    {
      "inputs": [
        {
          "internalType": "uint256",
          "name": "_tokenId",
          "type": "uint256"
        }
      ],
      "name": "ownerOf",
      "outputs": [
        {
          "internalType": "address",
          "name": "",
          "type": "address"
        }
      ],
      "stateMutability": "view",
      "type": "function",
      "constant": true
    },
    {
      "inputs": [
        {
          "internalType": "address",
          "name": "from",
          "type": "address"
        },
        {
          "internalType": "address",
          "name": "to",
          "type": "address"
        },
        {
          "internalType": "uint256",
          "name": "tokenId",
          "type": "uint256"
        }
      ],
      "name": "safeTransferFrom",
      "outputs": [],
      "stateMutability": "nonpayable",
      "type": "function"
    },
    {
      "inputs": [
        {
          "internalType": "address",
          "name": "_from",
          "type": "address"
        },
        {
          "internalType": "address",
          "name": "_to",
          "type": "address"
        },
        {
          "internalType": "uint256",
          "name": "_tokenId",
          "type": "uint256"
        },
        {
          "internalType": "bytes",
          "name": "_data",
          "type": "bytes"
        }
      ],
      "name": "safeTransferFrom",
      "outputs": [],
      "stateMutability": "nonpayable",
      "type": "function"
    },
    {
      "inputs": [
        {
          "internalType": "address",
          "name": "operator",
          "type": "address"
        },
        {
          "internalType": "bool",
          "name": "_approved",
          "type": "bool"
        }
      ],
      "name": "setApprovalForAll",
      "outputs": [],
      "stateMutability": "nonpayable",
      "type": "function"
    },
    {
      "inputs": [],
      "name": "symbol",
      "outputs": [
        {
          "internalType": "string",
          "name": "",
          "type": "string"
        }
      ],
      "stateMutability": "view",
      "type": "function",
      "constant": true
    },
    {
      "inputs": [],
      "name": "totalSupply",
      "outputs": [
        {
          "internalType": "uint256",
          "name": "",
          "type": "uint256"
        }
      ],
      "stateMutability": "view",
      "type": "function",
      "constant": true
    },
    {
      "inputs": [
        {
          "internalType": "address",
          "name": "_from",
          "type": "address"
        },
        {
          "internalType": "address",
          "name": "_to",
          "type": "address"
        },
        {
          "internalType": "uint256",
          "name": "_tokenId",
          "type": "uint256"
        }
      ],
      "name": "transferFrom",
      "outputs": [],
      "stateMutability": "nonpayable",
      "type": "function"
    },
    {
      "inputs": [],
      "name": "getDixelPrice",
      "outputs": [
        {
          "internalType": "uint256",
          "name": "",
          "type": "uint256"
        }
      ],
      "stateMutability": "view",
      "type": "function",
      "constant": true
    },
    {
      "inputs": [
        {
          "internalType": "string[][]",
          "name": "_addresses",
          "type": "string[][]"
        }
      ],
      "name": "mintDixel",
      "outputs": [],
      "stateMutability": "payable",
      "type": "function",
      "payable": true
    },
    {
      "inputs": [
        {
          "internalType": "string[][]",
          "name": "_addresses",
          "type": "string[][]"
        }
      ],
      "name": "mintFreeDixel",
      "outputs": [],
      "stateMutability": "nonpayable",
      "type": "function"
    },
    {
      "inputs": [
        {
          "internalType": "uint256",
          "name": "tokenId",
          "type": "uint256"
        }
      ],
      "name": "tokenURI",
      "outputs": [
        {
          "internalType": "string",
          "name": "",
          "type": "string"
        }
      ],
      "stateMutability": "view",
      "type": "function",
      "constant": true
    },
    {
      "inputs": [
        {
          "internalType": "uint256",
          "name": "_tokenId",
          "type": "uint256"
        }
      ],
      "name": "stakeDix",
      "outputs": [],
      "stateMutability": "nonpayable",
      "type": "function"
    },
    {
      "inputs": [
        {
          "internalType": "uint256",
          "name": "_tokenId",
          "type": "uint256"
        }
      ],
      "name": "unStakeDix",
      "outputs": [],
      "stateMutability": "nonpayable",
      "type": "function"
    },
    {
      "inputs": [
        {
          "internalType": "uint256",
          "name": "_tokenId",
          "type": "uint256"
        }
      ],
      "name": "levelUp",
      "outputs": [],
      "stateMutability": "nonpayable",
      "type": "function"
    },
    {
      "inputs": [
        {
          "internalType": "uint256",
          "name": "_tokenId",
          "type": "uint256"
        }
      ],
      "name": "withdrawProducedStarm",
      "outputs": [],
      "stateMutability": "nonpayable",
      "type": "function"
    }
  ],
  "bytecode": "0x608060405234801561001057600080fd5b5061588080620000216000396000f3fe60806040526004361061011f5760003560e01c806370a08231116100a0578063c87b56dd11610064578063c87b56dd146103cf578063c8e18ef71461040c578063e774c3b214610435578063e985e9c51461045e578063fb79f50f1461049b5761011f565b806370a08231146102ec57806395d89b4114610329578063a22cb46514610354578063abf541771461037d578063b88d4fde146103a65761011f565b806318160ddd116100e757806318160ddd1461020957806323b872dd1461023457806342842e0e1461025d57806343c4af1b146102865780636352211e146102af5761011f565b806306fdde0314610124578063081812fc1461014f578063095ea7b31461018c5780630ce90ec2146101b557806312d28d80146101de575b600080fd5b34801561013057600080fd5b506101396104b7565b604051610146919061385c565b60405180910390f35b34801561015b57600080fd5b50610176600480360381019061017191906138c8565b610558565b6040516101839190613936565b60405180910390f35b34801561019857600080fd5b506101b360048036038101906101ae919061397d565b6105eb565b005b3480156101c157600080fd5b506101dc60048036038101906101d791906138c8565b6108ad565b005b3480156101ea57600080fd5b506101f3610db2565b60405161020091906139cc565b60405180910390f35b34801561021557600080fd5b5061021e610ea0565b60405161022b91906139cc565b60405180910390f35b34801561024057600080fd5b5061025b600480360381019061025691906139e7565b610eb8565b005b34801561026957600080fd5b50610284600480360381019061027f91906139e7565b610f11565b005b34801561029257600080fd5b506102ad60048036038101906102a891906138c8565b610f31565b005b3480156102bb57600080fd5b506102d660048036038101906102d191906138c8565b6112e2565b6040516102e39190613936565b60405180910390f35b3480156102f857600080fd5b50610313600480360381019061030e9190613a3a565b6113a3565b60405161032091906139cc565b60405180910390f35b34801561033557600080fd5b5061033e61146a565b60405161034b919061385c565b60405180910390f35b34801561036057600080fd5b5061037b60048036038101906103769190613a9f565b61150b565b005b34801561038957600080fd5b506103a4600480360381019061039f91906138c8565b61151a565b005b3480156103b257600080fd5b506103cd60048036038101906103c89190613c14565b611950565b005b3480156103db57600080fd5b506103f660048036038101906103f191906138c8565b6119ab565b604051610403919061385c565b60405180910390f35b34801561041857600080fd5b50610433600480360381019061042e91906138c8565b611b0c565b005b34801561044157600080fd5b5061045c60048036038101906104579190613eff565b611d24565b005b34801561046a57600080fd5b5061048560048036038101906104809190613f48565b61200e565b6040516104929190613f97565b60405180910390f35b6104b560048036038101906104b09190613eff565b6120b0565b005b606060006104c3612301565b90508060010180546104d490613fe1565b80601f016020809104026020016040519081016040528092919081815260200182805461050090613fe1565b801561054d5780601f106105225761010080835404028352916020019161054d565b820191906000526020600020905b81548152906001019060200180831161053057829003601f168201915b505050505091505090565b600080610563612301565b905061056e8361232e565b6105ad576040517f08c379a00000000000000000000000000000000000000000000000000000000081526004016105a490614085565b60405180910390fd5b80600501600084815260200190815260200160002060009054906101000a900473ffffffffffffffffffffffffffffffffffffffff16915050919050565b60006105f5612301565b9050600073ffffffffffffffffffffffffffffffffffffffff168373ffffffffffffffffffffffffffffffffffffffff16141561063157600080fd5b600073ffffffffffffffffffffffffffffffffffffffff1681600301600084815260200190815260200160002060009054906101000a900473ffffffffffffffffffffffffffffffffffffffff1673ffffffffffffffffffffffffffffffffffffffff1614156106a057600080fd5b8273ffffffffffffffffffffffffffffffffffffffff1681600301600084815260200190815260200160002060009054906101000a900473ffffffffffffffffffffffffffffffffffffffff1673ffffffffffffffffffffffffffffffffffffffff16141561070e57600080fd5b80600301600083815260200190815260200160002060009054906101000a900473ffffffffffffffffffffffffffffffffffffffff1673ffffffffffffffffffffffffffffffffffffffff163373ffffffffffffffffffffffffffffffffffffffff16148061084157506001151581600601600083600301600086815260200190815260200160002060009054906101000a900473ffffffffffffffffffffffffffffffffffffffff1673ffffffffffffffffffffffffffffffffffffffff1673ffffffffffffffffffffffffffffffffffffffff16815260200190815260200160002060003373ffffffffffffffffffffffffffffffffffffffff1673ffffffffffffffffffffffffffffffffffffffff16815260200190815260200160002060009054906101000a900460ff161515145b61084a57600080fd5b8281600501600084815260200190815260200160002060006101000a81548173ffffffffffffffffffffffffffffffffffffffff021916908373ffffffffffffffffffffffffffffffffffffffff1602179055506108a883836123b9565b505050565b806108b7816112e2565b73ffffffffffffffffffffffffffffffffffffffff163373ffffffffffffffffffffffffffffffffffffffff1614610924576040517f08c379a000000000000000000000000000000000000000000000000000000000815260040161091b906140f1565b60405180910390fd5b8161092e8161232e565b61096d576040517f08c379a00000000000000000000000000000000000000000000000000000000081526004016109649061415d565b60405180910390fd5b6000610977612481565b90506000610983612301565b9050600081600001868154811061099d5761099c61417d565b5b90600052602060002090600602016040518060c0016040529081600082015481526020016001820180546109d090613fe1565b80601f01602080910402602001604051908101604052809291908181526020018280546109fc90613fe1565b8015610a495780601f10610a1e57610100808354040283529160200191610a49565b820191906000526020600020905b815481529060010190602001808311610a2c57829003601f168201915b5050505050815260200160028201805480602002602001604051908101604052809291908181526020016000905b82821015610b23578382906000526020600020018054610a9690613fe1565b80601f0160208091040260200160405190810160405280929190818152602001828054610ac290613fe1565b8015610b0f5780601f10610ae457610100808354040283529160200191610b0f565b820191906000526020600020905b815481529060010190602001808311610af257829003601f168201915b505050505081526020019060010190610a77565b50505050815260200160038201548152602001600482015481526020016005820160009054906101000a900460ff16151515158152505090506005826000018781548110610b7457610b7361417d565b5b90600052602060002090600602016000015410610bc6576040517f08c379a0000000000000000000000000000000000000000000000000000000008152600401610bbd906141f8565b60405180910390fd5b600481600001511415610c365760c883600701541115610c1b576040517f08c379a0000000000000000000000000000000000000000000000000000000008152600401610c1290614264565b60405180910390fd5b826007016000815480929190610c30906142b3565b91905055505b6000816000015190508160400151826000015181518110610c5a57610c5961417d565b5b60200260200101518260200181905250816000018051809190610c7c906142b3565b8152505081836000018881548110610c9757610c9661417d565b5b9060005260206000209060060201600082015181600001556020820151816001019080519060200190610ccb92919061365c565b506040820151816002019080519060200190610ce89291906136e2565b50606082015181600301556080820151816004015560a08201518160050160006101000a81548160ff021916908315150217905550905050610d3b336103e88460000151610d3691906142fc565b6124ae565b610d44876119ab565b507f316f492708edb192ed7be53ed328501fe25892eccd577fe461e594a0b21ba54587828460000151866000018b81548110610d8357610d8261417d565b5b9060005260206000209060060201604051610da194939291906145f4565b60405180910390a150505050505050565b600080610dbd612481565b9050600081600501549050610320811115610e0d576040517f08c379a0000000000000000000000000000000000000000000000000000000008152600401610e049061468c565b60405180910390fd5b61073a8110610e285767016345785d8a000092505050610e9d565b6106a48110610e435767011c37937e08000092505050610e9d565b61047e8110610e5d5766d529ae9e86000092505050610e9d565b61028a8110610e775766b1a2bc2ec5000092505050610e9d565b60fa8110610e9057666a94d74f43000092505050610e9d565b662386f26fc10000925050505b90565b600080610eab612481565b9050806000015491505090565b610ec23382612682565b610f01576040517f08c379a0000000000000000000000000000000000000000000000000000000008152600401610ef89061471e565b60405180910390fd5b610f0c838383612760565b505050565b610f2c83838360405180602001604052806000815250611950565b505050565b6000610f3b612301565b90506000610f476129da565b90506000826000018481548110610f6157610f6061417d565b5b90600052602060002090600602016040518060c001604052908160008201548152602001600182018054610f9490613fe1565b80601f0160208091040260200160405190810160405280929190818152602001828054610fc090613fe1565b801561100d5780601f10610fe25761010080835404028352916020019161100d565b820191906000526020600020905b815481529060010190602001808311610ff057829003601f168201915b5050505050815260200160028201805480602002602001604051908101604052809291908181526020016000905b828210156110e757838290600052602060002001805461105a90613fe1565b80601f016020809104026020016040519081016040528092919081815260200182805461108690613fe1565b80156110d35780601f106110a8576101008083540402835291602001916110d3565b820191906000526020600020905b8154815290600101906020018083116110b657829003601f168201915b50505050508152602001906001019061103b565b50505050815260200160038201548152602001600482015481526020016005820160009054906101000a900460ff161515151581525050905060004290506001151584600001868154811061113f5761113e61417d565b5b906000526020600020906006020160050160009054906101000a900460ff161515146111a0576040517f08c379a00000000000000000000000000000000000000000000000000000000081526004016111979061478a565b60405180910390fd5b81608001518110156111e7576040517f08c379a00000000000000000000000000000000000000000000000000000000081526004016111de906147d0565b60405180910390fd5b60008360000160003373ffffffffffffffffffffffffffffffffffffffff1673ffffffffffffffffffffffffffffffffffffffff16815260200190815260200160002054141561126c576040517f08c379a00000000000000000000000000000000000000000000000000000000081526004016112639061483c565b60405180910390fd5b600082608001518261127e919061485c565b90506000836060015184600001518361129791906142fc565b6112a191906142fc565b90506112ad3382612a07565b828660000188815481106112c4576112c361417d565b5b90600052602060002090600602016004018190555050505050505050565b6000806112ed612301565b9050600081600301600085815260200190815260200160002060009054906101000a900473ffffffffffffffffffffffffffffffffffffffff169050600073ffffffffffffffffffffffffffffffffffffffff168173ffffffffffffffffffffffffffffffffffffffff161415611399576040517f08c379a000000000000000000000000000000000000000000000000000000000815260040161139090614902565b60405180910390fd5b8092505050919050565b6000806113ae612301565b9050600073ffffffffffffffffffffffffffffffffffffffff168373ffffffffffffffffffffffffffffffffffffffff161415611420576040517f08c379a00000000000000000000000000000000000000000000000000000000081526004016114179061496e565b60405180910390fd5b8060040160008473ffffffffffffffffffffffffffffffffffffffff1673ffffffffffffffffffffffffffffffffffffffff16815260200190815260200160002054915050919050565b60606000611476612301565b905080600201805461148790613fe1565b80601f01602080910402602001604051908101604052809291908181526020018280546114b390613fe1565b80156115005780601f106114d557610100808354040283529160200191611500565b820191906000526020600020905b8154815290600101906020018083116114e357829003601f168201915b505050505091505090565b611516338383612b61565b5050565b80611524816112e2565b73ffffffffffffffffffffffffffffffffffffffff163373ffffffffffffffffffffffffffffffffffffffff1614611591576040517f08c379a0000000000000000000000000000000000000000000000000000000008152600401611588906140f1565b60405180910390fd5b8161159b8161232e565b6115da576040517f08c379a00000000000000000000000000000000000000000000000000000000081526004016115d19061415d565b60405180910390fd5b60006115e4612301565b905060011515816000018581548110611600576115ff61417d565b5b906000526020600020906006020160050160009054906101000a900460ff16151514611661576040517f08c379a00000000000000000000000000000000000000000000000000000000081526004016116589061478a565b60405180910390fd5b60008160000185815481106116795761167861417d565b5b90600052602060002090600602016040518060c0016040529081600082015481526020016001820180546116ac90613fe1565b80601f01602080910402602001604051908101604052809291908181526020018280546116d890613fe1565b80156117255780601f106116fa57610100808354040283529160200191611725565b820191906000526020600020905b81548152906001019060200180831161170857829003601f168201915b5050505050815260200160028201805480602002602001604051908101604052809291908181526020016000905b828210156117ff57838290600052602060002001805461177290613fe1565b80601f016020809104026020016040519081016040528092919081815260200182805461179e90613fe1565b80156117eb5780601f106117c0576101008083540402835291602001916117eb565b820191906000526020600020905b8154815290600101906020018083116117ce57829003601f168201915b505050505081526020019060010190611753565b50505050815260200160038201548152602001600482015481526020016005820160009054906101000a900460ff161515151581525050905060008260000186815481106118505761184f61417d565b5b906000526020600020906006020160050160006101000a81548160ff021916908315150217905550600081608001514261188a919061485c565b9050600082606001518360000151836118a391906142fc565b6118ad91906142fc565b905060008460000188815481106118c7576118c661417d565b5b9060005260206000209060060201600401819055506118e63382612a07565b7f5bb69cf91a5fe5042a1dddb4665b7cdc9f36bfa7355be3174a35dac89df43a6c87600083876000018b815481106119215761192061417d565b5b906000526020600020906006020160405161193f949392919061498e565b60405180910390a150505050505050565b61195a3383612682565b611999576040517f08c379a00000000000000000000000000000000000000000000000000000000081526004016119909061471e565b60405180910390fd5b6119a584848484612cdd565b50505050565b606060006119b7612301565b90506119c28361232e565b611a01576040517f08c379a00000000000000000000000000000000000000000000000000000000081526004016119f890614a4c565b60405180910390fd5b6000816000018481548110611a1957611a1861417d565b5b90600052602060002090600602016001018054611a3590613fe1565b80601f0160208091040260200160405190810160405280929190818152602001828054611a6190613fe1565b8015611aae5780601f10611a8357610100808354040283529160200191611aae565b820191906000526020600020905b815481529060010190602001808311611a9157829003601f168201915b505050505090506000611abf612d39565b90506000815111611adf5760405180602001604052806000815250611b02565b8082604051602001611af2929190614aa8565b6040516020818303038152906040525b9350505050919050565b80611b16816112e2565b73ffffffffffffffffffffffffffffffffffffffff163373ffffffffffffffffffffffffffffffffffffffff1614611b83576040517f08c379a0000000000000000000000000000000000000000000000000000000008152600401611b7a906140f1565b60405180910390fd5b81611b8d8161232e565b611bcc576040517f08c379a0000000000000000000000000000000000000000000000000000000008152600401611bc39061415d565b60405180910390fd5b6000611bd6612301565b905060001515816000018581548110611bf257611bf161417d565b5b906000526020600020906006020160050160009054906101000a900460ff16151514611c53576040517f08c379a0000000000000000000000000000000000000000000000000000000008152600401611c4a90614b18565b60405180910390fd5b6001816000018581548110611c6b57611c6a61417d565b5b906000526020600020906006020160050160006101000a81548160ff02191690831515021790555042816000018581548110611caa57611ca961417d565b5b9060005260206000209060060201600401819055507f0da3e9e731707ba42937bc4b0f86f285e0f0e197a033df78be0dc152b1e2509d846001836000018781548110611cf957611cf861417d565b5b9060005260206000209060060201604051611d1693929190614b38565b60405180910390a150505050565b6000611d2e612481565b90506000611d3a612d76565b90506000611d46612301565b905060018260050160003373ffffffffffffffffffffffffffffffffffffffff1673ffffffffffffffffffffffffffffffffffffffff168152602001908152602001600020541015611dcd576040517f08c379a0000000000000000000000000000000000000000000000000000000008152600401611dc490614bc2565b60405180910390fd5b60c8836006015410611e14576040517f08c379a0000000000000000000000000000000000000000000000000000000008152600401611e0b90614c2e565b60405180910390fd5b60018260050160003373ffffffffffffffffffffffffffffffffffffffff1673ffffffffffffffffffffffffffffffffffffffff1681526020019081526020016000206000828254611e66919061485c565b925050819055506000611e77612da3565b90506000611e858287612f2b565b905060006040518060c001604052806001815260200183600081518110611eaf57611eae61417d565b5b602002602001015181526020018381526020018481526020016000815260200160001515815250905083600001819080600181540180825580915050600190039060005260206000209060060201600090919091909150600082015181600001556020820151816001019080519060200190611f2c92919061365c565b506040820151816002019080519060200190611f499291906136e2565b50606082015181600301556080820151816004015560a08201518160050160006101000a81548160ff0219169083151502179055505050856006016000815480929190611f95906142b3565b9190505550611fa383613027565b611fc03360018660000180549050611fbb919061485c565b6131a6565b7f33f55e39b5b394b47eacc42fbb4fc9c0e327107d2dd97eb3a9fac85d3ab35f02338560000180549050600084604051611ffd9493929190614e0d565b60405180910390a150505050505050565b600080612019612301565b90508060060160008573ffffffffffffffffffffffffffffffffffffffff1673ffffffffffffffffffffffffffffffffffffffff16815260200190815260200160002060008473ffffffffffffffffffffffffffffffffffffffff1673ffffffffffffffffffffffffffffffffffffffff16815260200190815260200160002060009054906101000a900460ff1691505092915050565b60006120ba612481565b905060006120c6612301565b9050610320826005015410612110576040517f08c379a000000000000000000000000000000000000000000000000000000000815260040161210790614ea5565b60405180910390fd5b34612119610db2565b14612159576040517f08c379a000000000000000000000000000000000000000000000000000000000815260040161215090614f11565b60405180910390fd5b6000612163612da3565b905060006121718286612f2b565b905060006040518060c00160405280600181526020018360008151811061219b5761219a61417d565b5b60200260200101518152602001838152602001848152602001600081526020016000151581525090508360000181908060018154018082558091505060019003906000526020600020906006020160009091909190915060008201518160000155602082015181600101908051906020019061221892919061365c565b5060408201518160020190805190602001906122359291906136e2565b50606082015181600301556080820151816004015560a08201518160050160006101000a81548160ff0219169083151502179055505050846005016000815480929190612281906142b3565b919050555061228f83613027565b6122ac33600186600001805490506122a7919061485c565b6131a6565b6122b534613379565b7f33f55e39b5b394b47eacc42fbb4fc9c0e327107d2dd97eb3a9fac85d3ab35f0233856000018054905034846040516122f19493929190614f31565b60405180910390a1505050505050565b6000807fa7dd434add67a973f5647cf03b4c2f6cf4bf5c1fc7f2ac8b3891ebb3133b346690508091505090565b600080612339612301565b9050600073ffffffffffffffffffffffffffffffffffffffff1681600301600085815260200190815260200160002060009054906101000a900473ffffffffffffffffffffffffffffffffffffffff1673ffffffffffffffffffffffffffffffffffffffff16146123ae5760019150506123b4565b60009150505b919050565b60006123c3612301565b90508281600501600084815260200190815260200160002060006101000a81548173ffffffffffffffffffffffffffffffffffffffff021916908373ffffffffffffffffffffffffffffffffffffffff160217905550818373ffffffffffffffffffffffffffffffffffffffff1661243a846112e2565b73ffffffffffffffffffffffffffffffffffffffff167f8c5be1e5ebec7d5bd14f71427d1e84f3dd0314c0f7b2291e5b200ac8c7c3b92560405160405180910390a4505050565b6000807f2a0147cf5b9ff63908d056e474ebe771e5673907c489029e386f7a5318ddf50190508091505090565b60006124b86129da565b9050600073ffffffffffffffffffffffffffffffffffffffff168373ffffffffffffffffffffffffffffffffffffffff16141561252a576040517f08c379a000000000000000000000000000000000000000000000000000000000815260040161252190614fef565b60405180910390fd5b60008160010160008573ffffffffffffffffffffffffffffffffffffffff1673ffffffffffffffffffffffffffffffffffffffff168152602001908152602001600020549050828110156125b3576040517f08c379a00000000000000000000000000000000000000000000000000000000081526004016125aa90615081565b60405180910390fd5b8281038260010160008673ffffffffffffffffffffffffffffffffffffffff1673ffffffffffffffffffffffffffffffffffffffff168152602001908152602001600020819055508282600201600082825461260f919061485c565b92505081905550600073ffffffffffffffffffffffffffffffffffffffff168473ffffffffffffffffffffffffffffffffffffffff167fddf252ad1be2c89b69c2b068fc378daa952ba7f163c4a11628f55a4df523b3ef8560405161267491906139cc565b60405180910390a350505050565b600061268d8261232e565b6126cc576040517f08c379a00000000000000000000000000000000000000000000000000000000081526004016126c390615113565b60405180910390fd5b60006126d7836112e2565b90508073ffffffffffffffffffffffffffffffffffffffff168473ffffffffffffffffffffffffffffffffffffffff16148061274657508373ffffffffffffffffffffffffffffffffffffffff1661272e84610558565b73ffffffffffffffffffffffffffffffffffffffff16145b806127575750612756818561200e565b5b91505092915050565b600061276a612301565b90508373ffffffffffffffffffffffffffffffffffffffff1661278c836112e2565b73ffffffffffffffffffffffffffffffffffffffff16146127e2576040517f08c379a00000000000000000000000000000000000000000000000000000000081526004016127d9906151a5565b60405180910390fd5b600073ffffffffffffffffffffffffffffffffffffffff168373ffffffffffffffffffffffffffffffffffffffff161415612852576040517f08c379a000000000000000000000000000000000000000000000000000000000815260040161284990615237565b60405180910390fd5b61285d84848461344a565b6128686000836123b9565b60018160040160008673ffffffffffffffffffffffffffffffffffffffff1673ffffffffffffffffffffffffffffffffffffffff16815260200190815260200160002060008282546128ba919061485c565b9250508190555060018160040160008573ffffffffffffffffffffffffffffffffffffffff1673ffffffffffffffffffffffffffffffffffffffff16815260200190815260200160002060008282546129139190615257565b925050819055508281600301600084815260200190815260200160002060006101000a81548173ffffffffffffffffffffffffffffffffffffffff021916908373ffffffffffffffffffffffffffffffffffffffff160217905550818373ffffffffffffffffffffffffffffffffffffffff168573ffffffffffffffffffffffffffffffffffffffff167fddf252ad1be2c89b69c2b068fc378daa952ba7f163c4a11628f55a4df523b3ef60405160405180910390a46129d484848461344f565b50505050565b6000807f1b091a9fb79d8a0a791074366f5ea0051fa79aed1deb4e83519829de6fb92bb190508091505090565b6000612a116129da565b9050600073ffffffffffffffffffffffffffffffffffffffff168373ffffffffffffffffffffffffffffffffffffffff161415612a83576040517f08c379a0000000000000000000000000000000000000000000000000000000008152600401612a7a906152f9565b60405180910390fd5b81816002016000828254612a979190615257565b92505081905550818160010160008573ffffffffffffffffffffffffffffffffffffffff1673ffffffffffffffffffffffffffffffffffffffff1681526020019081526020016000206000828254612aef9190615257565b925050819055508273ffffffffffffffffffffffffffffffffffffffff16600073ffffffffffffffffffffffffffffffffffffffff167fddf252ad1be2c89b69c2b068fc378daa952ba7f163c4a11628f55a4df523b3ef84604051612b5491906139cc565b60405180910390a3505050565b8173ffffffffffffffffffffffffffffffffffffffff168373ffffffffffffffffffffffffffffffffffffffff161415612bd0576040517f08c379a0000000000000000000000000000000000000000000000000000000008152600401612bc790615365565b60405180910390fd5b6000612bda612301565b9050818160060160008673ffffffffffffffffffffffffffffffffffffffff1673ffffffffffffffffffffffffffffffffffffffff16815260200190815260200160002060008573ffffffffffffffffffffffffffffffffffffffff1673ffffffffffffffffffffffffffffffffffffffff16815260200190815260200160002060006101000a81548160ff0219169083151502179055508273ffffffffffffffffffffffffffffffffffffffff168473ffffffffffffffffffffffffffffffffffffffff167f17307eab39ab6107e8899845ad3d59bd9653f200f220920489ca2b5937696c3184604051612ccf9190613f97565b60405180910390a350505050565b612ce8848484612760565b612cf484848484613454565b612d33576040517f08c379a0000000000000000000000000000000000000000000000000000000008152600401612d2a906153f7565b60405180910390fd5b50505050565b60606040518060400160405280601581526020017f68747470733a2f2f697066732e696f2f697066732f0000000000000000000000815250905090565b6000807f6bc844e8f78d8de9f3b120d94fd2efae4c9d3b45b2ddde509e79ee4515f298cc90508091505090565b600080612dae612481565b90506000816008015411612df7576040517f08c379a0000000000000000000000000000000000000000000000000000000008152600401612dee90614264565b60405180910390fd5b600060018260080154612e0a9190615257565b612e486040518060400160405280600681526020017f72617269747900000000000000000000000000000000000000000000000000008152506135d5565b612e529190615446565b9050600081118015612e68575081600101548111155b15612e7857600192505050612f28565b816001015481118015612e8f575081600201548111155b15612e9f57600292505050612f28565b816002015481118015612eb6575081600301548111155b15612ec657600392505050612f28565b816003015481118015612edd575081600401548111155b15612eed57600492505050612f28565b6040517f08c379a0000000000000000000000000000000000000000000000000000000008152600401612f1f906154c3565b60405180910390fd5b90565b606060058310612f70576040517f08c379a0000000000000000000000000000000000000000000000000000000008152600401612f679061552f565b60405180910390fd5b6001831415612f9c5781600081518110612f8d57612f8c61417d565b5b60200260200101519050613021565b6002831415612fc85781600181518110612fb957612fb861417d565b5b60200260200101519050613021565b6003831415612ff45781600281518110612fe557612fe461417d565b5b60200260200101519050613021565b600483141561302057816003815181106130115761301061417d565b5b60200260200101519050613021565b5b92915050565b6000613031612481565b905060018214156130a9578060010160008154809291906130519061554f565b919050555080600201600081548092919061306b9061554f565b91905055508060030160008154809291906130859061554f565b919050555080600401600081548092919061309f9061554f565b919050555061316e565b6002821415613105578060020160008154809291906130c79061554f565b91905055508060030160008154809291906130e19061554f565b91905055508060040160008154809291906130fb9061554f565b919050555061316d565b6003821415613147578060030160008154809291906131239061554f565b919050555080600401600081548092919061313d9061554f565b919050555061316c565b600482141561316b578060040160008154809291906131659061554f565b91905055505b5b5b5b806000016000815480929190613183906142b3565b919050555080600801600081548092919061319d9061554f565b91905055505050565b60006131b0612301565b9050600073ffffffffffffffffffffffffffffffffffffffff168373ffffffffffffffffffffffffffffffffffffffff161415613222576040517f08c379a0000000000000000000000000000000000000000000000000000000008152600401613219906155c5565b60405180910390fd5b61322b8261232e565b1561326b576040517f08c379a000000000000000000000000000000000000000000000000000000000815260040161326290615631565b60405180910390fd5b60018160040160008573ffffffffffffffffffffffffffffffffffffffff1673ffffffffffffffffffffffffffffffffffffffff16815260200190815260200160002060008282546132bd9190615257565b925050819055508281600301600084815260200190815260200160002060006101000a81548173ffffffffffffffffffffffffffffffffffffffff021916908373ffffffffffffffffffffffffffffffffffffffff160217905550818373ffffffffffffffffffffffffffffffffffffffff16600073ffffffffffffffffffffffffffffffffffffffff167fddf252ad1be2c89b69c2b068fc378daa952ba7f163c4a11628f55a4df523b3ef60405160405180910390a4505050565b600061338361360c565b905060006002836133949190615651565b905060005b600281101561344457818360000160008560010184600281106133bf576133be61417d565b5b0160009054906101000a900473ffffffffffffffffffffffffffffffffffffffff1673ffffffffffffffffffffffffffffffffffffffff1673ffffffffffffffffffffffffffffffffffffffff168152602001908152602001600020600082825461342a9190615257565b92505081905550808061343c906142b3565b915050613399565b50505050565b505050565b505050565b60006134758473ffffffffffffffffffffffffffffffffffffffff16613639565b156135c8578373ffffffffffffffffffffffffffffffffffffffff1663150b7a02338786866040518563ffffffff1660e01b81526004016134b994939291906156d7565b6020604051808303816000875af19250505080156134f557506040513d601f19601f820116820180604052508101906134f2919061577b565b60015b613578573d8060008114613525576040519150601f19603f3d011682016040523d82523d6000602084013e61352a565b606091505b50600081511415613570576040517f08c379a0000000000000000000000000000000000000000000000000000000008152600401613567906153f7565b60405180910390fd5b805181602001fd5b63150b7a0260e01b7bffffffffffffffffffffffffffffffffffffffffffffffffffffffff1916817bffffffffffffffffffffffffffffffffffffffffffffffffffffffff1916149150506135cd565b600190505b949350505050565b60004233836040516020016135ec93929190615811565b6040516020818303038152906040528051906020012060001c9050919050565b6000807faaecf6edcf861fc17fc9c5b0a28686a3e50a6d0beadccbac12a685bd4ed4771790508091505090565b6000808273ffffffffffffffffffffffffffffffffffffffff163b119050919050565b82805461366890613fe1565b90600052602060002090601f01602090048101928261368a57600085556136d1565b82601f106136a357805160ff19168380011785556136d1565b828001600101855582156136d1579182015b828111156136d05782518255916020019190600101906136b5565b5b5090506136de9190613742565b5090565b828054828255906000526020600020908101928215613731579160200282015b8281111561373057825182908051906020019061372092919061365c565b5091602001919060010190613702565b5b50905061373e919061375f565b5090565b5b8082111561375b576000816000905550600101613743565b5090565b5b8082111561377f57600081816137769190613783565b50600101613760565b5090565b50805461378f90613fe1565b6000825580601f106137a157506137c0565b601f0160209004906000526020600020908101906137bf9190613742565b5b50565b600081519050919050565b600082825260208201905092915050565b60005b838110156137fd5780820151818401526020810190506137e2565b8381111561380c576000848401525b50505050565b6000601f19601f8301169050919050565b600061382e826137c3565b61383881856137ce565b93506138488185602086016137df565b61385181613812565b840191505092915050565b600060208201905081810360008301526138768184613823565b905092915050565b6000604051905090565b600080fd5b600080fd5b6000819050919050565b6138a581613892565b81146138b057600080fd5b50565b6000813590506138c28161389c565b92915050565b6000602082840312156138de576138dd613888565b5b60006138ec848285016138b3565b91505092915050565b600073ffffffffffffffffffffffffffffffffffffffff82169050919050565b6000613920826138f5565b9050919050565b61393081613915565b82525050565b600060208201905061394b6000830184613927565b92915050565b61395a81613915565b811461396557600080fd5b50565b60008135905061397781613951565b92915050565b6000806040838503121561399457613993613888565b5b60006139a285828601613968565b92505060206139b3858286016138b3565b9150509250929050565b6139c681613892565b82525050565b60006020820190506139e160008301846139bd565b92915050565b600080600060608486031215613a00576139ff613888565b5b6000613a0e86828701613968565b9350506020613a1f86828701613968565b9250506040613a30868287016138b3565b9150509250925092565b600060208284031215613a5057613a4f613888565b5b6000613a5e84828501613968565b91505092915050565b60008115159050919050565b613a7c81613a67565b8114613a8757600080fd5b50565b600081359050613a9981613a73565b92915050565b60008060408385031215613ab657613ab5613888565b5b6000613ac485828601613968565b9250506020613ad585828601613a8a565b9150509250929050565b600080fd5b600080fd5b7f4e487b7100000000000000000000000000000000000000000000000000000000600052604160045260246000fd5b613b2182613812565b810181811067ffffffffffffffff82111715613b4057613b3f613ae9565b5b80604052505050565b6000613b5361387e565b9050613b5f8282613b18565b919050565b600067ffffffffffffffff821115613b7f57613b7e613ae9565b5b613b8882613812565b9050602081019050919050565b82818337600083830152505050565b6000613bb7613bb284613b64565b613b49565b905082815260208101848484011115613bd357613bd2613ae4565b5b613bde848285613b95565b509392505050565b600082601f830112613bfb57613bfa613adf565b5b8135613c0b848260208601613ba4565b91505092915050565b60008060008060808587031215613c2e57613c2d613888565b5b6000613c3c87828801613968565b9450506020613c4d87828801613968565b9350506040613c5e878288016138b3565b925050606085013567ffffffffffffffff811115613c7f57613c7e61388d565b5b613c8b87828801613be6565b91505092959194509250565b600067ffffffffffffffff821115613cb257613cb1613ae9565b5b602082029050602081019050919050565b600080fd5b600067ffffffffffffffff821115613ce357613ce2613ae9565b5b602082029050602081019050919050565b600067ffffffffffffffff821115613d0f57613d0e613ae9565b5b613d1882613812565b9050602081019050919050565b6000613d38613d3384613cf4565b613b49565b905082815260208101848484011115613d5457613d53613ae4565b5b613d5f848285613b95565b509392505050565b600082601f830112613d7c57613d7b613adf565b5b8135613d8c848260208601613d25565b91505092915050565b6000613da8613da384613cc8565b613b49565b90508083825260208201905060208402830185811115613dcb57613dca613cc3565b5b835b81811015613e1257803567ffffffffffffffff811115613df057613def613adf565b5b808601613dfd8982613d67565b85526020850194505050602081019050613dcd565b5050509392505050565b600082601f830112613e3157613e30613adf565b5b8135613e41848260208601613d95565b91505092915050565b6000613e5d613e5884613c97565b613b49565b90508083825260208201905060208402830185811115613e8057613e7f613cc3565b5b835b81811015613ec757803567ffffffffffffffff811115613ea557613ea4613adf565b5b808601613eb28982613e1c565b85526020850194505050602081019050613e82565b5050509392505050565b600082601f830112613ee657613ee5613adf565b5b8135613ef6848260208601613e4a565b91505092915050565b600060208284031215613f1557613f14613888565b5b600082013567ffffffffffffffff811115613f3357613f3261388d565b5b613f3f84828501613ed1565b91505092915050565b60008060408385031215613f5f57613f5e613888565b5b6000613f6d85828601613968565b9250506020613f7e85828601613968565b9150509250929050565b613f9181613a67565b82525050565b6000602082019050613fac6000830184613f88565b92915050565b7f4e487b7100000000000000000000000000000000000000000000000000000000600052602260045260246000fd5b60006002820490506001821680613ff957607f821691505b6020821081141561400d5761400c613fb2565b5b50919050565b7f4552433732313a20617070726f76656420717565727920666f72206e6f6e657860008201527f697374656e7420746f6b656e0000000000000000000000000000000000000000602082015250565b600061406f602c836137ce565b915061407a82614013565b604082019050919050565b6000602082019050818103600083015261409e81614062565b9050919050565b7f6e6f74206f776e65720000000000000000000000000000000000000000000000600082015250565b60006140db6009836137ce565b91506140e6826140a5565b602082019050919050565b6000602082019050818103600083015261410a816140ce565b9050919050565b7f4e465420646f65736e2774206578697374000000000000000000000000000000600082015250565b60006141476011836137ce565b915061415282614111565b602082019050919050565b600060208201905081810360008301526141768161413a565b9050919050565b7f4e487b7100000000000000000000000000000000000000000000000000000000600052603260045260246000fd5b7f6d6178206c766c00000000000000000000000000000000000000000000000000600082015250565b60006141e26007836137ce565b91506141ed826141ac565b602082019050919050565b60006020820190508181036000830152614211816141d5565b9050919050565b7f6c696d6974207265616368656400000000000000000000000000000000000000600082015250565b600061424e600d836137ce565b915061425982614218565b602082019050919050565b6000602082019050818103600083015261427d81614241565b9050919050565b7f4e487b7100000000000000000000000000000000000000000000000000000000600052601160045260246000fd5b60006142be82613892565b91507fffffffffffffffffffffffffffffffffffffffffffffffffffffffffffffffff8214156142f1576142f0614284565b5b600182019050919050565b600061430782613892565b915061431283613892565b9250817fffffffffffffffffffffffffffffffffffffffffffffffffffffffffffffffff048311821515161561434b5761434a614284565b5b828202905092915050565b60008160001c9050919050565b6000819050919050565b600061438061437b83614356565b614363565b9050919050565b61439081613892565b82525050565b600082825260208201905092915050565b60008190508160005260206000209050919050565b600081546143c981613fe1565b6143d38186614396565b945060018216600081146143ee576001811461440057614433565b60ff1983168652602086019350614433565b614409856143a7565b60005b8381101561442b5781548189015260018201915060208101905061440c565b808801955050505b50505092915050565b600081549050919050565b600082825260208201905092915050565b60008190508160005260206000209050919050565b600061447983836143bc565b905092915050565b6000600182019050919050565b60006144998261443c565b6144a38185614447565b9350836020820285016144b585614458565b8060005b858110156144f0578484038952816144d1858261446d565b94506144dc83614481565b925060208a019950506001810190506144b9565b50829750879550505050505092915050565b600060ff82169050919050565b600061452261451d83614356565b614502565b9050919050565b61453281613a67565b82525050565b600060c08301600080840154905061454f8161436d565b61455c6000870182614387565b5060018401858303602087015261457383826143bc565b92505060028401858303604087015261458c838261448e565b9250506003840154905061459f8161436d565b6145ac6060870182614387565b50600484015490506145bd8161436d565b6145ca6080870182614387565b50600584015490506145db8161450f565b6145e860a0870182614529565b50819250505092915050565b600060808201905061460960008301876139bd565b61461660208301866139bd565b61462360408301856139bd565b81810360608301526146358184614538565b905095945050505050565b7f4d696e7420656e64656400000000000000000000000000000000000000000000600082015250565b6000614676600a836137ce565b915061468182614640565b602082019050919050565b600060208201905081810360008301526146a581614669565b9050919050565b7f4552433732313a207472616e736665722063616c6c6572206973206e6f74206f60008201527f776e6572206e6f7220617070726f766564000000000000000000000000000000602082015250565b60006147086031836137ce565b9150614713826146ac565b604082019050919050565b60006020820190508181036000830152614737816146fb565b9050919050565b7f6e6f74207374616b656400000000000000000000000000000000000000000000600082015250565b6000614774600a836137ce565b915061477f8261473e565b602082019050919050565b600060208201905081810360008301526147a381614767565b9050919050565b50565b60006147ba6000836137ce565b91506147c5826147aa565b600082019050919050565b600060208201905081810360008301526147e9816147ad565b9050919050565b7f6e6f20737461726d000000000000000000000000000000000000000000000000600082015250565b60006148266008836137ce565b9150614831826147f0565b602082019050919050565b6000602082019050818103600083015261485581614819565b9050919050565b600061486782613892565b915061487283613892565b92508282101561488557614884614284565b5b828203905092915050565b7f4552433732313a206f776e657220717565727920666f72206e6f6e657869737460008201527f656e7420746f6b656e0000000000000000000000000000000000000000000000602082015250565b60006148ec6029836137ce565b91506148f782614890565b604082019050919050565b6000602082019050818103600083015261491b816148df565b9050919050565b7f7a65726f20616464726573730000000000000000000000000000000000000000600082015250565b6000614958600c836137ce565b915061496382614922565b602082019050919050565b600060208201905081810360008301526149878161494b565b9050919050565b60006080820190506149a360008301876139bd565b6149b06020830186613f88565b6149bd60408301856139bd565b81810360608301526149cf8184614538565b905095945050505050565b7f4552433732314d657461646174613a2055524920717565727920666f72206e6f60008201527f6e6578697374656e7420746f6b656e0000000000000000000000000000000000602082015250565b6000614a36602f836137ce565b9150614a41826149da565b604082019050919050565b60006020820190508181036000830152614a6581614a29565b9050919050565b600081905092915050565b6000614a82826137c3565b614a8c8185614a6c565b9350614a9c8185602086016137df565b80840191505092915050565b6000614ab48285614a77565b9150614ac08284614a77565b91508190509392505050565b7f7374616b696e6700000000000000000000000000000000000000000000000000600082015250565b6000614b026007836137ce565b9150614b0d82614acc565b602082019050919050565b60006020820190508181036000830152614b3181614af5565b9050919050565b6000606082019050614b4d60008301866139bd565b614b5a6020830185613f88565b8181036040830152614b6c8184614538565b9050949350505050565b7f6e6f207469636b65747300000000000000000000000000000000000000000000600082015250565b6000614bac600a836137ce565b9150614bb782614b76565b602082019050919050565b60006020820190508181036000830152614bdb81614b9f565b9050919050565b7f4e6f206d6f7265206c6f74746572696573000000000000000000000000000000600082015250565b6000614c186011836137ce565b9150614c2382614be2565b602082019050919050565b60006020820190508181036000830152614c4781614c0b565b9050919050565b6000819050919050565b6000819050919050565b6000614c7d614c78614c7384614c4e565b614c58565b613892565b9050919050565b614c8d81614c62565b82525050565b6000614c9e826137c3565b614ca88185614396565b9350614cb88185602086016137df565b614cc181613812565b840191505092915050565b600081519050919050565b6000819050602082019050919050565b6000614cf38383614c93565b905092915050565b6000602082019050919050565b6000614d1382614ccc565b614d1d8185614447565b935083602082028501614d2f85614cd7565b8060005b85811015614d6b5784840389528151614d4c8582614ce7565b9450614d5783614cfb565b925060208a01995050600181019050614d33565b50829750879550505050505092915050565b600060c083016000830151614d956000860182614387565b5060208301518482036020860152614dad8282614c93565b91505060408301518482036040860152614dc78282614d08565b9150506060830151614ddc6060860182614387565b506080830151614def6080860182614387565b5060a0830151614e0260a0860182614529565b508091505092915050565b6000608082019050614e226000830187613927565b614e2f60208301866139bd565b614e3c6040830185614c84565b8181036060830152614e4e8184614d7d565b905095945050505050565b7f616c6c206d696e74656400000000000000000000000000000000000000000000600082015250565b6000614e8f600a836137ce565b9150614e9a82614e59565b602082019050919050565b60006020820190508181036000830152614ebe81614e82565b9050919050565b7f6e6f7420656e6f75676820657468657200000000000000000000000000000000600082015250565b6000614efb6010836137ce565b9150614f0682614ec5565b602082019050919050565b60006020820190508181036000830152614f2a81614eee565b9050919050565b6000608082019050614f466000830187613927565b614f5360208301866139bd565b614f6060408301856139bd565b8181036060830152614f728184614d7d565b905095945050505050565b7f45524332303a206275726e2066726f6d20746865207a65726f2061646472657360008201527f7300000000000000000000000000000000000000000000000000000000000000602082015250565b6000614fd96021836137ce565b9150614fe482614f7d565b604082019050919050565b6000602082019050818103600083015261500881614fcc565b9050919050565b7f45524332303a206275726e20616d6f756e7420657863656564732062616c616e60008201527f6365000000000000000000000000000000000000000000000000000000000000602082015250565b600061506b6022836137ce565b91506150768261500f565b604082019050919050565b6000602082019050818103600083015261509a8161505e565b9050919050565b7f4552433732313a206f70657261746f7220717565727920666f72206e6f6e657860008201527f697374656e7420746f6b656e0000000000000000000000000000000000000000602082015250565b60006150fd602c836137ce565b9150615108826150a1565b604082019050919050565b6000602082019050818103600083015261512c816150f0565b9050919050565b7f4552433732313a207472616e736665722066726f6d20696e636f72726563742060008201527f6f776e6572000000000000000000000000000000000000000000000000000000602082015250565b600061518f6025836137ce565b915061519a82615133565b604082019050919050565b600060208201905081810360008301526151be81615182565b9050919050565b7f4552433732313a207472616e7366657220746f20746865207a65726f2061646460008201527f7265737300000000000000000000000000000000000000000000000000000000602082015250565b60006152216024836137ce565b915061522c826151c5565b604082019050919050565b6000602082019050818103600083015261525081615214565b9050919050565b600061526282613892565b915061526d83613892565b9250827fffffffffffffffffffffffffffffffffffffffffffffffffffffffffffffffff038211156152a2576152a1614284565b5b828201905092915050565b7f45524332303a206d696e7420746f20746865207a65726f206164647265737300600082015250565b60006152e3601f836137ce565b91506152ee826152ad565b602082019050919050565b60006020820190508181036000830152615312816152d6565b9050919050565b7f4552433732313a20617070726f766520746f2063616c6c657200000000000000600082015250565b600061534f6019836137ce565b915061535a82615319565b602082019050919050565b6000602082019050818103600083015261537e81615342565b9050919050565b7f4552433732313a207472616e7366657220746f206e6f6e20455243373231526560008201527f63656976657220696d706c656d656e7465720000000000000000000000000000602082015250565b60006153e16032836137ce565b91506153ec82615385565b604082019050919050565b60006020820190508181036000830152615410816153d4565b9050919050565b7f4e487b7100000000000000000000000000000000000000000000000000000000600052601260045260246000fd5b600061545182613892565b915061545c83613892565b92508261546c5761546b615417565b5b828206905092915050565b7f6e6f7420696e207468652073636f706500000000000000000000000000000000600082015250565b60006154ad6010836137ce565b91506154b882615477565b602082019050919050565b600060208201905081810360008301526154dc816154a0565b9050919050565b7f5249206e6f74206578697374696e670000000000000000000000000000000000600082015250565b6000615519600f836137ce565b9150615524826154e3565b602082019050919050565b600060208201905081810360008301526155488161550c565b9050919050565b600061555a82613892565b9150600082141561556e5761556d614284565b5b600182039050919050565b7f4552433732313a206d696e7420746f20746865207a65726f2061646472657373600082015250565b60006155af6020836137ce565b91506155ba82615579565b602082019050919050565b600060208201905081810360008301526155de816155a2565b9050919050565b7f4552433732313a20746f6b656e20616c7265616479206d696e74656400000000600082015250565b600061561b601c836137ce565b9150615626826155e5565b602082019050919050565b6000602082019050818103600083015261564a8161560e565b9050919050565b600061565c82613892565b915061566783613892565b92508261567757615676615417565b5b828204905092915050565b600081519050919050565b600082825260208201905092915050565b60006156a982615682565b6156b3818561568d565b93506156c38185602086016137df565b6156cc81613812565b840191505092915050565b60006080820190506156ec6000830187613927565b6156f96020830186613927565b61570660408301856139bd565b8181036060830152615718818461569e565b905095945050505050565b60007fffffffff0000000000000000000000000000000000000000000000000000000082169050919050565b61575881615723565b811461576357600080fd5b50565b6000815190506157758161574f565b92915050565b60006020828403121561579157615790613888565b5b600061579f84828501615766565b91505092915050565b6000819050919050565b6157c36157be82613892565b6157a8565b82525050565b60008160601b9050919050565b60006157e1826157c9565b9050919050565b60006157f3826157d6565b9050919050565b61580b61580682613915565b6157e8565b82525050565b600061581d82866157b2565b60208201915061582d82856157fa565b60148201915061583d8284614a77565b915081905094935050505056fea2646970667358221220644007deb714f220bb0979ba0a964a4416880a488a91507c8c5d5d66d082544d64736f6c634300080b0033",
  "immutableReferences": {},
  "source": "//SPDX-License-Identifier: MIT\npragma solidity 0.8.11;\n\nimport {\n    Dixel,\n    LibDixel\n} from \"../libraries/LibDixel.sol\";\nimport {\n    LibLottery\n} from \"../libraries/LibLottery.sol\";\nimport {\n    LibStarm\n} from \"../libraries/LibStarm.sol\";\nimport \"../ERC721.sol\";\n\ncontract DixelFacet is ERC721 {\n    /**\n     * @dev is emitted when a Dixel is created\n     */\n    event DixelMinted(address _minter, uint _id, uint _mintPrice, Dixel _dixel);\n\n    /**\n     * @dev is emitted when a Dixel is put in staking\n     */\n    event Staking(uint _id, bool _isStaked, Dixel _dixel);\n\n    /**\n     * @dev is emitted when a Dixel is unStaked\n     */\n    event UnStaking(uint _id, bool _isStaked, uint _starmProduced, Dixel _dixel);\n\n    /**\n     * @dev is emitted when a Dixel is leveled up\n     */\n    event LevelUp(uint _tokenId, uint _oldLevel, uint _newLevel, Dixel _dixel);\n\n\n\n    modifier isOwner(uint _tokenId) {\n        require(msg.sender == ownerOf(_tokenId), \"not owner\");\n        _;\n    }\n\n    modifier exists(uint _tokenId) {\n        require(_exists(_tokenId), \"NFT doesn't exist\");\n        _;\n    }\n\n\n    /**\n     * @dev sets the price of the mint in function of the current supply\n     */\n    function getDixelPrice() public view returns(uint256) {\n        LibDixel.SupplyStorage storage supplies = LibDixel.supplyStorage();\n        uint currentSupply = supplies.mintedSupply;\n        require(currentSupply <= LibDixel.maxMintedSupply, \"Mint ended\");\n        if (currentSupply >= 1850) {\n            return 100000000000000000; // 1850  - 1880 0.1ETH\n        } else if (currentSupply >= 1700) {\n            return 80000000000000000; // 1700 - 1850 0.08 ETH\n        } else if (currentSupply >= 1150) {\n            return 60000000000000000; // 1150 - 1700 0.06 ETH\n        } else if (currentSupply >= 650) {\n            return 50000000000000000; // 650 - 1150 0.05 ETH\n        } else if (currentSupply >= 250) {\n            return 30000000000000000; // 250 - 650 0.03 ETH\n        } else {\n            return 10000000000000000; // 0 - 250 0.01 ETH\n        }\n    }\n\n\n    /**\n     * @dev allow to mint a new Dixel for a price set in getDixelPrice()\n     * @dev there is a security issue with the addresses as anyone\n     * @param _addresses set of URI addresses for the future NFT's addresses.\n     * Emits a {DixelMinted} event\n     */\n    function mintDixel(string[][] memory _addresses) external payable {\n        LibDixel.SupplyStorage storage supplies = LibDixel.supplyStorage();\n        LibDixel.DixelStorage storage ds = LibDixel.dixelStorage();\n        require(supplies.mintedSupply< LibDixel.maxMintedSupply, \"all minted\");\n        require(getDixelPrice() == msg.value, \"not enough ether\");\n        uint rarity = LibDixel.genRarity();\n        string[] memory mAddressArray = LibDixel.assignAddress(rarity, _addresses);\n        Dixel memory tempDix = Dixel(1, mAddressArray[0], mAddressArray, rarity, 0, false);\n        ds.dixels.push(tempDix);\n        supplies.mintedSupply++;\n        LibDixel.changeSupplies(rarity);\n        mint(msg.sender, ds.dixels.length - 1);\n        LibDixel.fundCreators(msg.value);\n        emit DixelMinted(msg.sender, ds.dixels.length, msg.value, tempDix);\n    }\n\n\n    /**\n     * @dev mint a Dixel for free with a won lottery ticket. User will still have to pay gas fee\n     * @dev there is a security issue with the addresses as anyone\n     * @param _addresses set of URI addresses for the future NFT's addresses.\n     *\n     * Emits a {DixelMinted} event\n     */\n    function mintFreeDixel(string[][] memory _addresses) external {\n        LibDixel.SupplyStorage storage supplies = LibDixel.supplyStorage();\n        LibLottery.LotteryStorage storage ls = LibLottery.lotteryStorage();\n        LibDixel.DixelStorage storage ds = LibDixel.dixelStorage();\n        require(ls.freeMintTickets[msg.sender] >= 1, \"no tickets\");\n        require(supplies.lotterySupply < LibDixel.maxLotteryMintedSupply, \"No more lotteries\");\n\n        ls.freeMintTickets[msg.sender] -= 1;\n        uint rarity = LibDixel.genRarity();\n        string[] memory mAddressArray = LibDixel.assignAddress(rarity, _addresses);\n        Dixel memory tempDix = Dixel(1, mAddressArray[0], mAddressArray, rarity, 0, false);\n        ds.dixels.push(tempDix);\n        supplies.lotterySupply++;\n        LibDixel.changeSupplies(rarity);\n        mint(msg.sender, ds.dixels.length - 1);\n        emit DixelMinted(msg.sender, ds.dixels.length, 0, tempDix);\n    }\n\n    /**\n     * @dev overriden function to set the base URI to ipfs\n     */\n    function _baseURI() internal override pure returns(string memory) {\n        return \"https://ipfs.io/ipfs/\";\n    }\n\n    /**\n     * @dev overiden function to set ipfs metadata's address hash\n     */\n    function tokenURI(uint256 tokenId) public override view returns(string memory) {\n        LibDixel.DixelStorage storage ds = LibDixel.dixelStorage();\n        require(_exists(tokenId), \"ERC721Metadata: URI query for nonexistent token\");\n        string memory mAddress = ds.dixels[tokenId].URI;\n        string memory baseURI = _baseURI();\n        return bytes(baseURI).length > 0 ?\n            string(abi.encodePacked(baseURI, mAddress)) :\n            '';\n    }\n\n    /**\n    * @notice Stake a NFT to produce starm\n    * @param _tokenId the id of the NFT to stake \n    ** Emits a {Staking} event\n    */ \n    function stakeDix(uint _tokenId) external isOwner(_tokenId) exists(_tokenId){\n        LibDixel.DixelStorage storage ds = LibDixel.dixelStorage();\n        require(ds.dixels[_tokenId].staked == false, \"staking\");\n        ds.dixels[_tokenId].staked = true;\n        ds.dixels[_tokenId].stakeInitTime = block.timestamp;\n\n        emit Staking(_tokenId, true, ds.dixels[_tokenId]);\n    }\n\n    /**\n     * @dev unStake chosen dixel and rewards minted starm to user\n     * @param _tokenId the Dixel to unstake\n     *\n     ** Emits a {UnStaking} event\n     */\n    function unStakeDix(uint _tokenId) external isOwner(_tokenId) exists(_tokenId) {\n        LibDixel.DixelStorage storage ds = LibDixel.dixelStorage();\n        require(ds.dixels[_tokenId].staked == true, \"not staked\");\n        Dixel memory dixel = ds.dixels[_tokenId];\n        ds.dixels[_tokenId].staked = false;\n        uint stakedTime = block.timestamp - dixel.stakeInitTime;\n        uint StarmToMint = stakedTime * (dixel.level) * (dixel.rarity);\n        ds.dixels[_tokenId].stakeInitTime = 0;\n        LibStarm._mintStarm(msg.sender, StarmToMint);\n        emit UnStaking(_tokenId, false, StarmToMint, ds.dixels[_tokenId]);\n    }\n\n    /**\n     * @dev level up a Dixel for a cost of Starm\n     * @param _tokenId the Dixel to level up\n     *\n     * Emits a {LevelUp} event\n     */\n    function levelUp(uint _tokenId) external isOwner(_tokenId) exists(_tokenId) {\n        LibDixel.SupplyStorage storage supplies = LibDixel.supplyStorage();\n        LibDixel.DixelStorage storage ds = LibDixel.dixelStorage();\n        Dixel memory dixel = ds.dixels[_tokenId];\n        require(ds.dixels[_tokenId].level < 5 , \"max lvl\");\n\n        if (dixel.level == 4) {\n            require(supplies.collectorsSupply <= LibDixel.maxCollectors, \"limit reached\");\n            supplies.collectorsSupply++;\n        }\n        uint oldLevel = dixel.level;\n        dixel.URI = dixel.levelURI[dixel.level];\n        dixel.level++;\n        ds.dixels[_tokenId] = dixel;\n        LibStarm._burnStarm(msg.sender, dixel.level * 1000);\n        tokenURI(_tokenId);\n        emit LevelUp(_tokenId, oldLevel, dixel.level, ds.dixels[_tokenId]);\n    }\n\n    /**\n    * @notice withdraw starm produced by one staked NFT\n    * @param _tokenId id of the staked NFT to withdraw the produced starm from\n    */\n        function withdrawProducedStarm(uint _tokenId) external {\n        LibDixel.DixelStorage storage ds = LibDixel.dixelStorage();\n        LibStarm.StarmStorage storage ss = LibStarm.starmStorage();\n        Dixel memory dixel = ds.dixels[_tokenId];\n        uint currentBlockTime = block.timestamp;\n\n        require(ds.dixels[_tokenId].staked == true, \"not staked\");\n        require(currentBlockTime >= dixel.stakeInitTime, \"\");\n        require(ss.starmToWithdraw[msg.sender] != 0, \"no starm\");\n\n        uint stakedTime = currentBlockTime - dixel.stakeInitTime;\n        uint StarmToMint = stakedTime * (dixel.level) * (dixel.rarity); // FIXME: staking formula must be changed for mainnet deployment\n\n        LibStarm._mintStarm(msg.sender, StarmToMint);\n        ds.dixels[_tokenId].stakeInitTime = currentBlockTime;\n    }\n\n}",
  "sourcePath": "/home/torof/blockchain-developer-bootcamp-final-project/contracts/facets/DixelFacet.sol",
  "compiler": {
    "name": "solc",
    "version": "0.8.11+commit.d7f03943.Emscripten.clang"
  },
  "schemaVersion": "3.4.4",
  "updatedAt": "2022-01-31T18:55:14.167Z",
  "networkType": "ethereum",
  "devdoc": {
    "events": {
      "DixelMinted(address,uint256,uint256,(uint256,string,string[],uint256,uint256,bool))": {
        "details": "is emitted when a Dixel is created"
      },
      "LevelUp(uint256,uint256,uint256,(uint256,string,string[],uint256,uint256,bool))": {
        "details": "is emitted when a Dixel is leveled up"
      },
      "Staking(uint256,bool,(uint256,string,string[],uint256,uint256,bool))": {
        "details": "is emitted when a Dixel is put in staking"
      },
      "UnStaking(uint256,bool,uint256,(uint256,string,string[],uint256,uint256,bool))": {
        "details": "is emitted when a Dixel is unStaked"
      }
    },
    "kind": "dev",
    "methods": {
      "approve(address,uint256)": {
        "details": "Gives permission to `to` to transfer `tokenId` token to another account. The approval is cleared when the token is transferred. Only a single account can be approved at a time, so approving the zero address clears previous approvals. Requirements: - The caller must own the token or be an approved operator. - `tokenId` must exist. Emits an {Approval} event."
      },
      "balanceOf(address)": {
        "details": "Returns the number of tokens in ``owner``'s account."
      },
      "getApproved(uint256)": {
        "details": "Returns the account approved for `tokenId` token. Requirements: - `tokenId` must exist."
      },
      "getDixelPrice()": {
        "details": "sets the price of the mint in function of the current supply"
      },
      "isApprovedForAll(address,address)": {
        "details": "Returns if the `operator` is allowed to manage all of the assets of `owner`. See {setApprovalForAll}"
      },
      "levelUp(uint256)": {
        "details": "level up a Dixel for a cost of Starm",
        "params": {
          "_tokenId": "the Dixel to level up Emits a {LevelUp} event"
        }
      },
      "mintDixel(string[][])": {
        "details": "allow to mint a new Dixel for a price set in getDixelPrice()there is a security issue with the addresses as anyone",
        "params": {
          "_addresses": "set of URI addresses for the future NFT's addresses. Emits a {DixelMinted} event"
        }
      },
      "mintFreeDixel(string[][])": {
        "details": "mint a Dixel for free with a won lottery ticket. User will still have to pay gas feethere is a security issue with the addresses as anyone",
        "params": {
          "_addresses": "set of URI addresses for the future NFT's addresses. Emits a {DixelMinted} event"
        }
      },
      "ownerOf(uint256)": {
        "details": "Returns the owner of the `tokenId` token. Requirements: - `tokenId` must exist."
      },
      "safeTransferFrom(address,address,uint256)": {
        "details": "Safely transfers `tokenId` token from `from` to `to`, checking first that contract recipients are aware of the ERC721 protocol to prevent tokens from being forever locked. Requirements: - `from` cannot be the zero address. - `to` cannot be the zero address. - `tokenId` token must exist and be owned by `from`. - If the caller is not `from`, it must be have been allowed to move this token by either {approve} or {setApprovalForAll}. - If `to` refers to a smart contract, it must implement {IERC721Receiver-onERC721Received}, which is called upon a safe transfer. Emits a {Transfer} event."
      },
      "safeTransferFrom(address,address,uint256,bytes)": {
        "details": "Safely transfers `tokenId` token from `from` to `to`. Requirements: - `from` cannot be the zero address. - `to` cannot be the zero address. - `tokenId` token must exist and be owned by `from`. - If the caller is not `from`, it must be approved to move this token by either {approve} or {setApprovalForAll}. - If `to` refers to a smart contract, it must implement {IERC721Receiver-onERC721Received}, which is called upon a safe transfer. Emits a {Transfer} event."
      },
      "setApprovalForAll(address,bool)": {
        "details": "Approve or remove `operator` as an operator for the caller. Operators can call {transferFrom} or {safeTransferFrom} for any token owned by the caller. Requirements: - The `operator` cannot be the caller. Emits an {ApprovalForAll} event."
      },
      "stakeDix(uint256)": {
        "params": {
          "_tokenId": "the id of the NFT to stake ** Emits a {Staking} event"
        }
      },
      "tokenURI(uint256)": {
        "details": "overiden function to set ipfs metadata's address hash"
      },
      "transferFrom(address,address,uint256)": {
        "details": "Transfers `tokenId` token from `from` to `to`. WARNING: Usage of this method is discouraged, use {safeTransferFrom} whenever possible. Requirements: - `from` cannot be the zero address. - `to` cannot be the zero address. - `tokenId` token must be owned by `from`. - If the caller is not `from`, it must be approved to move this token by either {approve} or {setApprovalForAll}. Emits a {Transfer} event."
      },
      "unStakeDix(uint256)": {
        "details": "unStake chosen dixel and rewards minted starm to user",
        "params": {
          "_tokenId": "the Dixel to unstake** Emits a {UnStaking} event"
        }
      },
      "withdrawProducedStarm(uint256)": {
        "params": {
          "_tokenId": "id of the staked NFT to withdraw the produced starm from"
        }
      }
    },
    "version": 1
  },
  "userdoc": {
    "kind": "user",
    "methods": {
      "stakeDix(uint256)": {
        "notice": "Stake a NFT to produce starm"
      },
      "withdrawProducedStarm(uint256)": {
        "notice": "withdraw starm produced by one staked NFT"
      }
    },
    "version": 1
  }
}