{
  "contractName": "DixelFacet",
  "abi": [
    {
      "anonymous": false,
      "inputs": [
        {
          "indexed": true,
          "internalType": "address",
          "name": "owner",
          "type": "address"
        },
        {
          "indexed": true,
          "internalType": "address",
          "name": "approved",
          "type": "address"
        },
        {
          "indexed": true,
          "internalType": "uint256",
          "name": "tokenId",
          "type": "uint256"
        }
      ],
      "name": "Approval",
      "type": "event"
    },
    {
      "anonymous": false,
      "inputs": [
        {
          "indexed": true,
          "internalType": "address",
          "name": "owner",
          "type": "address"
        },
        {
          "indexed": true,
          "internalType": "address",
          "name": "operator",
          "type": "address"
        },
        {
          "indexed": false,
          "internalType": "bool",
          "name": "approved",
          "type": "bool"
        }
      ],
      "name": "ApprovalForAll",
      "type": "event"
    },
    {
      "anonymous": false,
      "inputs": [
        {
          "indexed": false,
          "internalType": "address",
          "name": "_minter",
          "type": "address"
        },
        {
          "indexed": false,
          "internalType": "uint256",
          "name": "_id",
          "type": "uint256"
        },
        {
          "indexed": false,
          "internalType": "uint256",
          "name": "_mintPrice",
          "type": "uint256"
        },
        {
          "components": [
            {
              "internalType": "uint256",
              "name": "level",
              "type": "uint256"
            },
            {
              "internalType": "string",
              "name": "URI",
              "type": "string"
            },
            {
              "internalType": "string[]",
              "name": "levelURI",
              "type": "string[]"
            },
            {
              "internalType": "uint256",
              "name": "rarity",
              "type": "uint256"
            },
            {
              "internalType": "uint256",
              "name": "stakeInitTime",
              "type": "uint256"
            },
            {
              "internalType": "bool",
              "name": "staked",
              "type": "bool"
            }
          ],
          "indexed": false,
          "internalType": "struct Dixel",
          "name": "_dixel",
          "type": "tuple"
        }
      ],
      "name": "DixelMinted",
      "type": "event"
    },
    {
      "anonymous": false,
      "inputs": [
        {
          "indexed": false,
          "internalType": "uint256",
          "name": "_tokenId",
          "type": "uint256"
        },
        {
          "indexed": false,
          "internalType": "uint256",
          "name": "_oldLevel",
          "type": "uint256"
        },
        {
          "indexed": false,
          "internalType": "uint256",
          "name": "_newLevel",
          "type": "uint256"
        },
        {
          "components": [
            {
              "internalType": "uint256",
              "name": "level",
              "type": "uint256"
            },
            {
              "internalType": "string",
              "name": "URI",
              "type": "string"
            },
            {
              "internalType": "string[]",
              "name": "levelURI",
              "type": "string[]"
            },
            {
              "internalType": "uint256",
              "name": "rarity",
              "type": "uint256"
            },
            {
              "internalType": "uint256",
              "name": "stakeInitTime",
              "type": "uint256"
            },
            {
              "internalType": "bool",
              "name": "staked",
              "type": "bool"
            }
          ],
          "indexed": false,
          "internalType": "struct Dixel",
          "name": "_dixel",
          "type": "tuple"
        }
      ],
      "name": "LevelUp",
      "type": "event"
    },
    {
      "anonymous": false,
      "inputs": [
        {
          "indexed": false,
          "internalType": "uint256",
          "name": "_id",
          "type": "uint256"
        },
        {
          "indexed": false,
          "internalType": "bool",
          "name": "_isStaked",
          "type": "bool"
        },
        {
          "components": [
            {
              "internalType": "uint256",
              "name": "level",
              "type": "uint256"
            },
            {
              "internalType": "string",
              "name": "URI",
              "type": "string"
            },
            {
              "internalType": "string[]",
              "name": "levelURI",
              "type": "string[]"
            },
            {
              "internalType": "uint256",
              "name": "rarity",
              "type": "uint256"
            },
            {
              "internalType": "uint256",
              "name": "stakeInitTime",
              "type": "uint256"
            },
            {
              "internalType": "bool",
              "name": "staked",
              "type": "bool"
            }
          ],
          "indexed": false,
          "internalType": "struct Dixel",
          "name": "_dixel",
          "type": "tuple"
        }
      ],
      "name": "Staking",
      "type": "event"
    },
    {
      "anonymous": false,
      "inputs": [
        {
          "indexed": true,
          "internalType": "address",
          "name": "from",
          "type": "address"
        },
        {
          "indexed": true,
          "internalType": "address",
          "name": "to",
          "type": "address"
        },
        {
          "indexed": true,
          "internalType": "uint256",
          "name": "tokenId",
          "type": "uint256"
        }
      ],
      "name": "Transfer",
      "type": "event"
    },
    {
      "anonymous": false,
      "inputs": [
        {
          "indexed": false,
          "internalType": "uint256",
          "name": "_id",
          "type": "uint256"
        },
        {
          "indexed": false,
          "internalType": "bool",
          "name": "_isStaked",
          "type": "bool"
        },
        {
          "indexed": false,
          "internalType": "uint256",
          "name": "_starmProduced",
          "type": "uint256"
        },
        {
          "components": [
            {
              "internalType": "uint256",
              "name": "level",
              "type": "uint256"
            },
            {
              "internalType": "string",
              "name": "URI",
              "type": "string"
            },
            {
              "internalType": "string[]",
              "name": "levelURI",
              "type": "string[]"
            },
            {
              "internalType": "uint256",
              "name": "rarity",
              "type": "uint256"
            },
            {
              "internalType": "uint256",
              "name": "stakeInitTime",
              "type": "uint256"
            },
            {
              "internalType": "bool",
              "name": "staked",
              "type": "bool"
            }
          ],
          "indexed": false,
          "internalType": "struct Dixel",
          "name": "_dixel",
          "type": "tuple"
        }
      ],
      "name": "UnStaking",
      "type": "event"
    },
    {
      "inputs": [
        {
          "internalType": "address",
          "name": "_to",
          "type": "address"
        },
        {
          "internalType": "uint256",
          "name": "_tokenId",
          "type": "uint256"
        }
      ],
      "name": "approve",
      "outputs": [],
      "stateMutability": "nonpayable",
      "type": "function"
    },
    {
      "inputs": [
        {
          "internalType": "address",
          "name": "owner",
          "type": "address"
        }
      ],
      "name": "balanceOf",
      "outputs": [
        {
          "internalType": "uint256",
          "name": "balance",
          "type": "uint256"
        }
      ],
      "stateMutability": "view",
      "type": "function",
      "constant": true
    },
    {
      "inputs": [
        {
          "internalType": "uint256",
          "name": "tokenId",
          "type": "uint256"
        }
      ],
      "name": "getApproved",
      "outputs": [
        {
          "internalType": "address",
          "name": "",
          "type": "address"
        }
      ],
      "stateMutability": "view",
      "type": "function",
      "constant": true
    },
    {
      "inputs": [
        {
          "internalType": "address",
          "name": "owner",
          "type": "address"
        },
        {
          "internalType": "address",
          "name": "operator",
          "type": "address"
        }
      ],
      "name": "isApprovedForAll",
      "outputs": [
        {
          "internalType": "bool",
          "name": "",
          "type": "bool"
        }
      ],
      "stateMutability": "view",
      "type": "function",
      "constant": true
    },
    {
      "inputs": [],
      "name": "name",
      "outputs": [
        {
          "internalType": "string",
          "name": "",
          "type": "string"
        }
      ],
      "stateMutability": "view",
      "type": "function",
      "constant": true
    },
    {
      "inputs": [
        {
          "internalType": "uint256",
          "name": "_tokenId",
          "type": "uint256"
        }
      ],
      "name": "ownerOf",
      "outputs": [
        {
          "internalType": "address",
          "name": "",
          "type": "address"
        }
      ],
      "stateMutability": "view",
      "type": "function",
      "constant": true
    },
    {
      "inputs": [
        {
          "internalType": "address",
          "name": "from",
          "type": "address"
        },
        {
          "internalType": "address",
          "name": "to",
          "type": "address"
        },
        {
          "internalType": "uint256",
          "name": "tokenId",
          "type": "uint256"
        }
      ],
      "name": "safeTransferFrom",
      "outputs": [],
      "stateMutability": "nonpayable",
      "type": "function"
    },
    {
      "inputs": [
        {
          "internalType": "address",
          "name": "_from",
          "type": "address"
        },
        {
          "internalType": "address",
          "name": "_to",
          "type": "address"
        },
        {
          "internalType": "uint256",
          "name": "_tokenId",
          "type": "uint256"
        },
        {
          "internalType": "bytes",
          "name": "_data",
          "type": "bytes"
        }
      ],
      "name": "safeTransferFrom",
      "outputs": [],
      "stateMutability": "nonpayable",
      "type": "function"
    },
    {
      "inputs": [
        {
          "internalType": "address",
          "name": "operator",
          "type": "address"
        },
        {
          "internalType": "bool",
          "name": "_approved",
          "type": "bool"
        }
      ],
      "name": "setApprovalForAll",
      "outputs": [],
      "stateMutability": "nonpayable",
      "type": "function"
    },
    {
      "inputs": [],
      "name": "symbol",
      "outputs": [
        {
          "internalType": "string",
          "name": "",
          "type": "string"
        }
      ],
      "stateMutability": "view",
      "type": "function",
      "constant": true
    },
    {
      "inputs": [],
      "name": "totalSupply",
      "outputs": [
        {
          "internalType": "uint256",
          "name": "",
          "type": "uint256"
        }
      ],
      "stateMutability": "view",
      "type": "function",
      "constant": true
    },
    {
      "inputs": [
        {
          "internalType": "address",
          "name": "_from",
          "type": "address"
        },
        {
          "internalType": "address",
          "name": "_to",
          "type": "address"
        },
        {
          "internalType": "uint256",
          "name": "_tokenId",
          "type": "uint256"
        }
      ],
      "name": "transferFrom",
      "outputs": [],
      "stateMutability": "nonpayable",
      "type": "function"
    },
    {
      "inputs": [],
      "name": "getDixelPrice",
      "outputs": [
        {
          "internalType": "uint256",
          "name": "",
          "type": "uint256"
        }
      ],
      "stateMutability": "view",
      "type": "function",
      "constant": true
    },
    {
      "inputs": [
        {
          "internalType": "string[][]",
          "name": "_addresses",
          "type": "string[][]"
        }
      ],
      "name": "mintDixel",
      "outputs": [],
      "stateMutability": "payable",
      "type": "function",
      "payable": true
    },
    {
      "inputs": [
        {
          "internalType": "string[][]",
          "name": "_addresses",
          "type": "string[][]"
        }
      ],
      "name": "mintFreeDixel",
      "outputs": [],
      "stateMutability": "nonpayable",
      "type": "function"
    },
    {
      "inputs": [
        {
          "internalType": "uint256",
          "name": "tokenId",
          "type": "uint256"
        }
      ],
      "name": "tokenURI",
      "outputs": [
        {
          "internalType": "string",
          "name": "",
          "type": "string"
        }
      ],
      "stateMutability": "view",
      "type": "function",
      "constant": true
    },
    {
      "inputs": [
        {
          "internalType": "uint256",
          "name": "_tokenId",
          "type": "uint256"
        }
      ],
      "name": "stakeDix",
      "outputs": [],
      "stateMutability": "nonpayable",
      "type": "function"
    },
    {
      "inputs": [
        {
          "internalType": "uint256",
          "name": "_tokenId",
          "type": "uint256"
        }
      ],
      "name": "unStakeDix",
      "outputs": [],
      "stateMutability": "nonpayable",
      "type": "function"
    },
    {
      "inputs": [
        {
          "internalType": "uint256",
          "name": "_tokenId",
          "type": "uint256"
        }
      ],
      "name": "levelUp",
      "outputs": [],
      "stateMutability": "nonpayable",
      "type": "function"
    },
    {
      "inputs": [
        {
          "internalType": "uint256",
          "name": "_tokenId",
          "type": "uint256"
        }
      ],
      "name": "withdrawProducedStarm",
      "outputs": [],
      "stateMutability": "nonpayable",
      "type": "function"
    },
    {
      "inputs": [],
      "name": "getDixels",
      "outputs": [
        {
          "components": [
            {
              "internalType": "uint256",
              "name": "level",
              "type": "uint256"
            },
            {
              "internalType": "string",
              "name": "URI",
              "type": "string"
            },
            {
              "internalType": "string[]",
              "name": "levelURI",
              "type": "string[]"
            },
            {
              "internalType": "uint256",
              "name": "rarity",
              "type": "uint256"
            },
            {
              "internalType": "uint256",
              "name": "stakeInitTime",
              "type": "uint256"
            },
            {
              "internalType": "bool",
              "name": "staked",
              "type": "bool"
            }
          ],
          "internalType": "struct Dixel[]",
          "name": "",
          "type": "tuple[]"
        }
      ],
      "stateMutability": "view",
      "type": "function",
      "constant": true
    },
    {
      "inputs": [],
      "name": "returnSupplies",
      "outputs": [
        {
          "components": [
            {
              "internalType": "uint256",
              "name": "totalSupply",
              "type": "uint256"
            },
            {
              "internalType": "uint256",
              "name": "commonSupply",
              "type": "uint256"
            },
            {
              "internalType": "uint256",
              "name": "uncommonSupply",
              "type": "uint256"
            },
            {
              "internalType": "uint256",
              "name": "rareSupply",
              "type": "uint256"
            },
            {
              "internalType": "uint256",
              "name": "legendarySupply",
              "type": "uint256"
            },
            {
              "internalType": "uint256",
              "name": "mintedSupply",
              "type": "uint256"
            },
            {
              "internalType": "uint256",
              "name": "lotterySupply",
              "type": "uint256"
            },
            {
              "internalType": "uint256",
              "name": "collectorsSupply",
              "type": "uint256"
            },
            {
              "internalType": "uint256",
              "name": "availableToGen",
              "type": "uint256"
            }
          ],
          "internalType": "struct LibDixel.SupplyStorage",
          "name": "supplies",
          "type": "tuple"
        }
      ],
      "stateMutability": "pure",
      "type": "function",
      "constant": true
    },
    {
      "inputs": [],
      "name": "contractBalance",
      "outputs": [
        {
          "internalType": "uint256",
          "name": "",
          "type": "uint256"
        }
      ],
      "stateMutability": "view",
      "type": "function",
      "constant": true
    }
  ],
  "bytecode": "0x608060405234801561001057600080fd5b50615eaa80620000216000396000f3fe6080604052600436106101405760003560e01c806370a08231116100b6578063c87b56dd1161006f578063c87b56dd14610446578063c8e18ef714610483578063dcaefe60146104ac578063e774c3b2146104d7578063e985e9c514610500578063fb79f50f1461053d57610140565b806370a08231146103385780638b7afe2e1461037557806395d89b41146103a0578063a22cb465146103cb578063abf54177146103f4578063b88d4fde1461041d57610140565b806315a3361f1161010857806315a3361f1461022a57806318160ddd1461025557806323b872dd1461028057806342842e0e146102a957806343c4af1b146102d25780636352211e146102fb57610140565b806306fdde0314610145578063081812fc14610170578063095ea7b3146101ad5780630ce90ec2146101d657806312d28d80146101ff575b600080fd5b34801561015157600080fd5b5061015a610559565b6040516101679190613d83565b60405180910390f35b34801561017c57600080fd5b5061019760048036038101906101929190613def565b6105fa565b6040516101a49190613e5d565b60405180910390f35b3480156101b957600080fd5b506101d460048036038101906101cf9190613ea4565b61068d565b005b3480156101e257600080fd5b506101fd60048036038101906101f89190613def565b61094f565b005b34801561020b57600080fd5b50610214610da6565b6040516102219190613ef3565b60405180910390f35b34801561023657600080fd5b5061023f610e94565b60405161024c9190614196565b60405180910390f35b34801561026157600080fd5b5061026a6110a6565b6040516102779190613ef3565b60405180910390f35b34801561028c57600080fd5b506102a760048036038101906102a291906141b8565b6110be565b005b3480156102b557600080fd5b506102d060048036038101906102cb91906141b8565b61144b565b005b3480156102de57600080fd5b506102f960048036038101906102f49190613def565b61146b565b005b34801561030757600080fd5b50610322600480360381019061031d9190613def565b61178a565b60405161032f9190613e5d565b60405180910390f35b34801561034457600080fd5b5061035f600480360381019061035a919061420b565b61184b565b60405161036c9190613ef3565b60405180910390f35b34801561038157600080fd5b5061038a611912565b6040516103979190613ef3565b60405180910390f35b3480156103ac57600080fd5b506103b561191a565b6040516103c29190613d83565b60405180910390f35b3480156103d757600080fd5b506103f260048036038101906103ed9190614264565b6119bb565b005b34801561040057600080fd5b5061041b60048036038101906104169190613def565b6119ca565b005b34801561042957600080fd5b50610444600480360381019061043f91906143d9565b611df3565b005b34801561045257600080fd5b5061046d60048036038101906104689190613def565b611e4e565b60405161047a9190613d83565b60405180910390f35b34801561048f57600080fd5b506104aa60048036038101906104a59190613def565b611faf565b005b3480156104b857600080fd5b506104c16121ba565b6040516104ce9190614513565b60405180910390f35b3480156104e357600080fd5b506104fe60048036038101906104f99190614797565b612235565b005b34801561050c57600080fd5b50610527600480360381019061052291906147e0565b612539565b604051610534919061482f565b60405180910390f35b61055760048036038101906105529190614797565b6125db565b005b60606000610565612846565b905080600101805461057690614879565b80601f01602080910402602001604051908101604052809291908181526020018280546105a290614879565b80156105ef5780601f106105c4576101008083540402835291602001916105ef565b820191906000526020600020905b8154815290600101906020018083116105d257829003601f168201915b505050505091505090565b600080610605612846565b905061061083612873565b61064f576040517f08c379a00000000000000000000000000000000000000000000000000000000081526004016106469061491d565b60405180910390fd5b80600501600084815260200190815260200160002060009054906101000a900473ffffffffffffffffffffffffffffffffffffffff16915050919050565b6000610697612846565b9050600073ffffffffffffffffffffffffffffffffffffffff168373ffffffffffffffffffffffffffffffffffffffff1614156106d357600080fd5b600073ffffffffffffffffffffffffffffffffffffffff1681600301600084815260200190815260200160002060009054906101000a900473ffffffffffffffffffffffffffffffffffffffff1673ffffffffffffffffffffffffffffffffffffffff16141561074257600080fd5b8273ffffffffffffffffffffffffffffffffffffffff1681600301600084815260200190815260200160002060009054906101000a900473ffffffffffffffffffffffffffffffffffffffff1673ffffffffffffffffffffffffffffffffffffffff1614156107b057600080fd5b80600301600083815260200190815260200160002060009054906101000a900473ffffffffffffffffffffffffffffffffffffffff1673ffffffffffffffffffffffffffffffffffffffff163373ffffffffffffffffffffffffffffffffffffffff1614806108e357506001151581600601600083600301600086815260200190815260200160002060009054906101000a900473ffffffffffffffffffffffffffffffffffffffff1673ffffffffffffffffffffffffffffffffffffffff1673ffffffffffffffffffffffffffffffffffffffff16815260200190815260200160002060003373ffffffffffffffffffffffffffffffffffffffff1673ffffffffffffffffffffffffffffffffffffffff16815260200190815260200160002060009054906101000a900460ff161515145b6108ec57600080fd5b8281600501600084815260200190815260200160002060006101000a81548173ffffffffffffffffffffffffffffffffffffffff021916908373ffffffffffffffffffffffffffffffffffffffff16021790555061094a83836128fe565b505050565b61095881612873565b61096157600080fd5b600061096b6129c6565b90506000610977612846565b905060008160000184815481106109915761099061493d565b5b90600052602060002090600602016040518060c0016040529081600082015481526020016001820180546109c490614879565b80601f01602080910402602001604051908101604052809291908181526020018280546109f090614879565b8015610a3d5780601f10610a1257610100808354040283529160200191610a3d565b820191906000526020600020905b815481529060010190602001808311610a2057829003601f168201915b5050505050815260200160028201805480602002602001604051908101604052809291908181526020016000905b82821015610b17578382906000526020600020018054610a8a90614879565b80601f0160208091040260200160405190810160405280929190818152602001828054610ab690614879565b8015610b035780601f10610ad857610100808354040283529160200191610b03565b820191906000526020600020905b815481529060010190602001808311610ae657829003601f168201915b505050505081526020019060010190610a6b565b50505050815260200160038201548152602001600482015481526020016005820160009054906101000a900460ff16151515158152505090506000816000015190506005836000018681548110610b7157610b7061493d565b5b90600052602060002090600602016000015410610bc3576040517f08c379a0000000000000000000000000000000000000000000000000000000008152600401610bba906149b8565b60405180910390fd5b600482600001511415610c335760c884600701541115610c18576040517f08c379a0000000000000000000000000000000000000000000000000000000008152600401610c0f90614a24565b60405180910390fd5b836007016000815480929190610c2d90614a73565b91905055505b610c4e336103e88460000151610c499190614abc565b6129f3565b816040015160018360000151610c649190614b16565b81518110610c7557610c7461493d565b5b60200260200101518260200181905250816000018051809190610c9790614a73565b8152505081836000018681548110610cb257610cb161493d565b5b9060005260206000209060060201600082015181600001556020820151816001019080519060200190610ce6929190613b37565b506040820151816002019080519060200190610d03929190613bbd565b50606082015181600301556080820151816004015560a08201518160050160006101000a81548160ff0219169083151502179055509050507f316f492708edb192ed7be53ed328501fe25892eccd577fe461e594a0b21ba54585828460000151866000018981548110610d7957610d7861493d565b5b9060005260206000209060060201604051610d979493929190614dca565b60405180910390a15050505050565b600080610db16129c6565b9050600081600501549050610320811115610e01576040517f08c379a0000000000000000000000000000000000000000000000000000000008152600401610df890614e62565b60405180910390fd5b61073a8110610e1c5767016345785d8a000092505050610e91565b6106a48110610e375767011c37937e08000092505050610e91565b61047e8110610e515766d529ae9e86000092505050610e91565b61028a8110610e6b5766b1a2bc2ec5000092505050610e91565b60fa8110610e8457666a94d74f43000092505050610e91565b662386f26fc10000925050505b90565b60606000610ea0612846565b905080600001805480602002602001604051908101604052809291908181526020016000905b8282101561109c57838290600052602060002090600602016040518060c001604052908160008201548152602001600182018054610f0390614879565b80601f0160208091040260200160405190810160405280929190818152602001828054610f2f90614879565b8015610f7c5780601f10610f5157610100808354040283529160200191610f7c565b820191906000526020600020905b815481529060010190602001808311610f5f57829003601f168201915b5050505050815260200160028201805480602002602001604051908101604052809291908181526020016000905b82821015611056578382906000526020600020018054610fc990614879565b80601f0160208091040260200160405190810160405280929190818152602001828054610ff590614879565b80156110425780601f1061101757610100808354040283529160200191611042565b820191906000526020600020905b81548152906001019060200180831161102557829003601f168201915b505050505081526020019060010190610faa565b50505050815260200160038201548152602001600482015481526020016005820160009054906101000a900460ff16151515158152505081526020019060010190610ec6565b5050505091505090565b6000806110b16129c6565b9050806000015491505090565b60006110c8612846565b9050600073ffffffffffffffffffffffffffffffffffffffff168473ffffffffffffffffffffffffffffffffffffffff16141580156111345750600073ffffffffffffffffffffffffffffffffffffffff168373ffffffffffffffffffffffffffffffffffffffff1614155b61113d57600080fd5b3373ffffffffffffffffffffffffffffffffffffffff1681600301600084815260200190815260200160002060009054906101000a900473ffffffffffffffffffffffffffffffffffffffff1673ffffffffffffffffffffffffffffffffffffffff16148061120c57503373ffffffffffffffffffffffffffffffffffffffff1681600501600084815260200190815260200160002060009054906101000a900473ffffffffffffffffffffffffffffffffffffffff1673ffffffffffffffffffffffffffffffffffffffff16145b806112db57506001151581600601600083600501600086815260200190815260200160002060009054906101000a900473ffffffffffffffffffffffffffffffffffffffff1673ffffffffffffffffffffffffffffffffffffffff1673ffffffffffffffffffffffffffffffffffffffff16815260200190815260200160002060008673ffffffffffffffffffffffffffffffffffffffff1673ffffffffffffffffffffffffffffffffffffffff16815260200190815260200160002060009054906101000a900460ff161515145b6112e457600080fd5b60018160040160008673ffffffffffffffffffffffffffffffffffffffff1673ffffffffffffffffffffffffffffffffffffffff16815260200190815260200160002060008282546113369190614e82565b9250508190555060018160040160008573ffffffffffffffffffffffffffffffffffffffff1673ffffffffffffffffffffffffffffffffffffffff168152602001908152602001600020600082825461138f9190614b16565b925050819055508281600301600084815260200190815260200160002060006101000a81548173ffffffffffffffffffffffffffffffffffffffff021916908373ffffffffffffffffffffffffffffffffffffffff160217905550818373ffffffffffffffffffffffffffffffffffffffff168573ffffffffffffffffffffffffffffffffffffffff167fddf252ad1be2c89b69c2b068fc378daa952ba7f163c4a11628f55a4df523b3ef60405160405180910390a450505050565b61146683838360405180602001604052806000815250611df3565b505050565b6000611475612846565b9050600081600001838154811061148f5761148e61493d565b5b90600052602060002090600602016040518060c0016040529081600082015481526020016001820180546114c290614879565b80601f01602080910402602001604051908101604052809291908181526020018280546114ee90614879565b801561153b5780601f106115105761010080835404028352916020019161153b565b820191906000526020600020905b81548152906001019060200180831161151e57829003601f168201915b5050505050815260200160028201805480602002602001604051908101604052809291908181526020016000905b8282101561161557838290600052602060002001805461158890614879565b80601f01602080910402602001604051908101604052809291908181526020018280546115b490614879565b80156116015780601f106115d657610100808354040283529160200191611601565b820191906000526020600020905b8154815290600101906020018083116115e457829003601f168201915b505050505081526020019060010190611569565b50505050815260200160038201548152602001600482015481526020016005820160009054906101000a900460ff161515151581525050905060004290506001151583600001858154811061166d5761166c61493d565b5b906000526020600020906006020160050160009054906101000a900460ff161515146116ce576040517f08c379a00000000000000000000000000000000000000000000000000000000081526004016116c590614f02565b60405180910390fd5b8160800151811015611715576040517f08c379a000000000000000000000000000000000000000000000000000000000815260040161170c90614f48565b60405180910390fd5b60008260800151826117279190614e82565b9050600083606001518460000151836117409190614abc565b61174a9190614abc565b90506117563382612bc7565b8285600001878154811061176d5761176c61493d565b5b906000526020600020906006020160040181905550505050505050565b600080611795612846565b9050600081600301600085815260200190815260200160002060009054906101000a900473ffffffffffffffffffffffffffffffffffffffff169050600073ffffffffffffffffffffffffffffffffffffffff168173ffffffffffffffffffffffffffffffffffffffff161415611841576040517f08c379a000000000000000000000000000000000000000000000000000000000815260040161183890614fda565b60405180910390fd5b8092505050919050565b600080611856612846565b9050600073ffffffffffffffffffffffffffffffffffffffff168373ffffffffffffffffffffffffffffffffffffffff1614156118c8576040517f08c379a00000000000000000000000000000000000000000000000000000000081526004016118bf90615046565b60405180910390fd5b8060040160008473ffffffffffffffffffffffffffffffffffffffff1673ffffffffffffffffffffffffffffffffffffffff16815260200190815260200160002054915050919050565b600047905090565b60606000611926612846565b905080600201805461193790614879565b80601f016020809104026020016040519081016040528092919081815260200182805461196390614879565b80156119b05780601f10611985576101008083540402835291602001916119b0565b820191906000526020600020905b81548152906001019060200180831161199357829003601f168201915b505050505091505090565b6119c6338383612d21565b5050565b60006119d4612846565b90506119df82612873565b6119e857600080fd5b60011515816000018381548110611a0257611a0161493d565b5b906000526020600020906006020160050160009054906101000a900460ff16151514611a63576040517f08c379a0000000000000000000000000000000000000000000000000000000008152600401611a5a90614f02565b60405180910390fd5b80600301600083815260200190815260200160002060009054906101000a900473ffffffffffffffffffffffffffffffffffffffff1673ffffffffffffffffffffffffffffffffffffffff163373ffffffffffffffffffffffffffffffffffffffff1614611b06576040517f08c379a0000000000000000000000000000000000000000000000000000000008152600401611afd906150b2565b60405180910390fd5b6000816000018381548110611b1e57611b1d61493d565b5b90600052602060002090600602016040518060c001604052908160008201548152602001600182018054611b5190614879565b80601f0160208091040260200160405190810160405280929190818152602001828054611b7d90614879565b8015611bca5780601f10611b9f57610100808354040283529160200191611bca565b820191906000526020600020905b815481529060010190602001808311611bad57829003601f168201915b5050505050815260200160028201805480602002602001604051908101604052809291908181526020016000905b82821015611ca4578382906000526020600020018054611c1790614879565b80601f0160208091040260200160405190810160405280929190818152602001828054611c4390614879565b8015611c905780601f10611c6557610100808354040283529160200191611c90565b820191906000526020600020905b815481529060010190602001808311611c7357829003601f168201915b505050505081526020019060010190611bf8565b50505050815260200160038201548152602001600482015481526020016005820160009054906101000a900460ff16151515158152505090506000826000018481548110611cf557611cf461493d565b5b906000526020600020906006020160050160006101000a81548160ff0219169083151502179055506000816080015142611d2f9190614e82565b905060008260600151836000015183611d489190614abc565b611d529190614abc565b90506000846000018681548110611d6c57611d6b61493d565b5b906000526020600020906006020160040181905550611d8b3382612bc7565b7f5bb69cf91a5fe5042a1dddb4665b7cdc9f36bfa7355be3174a35dac89df43a6c85600083876000018981548110611dc657611dc561493d565b5b9060005260206000209060060201604051611de494939291906150d2565b60405180910390a15050505050565b611dfd3383612e9d565b611e3c576040517f08c379a0000000000000000000000000000000000000000000000000000000008152600401611e3390615190565b60405180910390fd5b611e4884848484612f7b565b50505050565b60606000611e5a612846565b9050611e6583612873565b611ea4576040517f08c379a0000000000000000000000000000000000000000000000000000000008152600401611e9b90615222565b60405180910390fd5b6000816000018481548110611ebc57611ebb61493d565b5b90600052602060002090600602016001018054611ed890614879565b80601f0160208091040260200160405190810160405280929190818152602001828054611f0490614879565b8015611f515780601f10611f2657610100808354040283529160200191611f51565b820191906000526020600020905b815481529060010190602001808311611f3457829003601f168201915b505050505090506000611f62612fd7565b90506000815111611f825760405180602001604052806000815250611fa5565b8082604051602001611f9592919061527e565b6040516020818303038152906040525b9350505050919050565b6000611fb9612846565b9050611fc482612873565b611fcd57600080fd5b60001515816000018381548110611fe757611fe661493d565b5b906000526020600020906006020160050160009054906101000a900460ff16151514612048576040517f08c379a000000000000000000000000000000000000000000000000000000000815260040161203f906152ee565b60405180910390fd5b80600301600083815260200190815260200160002060009054906101000a900473ffffffffffffffffffffffffffffffffffffffff1673ffffffffffffffffffffffffffffffffffffffff163373ffffffffffffffffffffffffffffffffffffffff16146120eb576040517f08c379a00000000000000000000000000000000000000000000000000000000081526004016120e2906150b2565b60405180910390fd5b60018160000183815481106121035761210261493d565b5b906000526020600020906006020160050160006101000a81548160ff021916908315150217905550428160000183815481106121425761214161493d565b5b9060005260206000209060060201600401819055507f0da3e9e731707ba42937bc4b0f86f285e0f0e197a033df78be0dc152b1e2509d8260018360000185815481106121915761219061493d565b5b90600052602060002090600602016040516121ae9392919061530e565b60405180910390a15050565b6121c2613c1d565b6121ca6129c6565b604051806101200160405290816000820154815260200160018201548152602001600282015481526020016003820154815260200160048201548152602001600582015481526020016006820154815260200160078201548152602001600882015481525050905090565b600061223f6129c6565b9050600061224b613014565b90506000612257612846565b905060018260050160003373ffffffffffffffffffffffffffffffffffffffff1673ffffffffffffffffffffffffffffffffffffffff1681526020019081526020016000205410156122de576040517f08c379a00000000000000000000000000000000000000000000000000000000081526004016122d590615398565b60405180910390fd5b60c8836006015410612325576040517f08c379a000000000000000000000000000000000000000000000000000000000815260040161231c90615404565b60405180910390fd5b60018260050160003373ffffffffffffffffffffffffffffffffffffffff1673ffffffffffffffffffffffffffffffffffffffff16815260200190815260200160002060008282546123779190614e82565b925050819055506000612388613041565b90506123938161317a565b600061239f82876132e9565b905060006040518060c0016040528060018152602001836000815181106123c9576123c861493d565b5b602002602001015181526020018381526020018481526020016000815260200160001515815250905083600001819080600181540180825580915050600190039060005260206000209060060201600090919091909150600082015181600001556020820151816001019080519060200190612446929190613b37565b506040820151816002019080519060200190612463929190613bbd565b50606082015181600301556080820151816004015560a08201518160050160006101000a81548160ff02191690831515021790555050506124b733600186600001805490506124b29190614e82565b6133da565b8560060160008154809291906124cc90614a73565b91905055508560000160008154809291906124e690614a73565b91905055507f33f55e39b5b394b47eacc42fbb4fc9c0e327107d2dd97eb3a9fac85d3ab35f0233856000018054905060008460405161252894939291906154f9565b60405180910390a150505050505050565b600080612544612846565b90508060060160008573ffffffffffffffffffffffffffffffffffffffff1673ffffffffffffffffffffffffffffffffffffffff16815260200190815260200160002060008473ffffffffffffffffffffffffffffffffffffffff1673ffffffffffffffffffffffffffffffffffffffff16815260200190815260200160002060009054906101000a900460ff1691505092915050565b60006125e56129c6565b905060006125f1612846565b905061032082600501541061263b576040517f08c379a000000000000000000000000000000000000000000000000000000000815260040161263290615591565b60405180910390fd5b34612644610da6565b14612684576040517f08c379a000000000000000000000000000000000000000000000000000000000815260040161267b906155fd565b60405180910390fd5b600061268e613041565b90506126998161317a565b60006126a582866132e9565b905060006040518060c0016040528060018152602001836000815181106126cf576126ce61493d565b5b60200260200101518152602001838152602001848152602001600081526020016000151581525090508360000181908060018154018082558091505060019003906000526020600020906006020160009091909190915060008201518160000155602082015181600101908051906020019061274c929190613b37565b506040820151816002019080519060200190612769929190613bbd565b50606082015181600301556080820151816004015560a08201518160050160006101000a81548160ff02191690831515021790555050506127bd33600186600001805490506127b89190614e82565b6133da565b6127c6346135ad565b8460050160008154809291906127db90614a73565b91905055508460000160008154809291906127f590614a73565b91905055507f33f55e39b5b394b47eacc42fbb4fc9c0e327107d2dd97eb3a9fac85d3ab35f023385600001805490503484604051612836949392919061561d565b60405180910390a1505050505050565b6000807fa7dd434add67a973f5647cf03b4c2f6cf4bf5c1fc7f2ac8b3891ebb3133b346690508091505090565b60008061287e612846565b9050600073ffffffffffffffffffffffffffffffffffffffff1681600301600085815260200190815260200160002060009054906101000a900473ffffffffffffffffffffffffffffffffffffffff1673ffffffffffffffffffffffffffffffffffffffff16146128f35760019150506128f9565b60009150505b919050565b6000612908612846565b90508281600501600084815260200190815260200160002060006101000a81548173ffffffffffffffffffffffffffffffffffffffff021916908373ffffffffffffffffffffffffffffffffffffffff160217905550818373ffffffffffffffffffffffffffffffffffffffff1661297f8461178a565b73ffffffffffffffffffffffffffffffffffffffff167f8c5be1e5ebec7d5bd14f71427d1e84f3dd0314c0f7b2291e5b200ac8c7c3b92560405160405180910390a4505050565b6000807f2a0147cf5b9ff63908d056e474ebe771e5673907c489029e386f7a5318ddf50190508091505090565b60006129fd61367e565b9050600073ffffffffffffffffffffffffffffffffffffffff168373ffffffffffffffffffffffffffffffffffffffff161415612a6f576040517f08c379a0000000000000000000000000000000000000000000000000000000008152600401612a66906156db565b60405180910390fd5b60008160010160008573ffffffffffffffffffffffffffffffffffffffff1673ffffffffffffffffffffffffffffffffffffffff16815260200190815260200160002054905082811015612af8576040517f08c379a0000000000000000000000000000000000000000000000000000000008152600401612aef9061576d565b60405180910390fd5b8281038260010160008673ffffffffffffffffffffffffffffffffffffffff1673ffffffffffffffffffffffffffffffffffffffff1681526020019081526020016000208190555082826002016000828254612b549190614e82565b92505081905550600073ffffffffffffffffffffffffffffffffffffffff168473ffffffffffffffffffffffffffffffffffffffff167fddf252ad1be2c89b69c2b068fc378daa952ba7f163c4a11628f55a4df523b3ef85604051612bb99190613ef3565b60405180910390a350505050565b6000612bd161367e565b9050600073ffffffffffffffffffffffffffffffffffffffff168373ffffffffffffffffffffffffffffffffffffffff161415612c43576040517f08c379a0000000000000000000000000000000000000000000000000000000008152600401612c3a906157d9565b60405180910390fd5b81816002016000828254612c579190614b16565b92505081905550818160010160008573ffffffffffffffffffffffffffffffffffffffff1673ffffffffffffffffffffffffffffffffffffffff1681526020019081526020016000206000828254612caf9190614b16565b925050819055508273ffffffffffffffffffffffffffffffffffffffff16600073ffffffffffffffffffffffffffffffffffffffff167fddf252ad1be2c89b69c2b068fc378daa952ba7f163c4a11628f55a4df523b3ef84604051612d149190613ef3565b60405180910390a3505050565b8173ffffffffffffffffffffffffffffffffffffffff168373ffffffffffffffffffffffffffffffffffffffff161415612d90576040517f08c379a0000000000000000000000000000000000000000000000000000000008152600401612d8790615845565b60405180910390fd5b6000612d9a612846565b9050818160060160008673ffffffffffffffffffffffffffffffffffffffff1673ffffffffffffffffffffffffffffffffffffffff16815260200190815260200160002060008573ffffffffffffffffffffffffffffffffffffffff1673ffffffffffffffffffffffffffffffffffffffff16815260200190815260200160002060006101000a81548160ff0219169083151502179055508273ffffffffffffffffffffffffffffffffffffffff168473ffffffffffffffffffffffffffffffffffffffff167f17307eab39ab6107e8899845ad3d59bd9653f200f220920489ca2b5937696c3184604051612e8f919061482f565b60405180910390a350505050565b6000612ea882612873565b612ee7576040517f08c379a0000000000000000000000000000000000000000000000000000000008152600401612ede906158d7565b60405180910390fd5b6000612ef28361178a565b90508073ffffffffffffffffffffffffffffffffffffffff168473ffffffffffffffffffffffffffffffffffffffff161480612f6157508373ffffffffffffffffffffffffffffffffffffffff16612f49846105fa565b73ffffffffffffffffffffffffffffffffffffffff16145b80612f725750612f718185612539565b5b91505092915050565b612f868484846136ab565b612f9284848484613925565b612fd1576040517f08c379a0000000000000000000000000000000000000000000000000000000008152600401612fc890615969565b60405180910390fd5b50505050565b60606040518060400160405280601581526020017f68747470733a2f2f697066732e696f2f697066732f0000000000000000000000815250905090565b6000807f6bc844e8f78d8de9f3b120d94fd2efae4c9d3b45b2ddde509e79ee4515f298cc90508091505090565b60008061304c6129c6565b90506000816008015411613095576040517f08c379a000000000000000000000000000000000000000000000000000000000815260040161308c90614a24565b60405180910390fd5b6000600182600801546130a89190614b16565b6130e66040518060400160405280600681526020017f7261726974790000000000000000000000000000000000000000000000000000815250613aa6565b6130f091906159b8565b90506000811180156131055750816001015481105b156131135760019250613175565b6000811180156131265750816002015481105b156131345760029250613174565b6000811180156131475750816003015481105b156131555760039250613173565b6000811180156131685750816004015481105b1561317257600492505b5b5b5b505090565b60006131846129c6565b905060018214156131fc578060010160008154809291906131a4906159e9565b91905055508060020160008154809291906131be906159e9565b91905055508060030160008154809291906131d8906159e9565b91905055508060040160008154809291906131f2906159e9565b91905055506132c1565b60028214156132585780600201600081548092919061321a906159e9565b9190505550806003016000815480929190613234906159e9565b919050555080600401600081548092919061324e906159e9565b91905055506132c0565b600382141561329a57806003016000815480929190613276906159e9565b9190505550806004016000815480929190613290906159e9565b91905055506132bf565b60048214156132be578060040160008154809291906132b8906159e9565b91905055505b5b5b5b600181600001546132d29190614b16565b50600181600801546132e49190614e82565b505050565b60606005831061332e576040517f08c379a000000000000000000000000000000000000000000000000000000000815260040161332590615a5f565b60405180910390fd5b60606001841415613358578260008151811061334d5761334c61493d565b5b602002602001015190505b600284141561338057826001815181106133755761337461493d565b5b602002602001015190505b60038414156133a8578260028151811061339d5761339c61493d565b5b602002602001015190505b60048414156133d057826003815181106133c5576133c461493d565b5b602002602001015190505b8091505092915050565b60006133e4612846565b9050600073ffffffffffffffffffffffffffffffffffffffff168373ffffffffffffffffffffffffffffffffffffffff161415613456576040517f08c379a000000000000000000000000000000000000000000000000000000000815260040161344d90615acb565b60405180910390fd5b61345f82612873565b1561349f576040517f08c379a000000000000000000000000000000000000000000000000000000000815260040161349690615b37565b60405180910390fd5b60018160040160008573ffffffffffffffffffffffffffffffffffffffff1673ffffffffffffffffffffffffffffffffffffffff16815260200190815260200160002060008282546134f19190614b16565b925050819055508281600301600084815260200190815260200160002060006101000a81548173ffffffffffffffffffffffffffffffffffffffff021916908373ffffffffffffffffffffffffffffffffffffffff160217905550818373ffffffffffffffffffffffffffffffffffffffff16600073ffffffffffffffffffffffffffffffffffffffff167fddf252ad1be2c89b69c2b068fc378daa952ba7f163c4a11628f55a4df523b3ef60405160405180910390a4505050565b60006135b7613add565b905060006002836135c89190615b57565b905060005b600281101561367857818360000160008560010184600281106135f3576135f261493d565b5b0160009054906101000a900473ffffffffffffffffffffffffffffffffffffffff1673ffffffffffffffffffffffffffffffffffffffff1673ffffffffffffffffffffffffffffffffffffffff168152602001908152602001600020600082825461365e9190614b16565b92505081905550808061367090614a73565b9150506135cd565b50505050565b6000807f1b091a9fb79d8a0a791074366f5ea0051fa79aed1deb4e83519829de6fb92bb190508091505090565b60006136b5612846565b90508373ffffffffffffffffffffffffffffffffffffffff166136d78361178a565b73ffffffffffffffffffffffffffffffffffffffff161461372d576040517f08c379a000000000000000000000000000000000000000000000000000000000815260040161372490615bfa565b60405180910390fd5b600073ffffffffffffffffffffffffffffffffffffffff168373ffffffffffffffffffffffffffffffffffffffff16141561379d576040517f08c379a000000000000000000000000000000000000000000000000000000000815260040161379490615c8c565b60405180910390fd5b6137a8848484613b0a565b6137b36000836128fe565b60018160040160008673ffffffffffffffffffffffffffffffffffffffff1673ffffffffffffffffffffffffffffffffffffffff16815260200190815260200160002060008282546138059190614e82565b9250508190555060018160040160008573ffffffffffffffffffffffffffffffffffffffff1673ffffffffffffffffffffffffffffffffffffffff168152602001908152602001600020600082825461385e9190614b16565b925050819055508281600301600084815260200190815260200160002060006101000a81548173ffffffffffffffffffffffffffffffffffffffff021916908373ffffffffffffffffffffffffffffffffffffffff160217905550818373ffffffffffffffffffffffffffffffffffffffff168573ffffffffffffffffffffffffffffffffffffffff167fddf252ad1be2c89b69c2b068fc378daa952ba7f163c4a11628f55a4df523b3ef60405160405180910390a461391f848484613b0f565b50505050565b60006139468473ffffffffffffffffffffffffffffffffffffffff16613b14565b15613a99578373ffffffffffffffffffffffffffffffffffffffff1663150b7a02338786866040518563ffffffff1660e01b815260040161398a9493929190615d01565b6020604051808303816000875af19250505080156139c657506040513d601f19601f820116820180604052508101906139c39190615da5565b60015b613a49573d80600081146139f6576040519150601f19603f3d011682016040523d82523d6000602084013e6139fb565b606091505b50600081511415613a41576040517f08c379a0000000000000000000000000000000000000000000000000000000008152600401613a3890615969565b60405180910390fd5b805181602001fd5b63150b7a0260e01b7bffffffffffffffffffffffffffffffffffffffffffffffffffffffff1916817bffffffffffffffffffffffffffffffffffffffffffffffffffffffff191614915050613a9e565b600190505b949350505050565b6000423383604051602001613abd93929190615e3b565b6040516020818303038152906040528051906020012060001c9050919050565b6000807faaecf6edcf861fc17fc9c5b0a28686a3e50a6d0beadccbac12a685bd4ed4771790508091505090565b505050565b505050565b6000808273ffffffffffffffffffffffffffffffffffffffff163b119050919050565b828054613b4390614879565b90600052602060002090601f016020900481019282613b655760008555613bac565b82601f10613b7e57805160ff1916838001178555613bac565b82800160010185558215613bac579182015b82811115613bab578251825591602001919060010190613b90565b5b509050613bb99190613c69565b5090565b828054828255906000526020600020908101928215613c0c579160200282015b82811115613c0b578251829080519060200190613bfb929190613b37565b5091602001919060010190613bdd565b5b509050613c199190613c86565b5090565b6040518061012001604052806000815260200160008152602001600081526020016000815260200160008152602001600081526020016000815260200160008152602001600081525090565b5b80821115613c82576000816000905550600101613c6a565b5090565b5b80821115613ca65760008181613c9d9190613caa565b50600101613c87565b5090565b508054613cb690614879565b6000825580601f10613cc85750613ce7565b601f016020900490600052602060002090810190613ce69190613c69565b5b50565b600081519050919050565b600082825260208201905092915050565b60005b83811015613d24578082015181840152602081019050613d09565b83811115613d33576000848401525b50505050565b6000601f19601f8301169050919050565b6000613d5582613cea565b613d5f8185613cf5565b9350613d6f818560208601613d06565b613d7881613d39565b840191505092915050565b60006020820190508181036000830152613d9d8184613d4a565b905092915050565b6000604051905090565b600080fd5b600080fd5b6000819050919050565b613dcc81613db9565b8114613dd757600080fd5b50565b600081359050613de981613dc3565b92915050565b600060208284031215613e0557613e04613daf565b5b6000613e1384828501613dda565b91505092915050565b600073ffffffffffffffffffffffffffffffffffffffff82169050919050565b6000613e4782613e1c565b9050919050565b613e5781613e3c565b82525050565b6000602082019050613e726000830184613e4e565b92915050565b613e8181613e3c565b8114613e8c57600080fd5b50565b600081359050613e9e81613e78565b92915050565b60008060408385031215613ebb57613eba613daf565b5b6000613ec985828601613e8f565b9250506020613eda85828601613dda565b9150509250929050565b613eed81613db9565b82525050565b6000602082019050613f086000830184613ee4565b92915050565b600081519050919050565b600082825260208201905092915050565b6000819050602082019050919050565b613f4381613db9565b82525050565b600082825260208201905092915050565b6000613f6582613cea565b613f6f8185613f49565b9350613f7f818560208601613d06565b613f8881613d39565b840191505092915050565b600081519050919050565b600082825260208201905092915050565b6000819050602082019050919050565b6000613fcb8383613f5a565b905092915050565b6000602082019050919050565b6000613feb82613f93565b613ff58185613f9e565b93508360208202850161400785613faf565b8060005b8581101561404357848403895281516140248582613fbf565b945061402f83613fd3565b925060208a0199505060018101905061400b565b50829750879550505050505092915050565b60008115159050919050565b61406a81614055565b82525050565b600060c0830160008301516140886000860182613f3a565b50602083015184820360208601526140a08282613f5a565b915050604083015184820360408601526140ba8282613fe0565b91505060608301516140cf6060860182613f3a565b5060808301516140e26080860182613f3a565b5060a08301516140f560a0860182614061565b508091505092915050565b600061410c8383614070565b905092915050565b6000602082019050919050565b600061412c82613f0e565b6141368185613f19565b93508360208202850161414885613f2a565b8060005b8581101561418457848403895281516141658582614100565b945061417083614114565b925060208a0199505060018101905061414c565b50829750879550505050505092915050565b600060208201905081810360008301526141b08184614121565b905092915050565b6000806000606084860312156141d1576141d0613daf565b5b60006141df86828701613e8f565b93505060206141f086828701613e8f565b925050604061420186828701613dda565b9150509250925092565b60006020828403121561422157614220613daf565b5b600061422f84828501613e8f565b91505092915050565b61424181614055565b811461424c57600080fd5b50565b60008135905061425e81614238565b92915050565b6000806040838503121561427b5761427a613daf565b5b600061428985828601613e8f565b925050602061429a8582860161424f565b9150509250929050565b600080fd5b600080fd5b7f4e487b7100000000000000000000000000000000000000000000000000000000600052604160045260246000fd5b6142e682613d39565b810181811067ffffffffffffffff82111715614305576143046142ae565b5b80604052505050565b6000614318613da5565b905061432482826142dd565b919050565b600067ffffffffffffffff821115614344576143436142ae565b5b61434d82613d39565b9050602081019050919050565b82818337600083830152505050565b600061437c61437784614329565b61430e565b905082815260208101848484011115614398576143976142a9565b5b6143a384828561435a565b509392505050565b600082601f8301126143c0576143bf6142a4565b5b81356143d0848260208601614369565b91505092915050565b600080600080608085870312156143f3576143f2613daf565b5b600061440187828801613e8f565b945050602061441287828801613e8f565b935050604061442387828801613dda565b925050606085013567ffffffffffffffff81111561444457614443613db4565b5b614450878288016143ab565b91505092959194509250565b610120820160008201516144736000850182613f3a565b5060208201516144866020850182613f3a565b5060408201516144996040850182613f3a565b5060608201516144ac6060850182613f3a565b5060808201516144bf6080850182613f3a565b5060a08201516144d260a0850182613f3a565b5060c08201516144e560c0850182613f3a565b5060e08201516144f860e0850182613f3a565b5061010082015161450d610100850182613f3a565b50505050565b600061012082019050614529600083018461445c565b92915050565b600067ffffffffffffffff82111561454a576145496142ae565b5b602082029050602081019050919050565b600080fd5b600067ffffffffffffffff82111561457b5761457a6142ae565b5b602082029050602081019050919050565b600067ffffffffffffffff8211156145a7576145a66142ae565b5b6145b082613d39565b9050602081019050919050565b60006145d06145cb8461458c565b61430e565b9050828152602081018484840111156145ec576145eb6142a9565b5b6145f784828561435a565b509392505050565b600082601f830112614614576146136142a4565b5b81356146248482602086016145bd565b91505092915050565b600061464061463b84614560565b61430e565b905080838252602082019050602084028301858111156146635761466261455b565b5b835b818110156146aa57803567ffffffffffffffff811115614688576146876142a4565b5b80860161469589826145ff565b85526020850194505050602081019050614665565b5050509392505050565b600082601f8301126146c9576146c86142a4565b5b81356146d984826020860161462d565b91505092915050565b60006146f56146f08461452f565b61430e565b905080838252602082019050602084028301858111156147185761471761455b565b5b835b8181101561475f57803567ffffffffffffffff81111561473d5761473c6142a4565b5b80860161474a89826146b4565b8552602085019450505060208101905061471a565b5050509392505050565b600082601f83011261477e5761477d6142a4565b5b813561478e8482602086016146e2565b91505092915050565b6000602082840312156147ad576147ac613daf565b5b600082013567ffffffffffffffff8111156147cb576147ca613db4565b5b6147d784828501614769565b91505092915050565b600080604083850312156147f7576147f6613daf565b5b600061480585828601613e8f565b925050602061481685828601613e8f565b9150509250929050565b61482981614055565b82525050565b60006020820190506148446000830184614820565b92915050565b7f4e487b7100000000000000000000000000000000000000000000000000000000600052602260045260246000fd5b6000600282049050600182168061489157607f821691505b602082108114156148a5576148a461484a565b5b50919050565b7f4552433732313a20617070726f76656420717565727920666f72206e6f6e657860008201527f697374656e7420746f6b656e0000000000000000000000000000000000000000602082015250565b6000614907602c83613cf5565b9150614912826148ab565b604082019050919050565b60006020820190508181036000830152614936816148fa565b9050919050565b7f4e487b7100000000000000000000000000000000000000000000000000000000600052603260045260246000fd5b7f6d6178206c766c00000000000000000000000000000000000000000000000000600082015250565b60006149a2600783613cf5565b91506149ad8261496c565b602082019050919050565b600060208201905081810360008301526149d181614995565b9050919050565b7f6c696d6974207265616368656400000000000000000000000000000000000000600082015250565b6000614a0e600d83613cf5565b9150614a19826149d8565b602082019050919050565b60006020820190508181036000830152614a3d81614a01565b9050919050565b7f4e487b7100000000000000000000000000000000000000000000000000000000600052601160045260246000fd5b6000614a7e82613db9565b91507fffffffffffffffffffffffffffffffffffffffffffffffffffffffffffffffff821415614ab157614ab0614a44565b5b600182019050919050565b6000614ac782613db9565b9150614ad283613db9565b9250817fffffffffffffffffffffffffffffffffffffffffffffffffffffffffffffffff0483118215151615614b0b57614b0a614a44565b5b828202905092915050565b6000614b2182613db9565b9150614b2c83613db9565b9250827fffffffffffffffffffffffffffffffffffffffffffffffffffffffffffffffff03821115614b6157614b60614a44565b5b828201905092915050565b60008160001c9050919050565b6000819050919050565b6000614b96614b9183614b6c565b614b79565b9050919050565b60008190508160005260206000209050919050565b60008154614bbf81614879565b614bc98186613f49565b94506001821660008114614be45760018114614bf657614c29565b60ff1983168652602086019350614c29565b614bff85614b9d565b60005b83811015614c2157815481890152600182019150602081019050614c02565b808801955050505b50505092915050565b600081549050919050565b60008190508160005260206000209050919050565b6000614c5e8383614bb2565b905092915050565b6000600182019050919050565b6000614c7e82614c32565b614c888185613f9e565b935083602082028501614c9a85614c3d565b8060005b85811015614cd557848403895281614cb68582614c52565b9450614cc183614c66565b925060208a01995050600181019050614c9e565b50829750879550505050505092915050565b600060ff82169050919050565b6000614d07614d0283614b6c565b614ce7565b9050919050565b600060c083016000808401549050614d2581614b83565b614d326000870182613f3a565b50600184018583036020870152614d498382614bb2565b925050600284018583036040870152614d628382614c73565b92505060038401549050614d7581614b83565b614d826060870182613f3a565b5060048401549050614d9381614b83565b614da06080870182613f3a565b5060058401549050614db181614cf4565b614dbe60a0870182614061565b50819250505092915050565b6000608082019050614ddf6000830187613ee4565b614dec6020830186613ee4565b614df96040830185613ee4565b8181036060830152614e0b8184614d0e565b905095945050505050565b7f4d696e7420656e64656400000000000000000000000000000000000000000000600082015250565b6000614e4c600a83613cf5565b9150614e5782614e16565b602082019050919050565b60006020820190508181036000830152614e7b81614e3f565b9050919050565b6000614e8d82613db9565b9150614e9883613db9565b925082821015614eab57614eaa614a44565b5b828203905092915050565b7f6e6f74207374616b656400000000000000000000000000000000000000000000600082015250565b6000614eec600a83613cf5565b9150614ef782614eb6565b602082019050919050565b60006020820190508181036000830152614f1b81614edf565b9050919050565b50565b6000614f32600083613cf5565b9150614f3d82614f22565b600082019050919050565b60006020820190508181036000830152614f6181614f25565b9050919050565b7f4552433732313a206f776e657220717565727920666f72206e6f6e657869737460008201527f656e7420746f6b656e0000000000000000000000000000000000000000000000602082015250565b6000614fc4602983613cf5565b9150614fcf82614f68565b604082019050919050565b60006020820190508181036000830152614ff381614fb7565b9050919050565b7f7a65726f20616464726573730000000000000000000000000000000000000000600082015250565b6000615030600c83613cf5565b915061503b82614ffa565b602082019050919050565b6000602082019050818103600083015261505f81615023565b9050919050565b7f6e6f74206f776e65720000000000000000000000000000000000000000000000600082015250565b600061509c600983613cf5565b91506150a782615066565b602082019050919050565b600060208201905081810360008301526150cb8161508f565b9050919050565b60006080820190506150e76000830187613ee4565b6150f46020830186614820565b6151016040830185613ee4565b81810360608301526151138184614d0e565b905095945050505050565b7f4552433732313a207472616e736665722063616c6c6572206973206e6f74206f60008201527f776e6572206e6f7220617070726f766564000000000000000000000000000000602082015250565b600061517a603183613cf5565b91506151858261511e565b604082019050919050565b600060208201905081810360008301526151a98161516d565b9050919050565b7f4552433732314d657461646174613a2055524920717565727920666f72206e6f60008201527f6e6578697374656e7420746f6b656e0000000000000000000000000000000000602082015250565b600061520c602f83613cf5565b9150615217826151b0565b604082019050919050565b6000602082019050818103600083015261523b816151ff565b9050919050565b600081905092915050565b600061525882613cea565b6152628185615242565b9350615272818560208601613d06565b80840191505092915050565b600061528a828561524d565b9150615296828461524d565b91508190509392505050565b7f7374616b696e6700000000000000000000000000000000000000000000000000600082015250565b60006152d8600783613cf5565b91506152e3826152a2565b602082019050919050565b60006020820190508181036000830152615307816152cb565b9050919050565b60006060820190506153236000830186613ee4565b6153306020830185614820565b81810360408301526153428184614d0e565b9050949350505050565b7f6e6f207469636b65747300000000000000000000000000000000000000000000600082015250565b6000615382600a83613cf5565b915061538d8261534c565b602082019050919050565b600060208201905081810360008301526153b181615375565b9050919050565b7f4e6f206d6f7265206c6f74746572696573000000000000000000000000000000600082015250565b60006153ee601183613cf5565b91506153f9826153b8565b602082019050919050565b6000602082019050818103600083015261541d816153e1565b9050919050565b6000819050919050565b6000819050919050565b600061545361544e61544984615424565b61542e565b613db9565b9050919050565b61546381615438565b82525050565b600060c0830160008301516154816000860182613f3a565b50602083015184820360208601526154998282613f5a565b915050604083015184820360408601526154b38282613fe0565b91505060608301516154c86060860182613f3a565b5060808301516154db6080860182613f3a565b5060a08301516154ee60a0860182614061565b508091505092915050565b600060808201905061550e6000830187613e4e565b61551b6020830186613ee4565b615528604083018561545a565b818103606083015261553a8184615469565b905095945050505050565b7f616c6c206d696e74656400000000000000000000000000000000000000000000600082015250565b600061557b600a83613cf5565b915061558682615545565b602082019050919050565b600060208201905081810360008301526155aa8161556e565b9050919050565b7f6e6f7420656e6f75676820657468657200000000000000000000000000000000600082015250565b60006155e7601083613cf5565b91506155f2826155b1565b602082019050919050565b60006020820190508181036000830152615616816155da565b9050919050565b60006080820190506156326000830187613e4e565b61563f6020830186613ee4565b61564c6040830185613ee4565b818103606083015261565e8184615469565b905095945050505050565b7f45524332303a206275726e2066726f6d20746865207a65726f2061646472657360008201527f7300000000000000000000000000000000000000000000000000000000000000602082015250565b60006156c5602183613cf5565b91506156d082615669565b604082019050919050565b600060208201905081810360008301526156f4816156b8565b9050919050565b7f45524332303a206275726e20616d6f756e7420657863656564732062616c616e60008201527f6365000000000000000000000000000000000000000000000000000000000000602082015250565b6000615757602283613cf5565b9150615762826156fb565b604082019050919050565b600060208201905081810360008301526157868161574a565b9050919050565b7f45524332303a206d696e7420746f20746865207a65726f206164647265737300600082015250565b60006157c3601f83613cf5565b91506157ce8261578d565b602082019050919050565b600060208201905081810360008301526157f2816157b6565b9050919050565b7f4552433732313a20617070726f766520746f2063616c6c657200000000000000600082015250565b600061582f601983613cf5565b915061583a826157f9565b602082019050919050565b6000602082019050818103600083015261585e81615822565b9050919050565b7f4552433732313a206f70657261746f7220717565727920666f72206e6f6e657860008201527f697374656e7420746f6b656e0000000000000000000000000000000000000000602082015250565b60006158c1602c83613cf5565b91506158cc82615865565b604082019050919050565b600060208201905081810360008301526158f0816158b4565b9050919050565b7f4552433732313a207472616e7366657220746f206e6f6e20455243373231526560008201527f63656976657220696d706c656d656e7465720000000000000000000000000000602082015250565b6000615953603283613cf5565b915061595e826158f7565b604082019050919050565b6000602082019050818103600083015261598281615946565b9050919050565b7f4e487b7100000000000000000000000000000000000000000000000000000000600052601260045260246000fd5b60006159c382613db9565b91506159ce83613db9565b9250826159de576159dd615989565b5b828206905092915050565b60006159f482613db9565b91506000821415615a0857615a07614a44565b5b600182039050919050565b7f5249206e6f74206578697374696e670000000000000000000000000000000000600082015250565b6000615a49600f83613cf5565b9150615a5482615a13565b602082019050919050565b60006020820190508181036000830152615a7881615a3c565b9050919050565b7f4552433732313a206d696e7420746f20746865207a65726f2061646472657373600082015250565b6000615ab5602083613cf5565b9150615ac082615a7f565b602082019050919050565b60006020820190508181036000830152615ae481615aa8565b9050919050565b7f4552433732313a20746f6b656e20616c7265616479206d696e74656400000000600082015250565b6000615b21601c83613cf5565b9150615b2c82615aeb565b602082019050919050565b60006020820190508181036000830152615b5081615b14565b9050919050565b6000615b6282613db9565b9150615b6d83613db9565b925082615b7d57615b7c615989565b5b828204905092915050565b7f4552433732313a207472616e736665722066726f6d20696e636f72726563742060008201527f6f776e6572000000000000000000000000000000000000000000000000000000602082015250565b6000615be4602583613cf5565b9150615bef82615b88565b604082019050919050565b60006020820190508181036000830152615c1381615bd7565b9050919050565b7f4552433732313a207472616e7366657220746f20746865207a65726f2061646460008201527f7265737300000000000000000000000000000000000000000000000000000000602082015250565b6000615c76602483613cf5565b9150615c8182615c1a565b604082019050919050565b60006020820190508181036000830152615ca581615c69565b9050919050565b600081519050919050565b600082825260208201905092915050565b6000615cd382615cac565b615cdd8185615cb7565b9350615ced818560208601613d06565b615cf681613d39565b840191505092915050565b6000608082019050615d166000830187613e4e565b615d236020830186613e4e565b615d306040830185613ee4565b8181036060830152615d428184615cc8565b905095945050505050565b60007fffffffff0000000000000000000000000000000000000000000000000000000082169050919050565b615d8281615d4d565b8114615d8d57600080fd5b50565b600081519050615d9f81615d79565b92915050565b600060208284031215615dbb57615dba613daf565b5b6000615dc984828501615d90565b91505092915050565b6000819050919050565b615ded615de882613db9565b615dd2565b82525050565b60008160601b9050919050565b6000615e0b82615df3565b9050919050565b6000615e1d82615e00565b9050919050565b615e35615e3082613e3c565b615e12565b82525050565b6000615e478286615ddc565b602082019150615e578285615e24565b601482019150615e67828461524d565b915081905094935050505056fea2646970667358221220194a57f2ad6ddeb412775ff400867d606958a56a273dc4e8512325d8c85e02ba64736f6c634300080b0033",
  "immutableReferences": {},
  "source": "//SPDX-License-Identifier: MIT\npragma solidity 0.8.11;\n\nimport {\n    Dixel,\n    LibDixel\n} from \"../libraries/LibDixel.sol\";\nimport {\n    LibLottery\n} from \"../libraries/LibLottery.sol\";\nimport {\n    LibStarm\n} from \"../libraries/LibStarm.sol\";\nimport \"../ERC721.sol\";\n\ncontract DixelFacet is ERC721 {\n    /**\n     * @dev is emitted when a Dixel is created\n     */\n    event DixelMinted(address _minter, uint _id, uint _mintPrice, Dixel _dixel);\n\n    /**\n     * @dev is emitted when a Dixel is put in staking\n     */\n    event Staking(uint _id, bool _isStaked, Dixel _dixel);\n\n    /**\n     * @dev is emitted when a Dixel is unStaked\n     */\n    event UnStaking(uint _id, bool _isStaked, uint _starmProduced, Dixel _dixel);\n\n    /**\n     * @dev is emitted when a Dixel is leveled up\n     */\n    event LevelUp(uint _tokenId, uint _oldLevel, uint _newLevel, Dixel _dixel);\n\n\n    modifier isOwner(uint _tokenId) {\n        require(msg.sender == ownerOf(_tokenId), \"not owner\");\n        _;\n    }\n\n\n    /**\n     * @dev sets the price of the mint in function of the current supply\n     */\n    function getDixelPrice() public view returns(uint256) {\n        LibDixel.SupplyStorage storage supplies = LibDixel.supplyStorage();\n        uint currentSupply = supplies.mintedSupply;\n        require(currentSupply <= LibDixel.maxMintedSupply, \"Mint ended\");\n        if (currentSupply >= 1850) {\n            return 100000000000000000; // 1850  - 1880 0.1ETH\n        } else if (currentSupply >= 1700) {\n            return 80000000000000000; // 1700 - 1850 0.08 ETH\n        } else if (currentSupply >= 1150) {\n            return 60000000000000000; // 1150 - 1700 0.06 ETH\n        } else if (currentSupply >= 650) {\n            return 50000000000000000; // 650 - 1150 0.05 ETH\n        } else if (currentSupply >= 250) {\n            return 30000000000000000; // 250 - 650 0.03 ETH\n        } else {\n            return 10000000000000000; // 0 - 250 0.01 ETH\n        }\n    }\n\n\n    /**\n     * @dev allow to mint a new Dixel for a price set in getDixelPrice()\n     * @dev there is a security issue with the addresses as anyone\n     * @param _addresses set of URI addresses for the future NFT's addresses.\n     * Emits a {DixelMinted} event\n     */\n    function mintDixel(string[][] memory _addresses) external payable {\n        LibDixel.SupplyStorage storage supplies = LibDixel.supplyStorage();\n        LibDixel.DixelStorage storage ds = LibDixel.dixelStorage();\n        require(supplies.mintedSupply< LibDixel.maxMintedSupply, \"all minted\");\n        require(getDixelPrice() == msg.value, \"not enough ether\");\n        uint rarity = LibDixel.genRarity();\n        LibDixel.changeSupplies(rarity);\n\n        string[] memory mAddressArray = LibDixel.assignAddress(rarity, _addresses);\n        Dixel memory tempDix = Dixel(1, mAddressArray[0], mAddressArray, rarity, 0, false);\n        ds.dixels.push(tempDix);\n\n        mint(msg.sender, ds.dixels.length - 1);\n        LibDixel.fundCreators(msg.value);\n        supplies.mintedSupply++;\n        supplies.totalSupply++;\n        emit DixelMinted(msg.sender, ds.dixels.length, msg.value, tempDix);\n    }\n\n\n    /**\n     * @dev mint a Dixel for free with a won lottery ticket. User will still have to pay gas fee\n     * @dev there is a security issue with the addresses as anyone\n     * @param _addresses set of URI addresses for the future NFT's addresses.\n     *\n     * Emits a {DixelMinted} event\n     */\n    function mintFreeDixel(string[][] memory _addresses) external {\n        LibDixel.SupplyStorage storage supplies = LibDixel.supplyStorage();\n        LibLottery.LotteryStorage storage ls = LibLottery.lotteryStorage();\n        LibDixel.DixelStorage storage ds = LibDixel.dixelStorage();\n        require(ls.freeMintTickets[msg.sender] >= 1, \"no tickets\");\n        require(supplies.lotterySupply < LibDixel.maxLotteryMintedSupply, \"No more lotteries\");\n        ls.freeMintTickets[msg.sender] -= 1;\n        uint rarity = LibDixel.genRarity();\n        LibDixel.changeSupplies(rarity);\n        \n        string[] memory mAddressArray = LibDixel.assignAddress(rarity, _addresses);\n        Dixel memory tempDix = Dixel(1, mAddressArray[0], mAddressArray, rarity, 0, false);\n        ds.dixels.push(tempDix);\n        mint(msg.sender, ds.dixels.length - 1);\n        supplies.lotterySupply++;\n        supplies.totalSupply++;\n        emit DixelMinted(msg.sender, ds.dixels.length, 0, tempDix);\n    }\n\n    /**\n     * @dev overriden function to set the base URI to ipfs\n     */\n    function _baseURI() internal override pure returns(string memory) {\n        return \"https://ipfs.io/ipfs/\";\n    }\n\n    /**\n     * @dev overiden function to set ipfs metadata's address hash\n     */\n    function tokenURI(uint256 tokenId) public override view returns(string memory) {\n        LibDixel.DixelStorage storage ds = LibDixel.dixelStorage();\n        require(_exists(tokenId), \"ERC721Metadata: URI query for nonexistent token\");\n        string memory mAddress = ds.dixels[tokenId].URI;\n        string memory baseURI = _baseURI();\n        return bytes(baseURI).length > 0 ?\n            string(abi.encodePacked(baseURI, mAddress)) :\n            '';\n    }\n\n    /**\n    * @notice Stake a NFT to produce starm\n    * @param _tokenId the id of the NFT to stake \n    ** Emits a {Staking} event\n    */ \n    function stakeDix(uint _tokenId) external {\n        LibDixel.DixelStorage storage ds = LibDixel.dixelStorage();\n        require(_exists(_tokenId));\n        require(ds.dixels[_tokenId].staked == false, \"staking\");\n        require(msg.sender == ds.owners[_tokenId],\"not owner\");\n        ds.dixels[_tokenId].staked = true;\n        ds.dixels[_tokenId].stakeInitTime = block.timestamp;\n\n        emit Staking(_tokenId, true, ds.dixels[_tokenId]);\n    }\n\n    /**\n     * @dev unStake chosen dixel and rewards minted starm to user\n     * @param _tokenId the Dixel to unstake\n     *\n     ** Emits a {UnStaking} event\n     */\n    function unStakeDix(uint _tokenId) external {\n        LibDixel.DixelStorage storage ds = LibDixel.dixelStorage();\n        require(_exists(_tokenId));\n        require(ds.dixels[_tokenId].staked == true, \"not staked\");\n        require(msg.sender == ds.owners[_tokenId], \"not owner\");\n        Dixel memory dixel = ds.dixels[_tokenId];\n        ds.dixels[_tokenId].staked = false;\n        uint stakedTime = block.timestamp - dixel.stakeInitTime;\n        uint StarmToMint = stakedTime * (dixel.level) * (dixel.rarity);\n        ds.dixels[_tokenId].stakeInitTime = 0;\n        LibStarm._mintStarm(msg.sender, StarmToMint);\n        emit UnStaking(_tokenId, false, StarmToMint, ds.dixels[_tokenId]);\n    }\n\n    /**\n     * @dev level up a Dixel for a cost of Starm\n     * @param _tokenId the Dixel to level up\n     *\n     * Emits a {LevelUp} event\n     */\n    function levelUp(uint _tokenId) external {\n        require(_exists(_tokenId));\n        LibDixel.SupplyStorage storage supplies = LibDixel.supplyStorage();\n        LibDixel.DixelStorage storage ds = LibDixel.dixelStorage();\n        Dixel memory dixel = ds.dixels[_tokenId];\n        uint oldLevel = dixel.level;\n        require(ds.dixels[_tokenId].level < 5, \"max lvl\");\n\n        if (dixel.level == 4) {\n            require(supplies.collectorsSupply <= LibDixel.maxCollectors, \"limit reached\");\n            supplies.collectorsSupply++;\n        }\n        LibStarm._burnStarm(msg.sender, dixel.level * 1000);\n        dixel.URI = dixel.levelURI[dixel.level + 1];\n        dixel.level++;\n        ds.dixels[_tokenId] = dixel;\n        emit LevelUp(_tokenId, oldLevel, dixel.level, ds.dixels[_tokenId]);\n    }\n\n    /**\n    * @notice withdraw starm produced by one staked NFT\n    * @param _tokenId id of the staked NFT to withdraw the produced starm from\n    */\n        function withdrawProducedStarm(uint _tokenId) external {\n        LibDixel.DixelStorage storage ds = LibDixel.dixelStorage();\n        Dixel memory dixel = ds.dixels[_tokenId];\n        uint currentBlockTime = block.timestamp;\n\n        require(ds.dixels[_tokenId].staked == true, \"not staked\");\n        require(currentBlockTime >= dixel.stakeInitTime, \"\");\n\n        uint stakedTime = currentBlockTime - dixel.stakeInitTime;\n        uint StarmToMint = stakedTime * (dixel.level) * (dixel.rarity); // FIXME: staking formula must be changed for mainnet deployment\n\n        LibStarm._mintStarm(msg.sender, StarmToMint);\n        ds.dixels[_tokenId].stakeInitTime = currentBlockTime;\n    }\n\n    /**\n    * @return returns the array containing all the dixels\n     */\n    function getDixels() external view returns(Dixel[] memory) {\n        LibDixel.DixelStorage storage ds = LibDixel.dixelStorage();\n        return ds.dixels;\n    }\n\n    /**\n     * @return supplies are return in a SupplyStorage struct\n     */\n    function returnSupplies() external pure returns(LibDixel.SupplyStorage memory supplies) {\n        supplies = LibDixel.supplyStorage();\n        return supplies;\n    }\n\n    /**\n     * @return it returns a uint of the contract balance in ETH\n     */\n    function contractBalance() external view returns(uint) {\n        return address(this).balance;\n    }\n\n\n}",
  "sourcePath": "/home/torof/Desktop/Dixel-folder/dixel-22/contracts/facets/DixelFacet.sol",
  "compiler": {
    "name": "solc",
    "version": "0.8.11+commit.d7f03943.Emscripten.clang"
  },
  "schemaVersion": "3.4.4",
  "updatedAt": "2022-01-24T19:32:35.253Z",
  "networkType": "ethereum",
  "devdoc": {
    "events": {
      "DixelMinted(address,uint256,uint256,(uint256,string,string[],uint256,uint256,bool))": {
        "details": "is emitted when a Dixel is created"
      },
      "LevelUp(uint256,uint256,uint256,(uint256,string,string[],uint256,uint256,bool))": {
        "details": "is emitted when a Dixel is leveled up"
      },
      "Staking(uint256,bool,(uint256,string,string[],uint256,uint256,bool))": {
        "details": "is emitted when a Dixel is put in staking"
      },
      "UnStaking(uint256,bool,uint256,(uint256,string,string[],uint256,uint256,bool))": {
        "details": "is emitted when a Dixel is unStaked"
      }
    },
    "kind": "dev",
    "methods": {
      "approve(address,uint256)": {
        "details": "Gives permission to `to` to transfer `tokenId` token to another account. The approval is cleared when the token is transferred. Only a single account can be approved at a time, so approving the zero address clears previous approvals. Requirements: - The caller must own the token or be an approved operator. - `tokenId` must exist. Emits an {Approval} event."
      },
      "balanceOf(address)": {
        "details": "Returns the number of tokens in ``owner``'s account."
      },
      "contractBalance()": {
        "returns": {
          "_0": "it returns a uint of the contract balance in ETH"
        }
      },
      "getApproved(uint256)": {
        "details": "Returns the account approved for `tokenId` token. Requirements: - `tokenId` must exist."
      },
      "getDixelPrice()": {
        "details": "sets the price of the mint in function of the current supply"
      },
      "getDixels()": {
        "returns": {
          "_0": "returns the array containing all the dixels"
        }
      },
      "isApprovedForAll(address,address)": {
        "details": "Returns if the `operator` is allowed to manage all of the assets of `owner`. See {setApprovalForAll}"
      },
      "levelUp(uint256)": {
        "details": "level up a Dixel for a cost of Starm",
        "params": {
          "_tokenId": "the Dixel to level up Emits a {LevelUp} event"
        }
      },
      "mintDixel(string[][])": {
        "details": "allow to mint a new Dixel for a price set in getDixelPrice()there is a security issue with the addresses as anyone",
        "params": {
          "_addresses": "set of URI addresses for the future NFT's addresses. Emits a {DixelMinted} event"
        }
      },
      "mintFreeDixel(string[][])": {
        "details": "mint a Dixel for free with a won lottery ticket. User will still have to pay gas feethere is a security issue with the addresses as anyone",
        "params": {
          "_addresses": "set of URI addresses for the future NFT's addresses. Emits a {DixelMinted} event"
        }
      },
      "ownerOf(uint256)": {
        "details": "Returns the owner of the `tokenId` token. Requirements: - `tokenId` must exist."
      },
      "returnSupplies()": {
        "returns": {
          "supplies": "are return in a SupplyStorage struct"
        }
      },
      "safeTransferFrom(address,address,uint256)": {
        "details": "Safely transfers `tokenId` token from `from` to `to`, checking first that contract recipients are aware of the ERC721 protocol to prevent tokens from being forever locked. Requirements: - `from` cannot be the zero address. - `to` cannot be the zero address. - `tokenId` token must exist and be owned by `from`. - If the caller is not `from`, it must be have been allowed to move this token by either {approve} or {setApprovalForAll}. - If `to` refers to a smart contract, it must implement {IERC721Receiver-onERC721Received}, which is called upon a safe transfer. Emits a {Transfer} event."
      },
      "safeTransferFrom(address,address,uint256,bytes)": {
        "details": "Safely transfers `tokenId` token from `from` to `to`. Requirements: - `from` cannot be the zero address. - `to` cannot be the zero address. - `tokenId` token must exist and be owned by `from`. - If the caller is not `from`, it must be approved to move this token by either {approve} or {setApprovalForAll}. - If `to` refers to a smart contract, it must implement {IERC721Receiver-onERC721Received}, which is called upon a safe transfer. Emits a {Transfer} event."
      },
      "setApprovalForAll(address,bool)": {
        "details": "Approve or remove `operator` as an operator for the caller. Operators can call {transferFrom} or {safeTransferFrom} for any token owned by the caller. Requirements: - The `operator` cannot be the caller. Emits an {ApprovalForAll} event."
      },
      "stakeDix(uint256)": {
        "params": {
          "_tokenId": "the id of the NFT to stake ** Emits a {Staking} event"
        }
      },
      "tokenURI(uint256)": {
        "details": "overiden function to set ipfs metadata's address hash"
      },
      "transferFrom(address,address,uint256)": {
        "details": "Transfers `tokenId` token from `from` to `to`. WARNING: Usage of this method is discouraged, use {safeTransferFrom} whenever possible. Requirements: - `from` cannot be the zero address. - `to` cannot be the zero address. - `tokenId` token must be owned by `from`. - If the caller is not `from`, it must be approved to move this token by either {approve} or {setApprovalForAll}. Emits a {Transfer} event."
      },
      "unStakeDix(uint256)": {
        "details": "unStake chosen dixel and rewards minted starm to user",
        "params": {
          "_tokenId": "the Dixel to unstake** Emits a {UnStaking} event"
        }
      },
      "withdrawProducedStarm(uint256)": {
        "params": {
          "_tokenId": "id of the staked NFT to withdraw the produced starm from"
        }
      }
    },
    "version": 1
  },
  "userdoc": {
    "kind": "user",
    "methods": {
      "stakeDix(uint256)": {
        "notice": "Stake a NFT to produce starm"
      },
      "withdrawProducedStarm(uint256)": {
        "notice": "withdraw starm produced by one staked NFT"
      }
    },
    "version": 1
  }
}