{
  "contractName": "DixelFacet",
  "abi": [
    {
      "anonymous": false,
      "inputs": [
        {
          "indexed": true,
          "internalType": "address",
          "name": "owner",
          "type": "address"
        },
        {
          "indexed": true,
          "internalType": "address",
          "name": "approved",
          "type": "address"
        },
        {
          "indexed": true,
          "internalType": "uint256",
          "name": "tokenId",
          "type": "uint256"
        }
      ],
      "name": "Approval",
      "type": "event"
    },
    {
      "anonymous": false,
      "inputs": [
        {
          "indexed": true,
          "internalType": "address",
          "name": "owner",
          "type": "address"
        },
        {
          "indexed": true,
          "internalType": "address",
          "name": "operator",
          "type": "address"
        },
        {
          "indexed": false,
          "internalType": "bool",
          "name": "approved",
          "type": "bool"
        }
      ],
      "name": "ApprovalForAll",
      "type": "event"
    },
    {
      "anonymous": false,
      "inputs": [
        {
          "indexed": false,
          "internalType": "address",
          "name": "_minter",
          "type": "address"
        },
        {
          "indexed": false,
          "internalType": "uint256",
          "name": "_id",
          "type": "uint256"
        },
        {
          "indexed": false,
          "internalType": "uint256",
          "name": "_mintPrice",
          "type": "uint256"
        },
        {
          "components": [
            {
              "internalType": "uint256",
              "name": "level",
              "type": "uint256"
            },
            {
              "internalType": "string",
              "name": "URI",
              "type": "string"
            },
            {
              "internalType": "string[]",
              "name": "levelURI",
              "type": "string[]"
            },
            {
              "internalType": "uint256",
              "name": "rarity",
              "type": "uint256"
            },
            {
              "internalType": "uint256",
              "name": "stakeInitTime",
              "type": "uint256"
            },
            {
              "internalType": "bool",
              "name": "staked",
              "type": "bool"
            }
          ],
          "indexed": false,
          "internalType": "struct Dixel",
          "name": "_dixel",
          "type": "tuple"
        }
      ],
      "name": "DixelMinted",
      "type": "event"
    },
    {
      "anonymous": false,
      "inputs": [
        {
          "indexed": false,
          "internalType": "uint256",
          "name": "randomNum",
          "type": "uint256"
        }
      ],
      "name": "GenRandom",
      "type": "event"
    },
    {
      "anonymous": false,
      "inputs": [
        {
          "indexed": false,
          "internalType": "uint256",
          "name": "_tokenId",
          "type": "uint256"
        },
        {
          "indexed": false,
          "internalType": "uint256",
          "name": "_oldLevel",
          "type": "uint256"
        },
        {
          "indexed": false,
          "internalType": "uint256",
          "name": "_newLevel",
          "type": "uint256"
        },
        {
          "components": [
            {
              "internalType": "uint256",
              "name": "level",
              "type": "uint256"
            },
            {
              "internalType": "string",
              "name": "URI",
              "type": "string"
            },
            {
              "internalType": "string[]",
              "name": "levelURI",
              "type": "string[]"
            },
            {
              "internalType": "uint256",
              "name": "rarity",
              "type": "uint256"
            },
            {
              "internalType": "uint256",
              "name": "stakeInitTime",
              "type": "uint256"
            },
            {
              "internalType": "bool",
              "name": "staked",
              "type": "bool"
            }
          ],
          "indexed": false,
          "internalType": "struct Dixel",
          "name": "_dixel",
          "type": "tuple"
        }
      ],
      "name": "LevelUp",
      "type": "event"
    },
    {
      "anonymous": false,
      "inputs": [
        {
          "indexed": false,
          "internalType": "uint256",
          "name": "_id",
          "type": "uint256"
        },
        {
          "indexed": false,
          "internalType": "bool",
          "name": "_isStaked",
          "type": "bool"
        },
        {
          "components": [
            {
              "internalType": "uint256",
              "name": "level",
              "type": "uint256"
            },
            {
              "internalType": "string",
              "name": "URI",
              "type": "string"
            },
            {
              "internalType": "string[]",
              "name": "levelURI",
              "type": "string[]"
            },
            {
              "internalType": "uint256",
              "name": "rarity",
              "type": "uint256"
            },
            {
              "internalType": "uint256",
              "name": "stakeInitTime",
              "type": "uint256"
            },
            {
              "internalType": "bool",
              "name": "staked",
              "type": "bool"
            }
          ],
          "indexed": false,
          "internalType": "struct Dixel",
          "name": "_dixel",
          "type": "tuple"
        }
      ],
      "name": "Staking",
      "type": "event"
    },
    {
      "anonymous": false,
      "inputs": [
        {
          "indexed": true,
          "internalType": "address",
          "name": "from",
          "type": "address"
        },
        {
          "indexed": true,
          "internalType": "address",
          "name": "to",
          "type": "address"
        },
        {
          "indexed": true,
          "internalType": "uint256",
          "name": "tokenId",
          "type": "uint256"
        }
      ],
      "name": "Transfer",
      "type": "event"
    },
    {
      "anonymous": false,
      "inputs": [
        {
          "indexed": false,
          "internalType": "uint256",
          "name": "_id",
          "type": "uint256"
        },
        {
          "indexed": false,
          "internalType": "bool",
          "name": "_isStaked",
          "type": "bool"
        },
        {
          "indexed": false,
          "internalType": "uint256",
          "name": "_starmProduced",
          "type": "uint256"
        },
        {
          "components": [
            {
              "internalType": "uint256",
              "name": "level",
              "type": "uint256"
            },
            {
              "internalType": "string",
              "name": "URI",
              "type": "string"
            },
            {
              "internalType": "string[]",
              "name": "levelURI",
              "type": "string[]"
            },
            {
              "internalType": "uint256",
              "name": "rarity",
              "type": "uint256"
            },
            {
              "internalType": "uint256",
              "name": "stakeInitTime",
              "type": "uint256"
            },
            {
              "internalType": "bool",
              "name": "staked",
              "type": "bool"
            }
          ],
          "indexed": false,
          "internalType": "struct Dixel",
          "name": "_dixel",
          "type": "tuple"
        }
      ],
      "name": "UnStaking",
      "type": "event"
    },
    {
      "inputs": [
        {
          "internalType": "address",
          "name": "_to",
          "type": "address"
        },
        {
          "internalType": "uint256",
          "name": "_tokenId",
          "type": "uint256"
        }
      ],
      "name": "approve",
      "outputs": [],
      "stateMutability": "nonpayable",
      "type": "function"
    },
    {
      "inputs": [
        {
          "internalType": "address",
          "name": "owner",
          "type": "address"
        }
      ],
      "name": "balanceOf",
      "outputs": [
        {
          "internalType": "uint256",
          "name": "balance",
          "type": "uint256"
        }
      ],
      "stateMutability": "view",
      "type": "function",
      "constant": true
    },
    {
      "inputs": [
        {
          "internalType": "uint256",
          "name": "tokenId",
          "type": "uint256"
        }
      ],
      "name": "getApproved",
      "outputs": [
        {
          "internalType": "address",
          "name": "",
          "type": "address"
        }
      ],
      "stateMutability": "view",
      "type": "function",
      "constant": true
    },
    {
      "inputs": [
        {
          "internalType": "address",
          "name": "owner",
          "type": "address"
        },
        {
          "internalType": "address",
          "name": "operator",
          "type": "address"
        }
      ],
      "name": "isApprovedForAll",
      "outputs": [
        {
          "internalType": "bool",
          "name": "",
          "type": "bool"
        }
      ],
      "stateMutability": "view",
      "type": "function",
      "constant": true
    },
    {
      "inputs": [],
      "name": "name",
      "outputs": [
        {
          "internalType": "string",
          "name": "",
          "type": "string"
        }
      ],
      "stateMutability": "view",
      "type": "function",
      "constant": true
    },
    {
      "inputs": [
        {
          "internalType": "uint256",
          "name": "_tokenId",
          "type": "uint256"
        }
      ],
      "name": "ownerOf",
      "outputs": [
        {
          "internalType": "address",
          "name": "",
          "type": "address"
        }
      ],
      "stateMutability": "view",
      "type": "function",
      "constant": true
    },
    {
      "inputs": [
        {
          "internalType": "address",
          "name": "from",
          "type": "address"
        },
        {
          "internalType": "address",
          "name": "to",
          "type": "address"
        },
        {
          "internalType": "uint256",
          "name": "tokenId",
          "type": "uint256"
        }
      ],
      "name": "safeTransferFrom",
      "outputs": [],
      "stateMutability": "nonpayable",
      "type": "function"
    },
    {
      "inputs": [
        {
          "internalType": "address",
          "name": "_from",
          "type": "address"
        },
        {
          "internalType": "address",
          "name": "_to",
          "type": "address"
        },
        {
          "internalType": "uint256",
          "name": "_tokenId",
          "type": "uint256"
        },
        {
          "internalType": "bytes",
          "name": "_data",
          "type": "bytes"
        }
      ],
      "name": "safeTransferFrom",
      "outputs": [],
      "stateMutability": "nonpayable",
      "type": "function"
    },
    {
      "inputs": [
        {
          "internalType": "address",
          "name": "operator",
          "type": "address"
        },
        {
          "internalType": "bool",
          "name": "_approved",
          "type": "bool"
        }
      ],
      "name": "setApprovalForAll",
      "outputs": [],
      "stateMutability": "nonpayable",
      "type": "function"
    },
    {
      "inputs": [],
      "name": "symbol",
      "outputs": [
        {
          "internalType": "string",
          "name": "",
          "type": "string"
        }
      ],
      "stateMutability": "view",
      "type": "function",
      "constant": true
    },
    {
      "inputs": [],
      "name": "totalSupply",
      "outputs": [
        {
          "internalType": "uint256",
          "name": "",
          "type": "uint256"
        }
      ],
      "stateMutability": "view",
      "type": "function",
      "constant": true
    },
    {
      "inputs": [
        {
          "internalType": "address",
          "name": "_from",
          "type": "address"
        },
        {
          "internalType": "address",
          "name": "_to",
          "type": "address"
        },
        {
          "internalType": "uint256",
          "name": "_tokenId",
          "type": "uint256"
        }
      ],
      "name": "transferFrom",
      "outputs": [],
      "stateMutability": "nonpayable",
      "type": "function"
    },
    {
      "inputs": [],
      "name": "getDixelPrice",
      "outputs": [
        {
          "internalType": "uint256",
          "name": "",
          "type": "uint256"
        }
      ],
      "stateMutability": "view",
      "type": "function",
      "constant": true
    },
    {
      "inputs": [
        {
          "internalType": "string[][]",
          "name": "_addresses",
          "type": "string[][]"
        }
      ],
      "name": "mintDixel",
      "outputs": [],
      "stateMutability": "payable",
      "type": "function",
      "payable": true
    },
    {
      "inputs": [
        {
          "internalType": "string[][]",
          "name": "_addresses",
          "type": "string[][]"
        }
      ],
      "name": "mintFreeDixel",
      "outputs": [],
      "stateMutability": "nonpayable",
      "type": "function"
    },
    {
      "inputs": [
        {
          "internalType": "uint256",
          "name": "tokenId",
          "type": "uint256"
        }
      ],
      "name": "tokenURI",
      "outputs": [
        {
          "internalType": "string",
          "name": "",
          "type": "string"
        }
      ],
      "stateMutability": "view",
      "type": "function",
      "constant": true
    },
    {
      "inputs": [
        {
          "internalType": "uint256",
          "name": "_tokenId",
          "type": "uint256"
        }
      ],
      "name": "stakeDix",
      "outputs": [],
      "stateMutability": "nonpayable",
      "type": "function"
    },
    {
      "inputs": [
        {
          "internalType": "uint256",
          "name": "_tokenId",
          "type": "uint256"
        }
      ],
      "name": "unStakeDix",
      "outputs": [],
      "stateMutability": "nonpayable",
      "type": "function"
    },
    {
      "inputs": [
        {
          "internalType": "uint256",
          "name": "_tokenId",
          "type": "uint256"
        }
      ],
      "name": "levelUp",
      "outputs": [],
      "stateMutability": "nonpayable",
      "type": "function"
    },
    {
      "inputs": [
        {
          "internalType": "uint256",
          "name": "_tokenId",
          "type": "uint256"
        }
      ],
      "name": "withdrawProducedStarm",
      "outputs": [],
      "stateMutability": "nonpayable",
      "type": "function"
    }
  ],
  "bytecode": "0x608060405234801561001057600080fd5b50615cd580620000216000396000f3fe60806040526004361061011f5760003560e01c806370a08231116100a0578063c87b56dd11610064578063c87b56dd146103cf578063c8e18ef71461040c578063e774c3b214610435578063e985e9c51461045e578063fb79f50f1461049b5761011f565b806370a08231146102ec57806395d89b4114610329578063a22cb46514610354578063abf541771461037d578063b88d4fde146103a65761011f565b806318160ddd116100e757806318160ddd1461020957806323b872dd1461023457806342842e0e1461025d57806343c4af1b146102865780636352211e146102af5761011f565b806306fdde0314610124578063081812fc1461014f578063095ea7b31461018c5780630ce90ec2146101b557806312d28d80146101de575b600080fd5b34801561013057600080fd5b506101396104b7565b6040516101469190613b0a565b60405180910390f35b34801561015b57600080fd5b5061017660048036038101906101719190613b76565b610558565b6040516101839190613be4565b60405180910390f35b34801561019857600080fd5b506101b360048036038101906101ae9190613c2b565b6105eb565b005b3480156101c157600080fd5b506101dc60048036038101906101d79190613b76565b6108ad565b005b3480156101ea57600080fd5b506101f3610db2565b6040516102009190613c7a565b60405180910390f35b34801561021557600080fd5b5061021e610ea0565b60405161022b9190613c7a565b60405180910390f35b34801561024057600080fd5b5061025b60048036038101906102569190613c95565b610eb8565b005b34801561026957600080fd5b50610284600480360381019061027f9190613c95565b610f11565b005b34801561029257600080fd5b506102ad60048036038101906102a89190613b76565b610f31565b005b3480156102bb57600080fd5b506102d660048036038101906102d19190613b76565b6112e2565b6040516102e39190613be4565b60405180910390f35b3480156102f857600080fd5b50610313600480360381019061030e9190613ce8565b6113a3565b6040516103209190613c7a565b60405180910390f35b34801561033557600080fd5b5061033e61146a565b60405161034b9190613b0a565b60405180910390f35b34801561036057600080fd5b5061037b60048036038101906103769190613d4d565b61150b565b005b34801561038957600080fd5b506103a4600480360381019061039f9190613b76565b61151a565b005b3480156103b257600080fd5b506103cd60048036038101906103c89190613ec2565b611950565b005b3480156103db57600080fd5b506103f660048036038101906103f19190613b76565b6119ab565b6040516104039190613b0a565b60405180910390f35b34801561041857600080fd5b50610433600480360381019061042e9190613b76565b611b0c565b005b34801561044157600080fd5b5061045c600480360381019061045791906141ad565b611d24565b005b34801561046a57600080fd5b50610485600480360381019061048091906141f6565b61200e565b6040516104929190614245565b60405180910390f35b6104b560048036038101906104b091906141ad565b6120b0565b005b606060006104c3612301565b90508060010180546104d49061428f565b80601f01602080910402602001604051908101604052809291908181526020018280546105009061428f565b801561054d5780601f106105225761010080835404028352916020019161054d565b820191906000526020600020905b81548152906001019060200180831161053057829003601f168201915b505050505091505090565b600080610563612301565b905061056e8361232e565b6105ad576040517f08c379a00000000000000000000000000000000000000000000000000000000081526004016105a490614333565b60405180910390fd5b80600501600084815260200190815260200160002060009054906101000a900473ffffffffffffffffffffffffffffffffffffffff16915050919050565b60006105f5612301565b9050600073ffffffffffffffffffffffffffffffffffffffff168373ffffffffffffffffffffffffffffffffffffffff16141561063157600080fd5b600073ffffffffffffffffffffffffffffffffffffffff1681600301600084815260200190815260200160002060009054906101000a900473ffffffffffffffffffffffffffffffffffffffff1673ffffffffffffffffffffffffffffffffffffffff1614156106a057600080fd5b8273ffffffffffffffffffffffffffffffffffffffff1681600301600084815260200190815260200160002060009054906101000a900473ffffffffffffffffffffffffffffffffffffffff1673ffffffffffffffffffffffffffffffffffffffff16141561070e57600080fd5b80600301600083815260200190815260200160002060009054906101000a900473ffffffffffffffffffffffffffffffffffffffff1673ffffffffffffffffffffffffffffffffffffffff163373ffffffffffffffffffffffffffffffffffffffff16148061084157506001151581600601600083600301600086815260200190815260200160002060009054906101000a900473ffffffffffffffffffffffffffffffffffffffff1673ffffffffffffffffffffffffffffffffffffffff1673ffffffffffffffffffffffffffffffffffffffff16815260200190815260200160002060003373ffffffffffffffffffffffffffffffffffffffff1673ffffffffffffffffffffffffffffffffffffffff16815260200190815260200160002060009054906101000a900460ff161515145b61084a57600080fd5b8281600501600084815260200190815260200160002060006101000a81548173ffffffffffffffffffffffffffffffffffffffff021916908373ffffffffffffffffffffffffffffffffffffffff1602179055506108a883836123b9565b505050565b806108b7816112e2565b73ffffffffffffffffffffffffffffffffffffffff163373ffffffffffffffffffffffffffffffffffffffff1614610924576040517f08c379a000000000000000000000000000000000000000000000000000000000815260040161091b9061439f565b60405180910390fd5b8161092e8161232e565b61096d576040517f08c379a00000000000000000000000000000000000000000000000000000000081526004016109649061440b565b60405180910390fd5b6000610977612481565b90506000610983612301565b9050600081600001868154811061099d5761099c61442b565b5b90600052602060002090600602016040518060c0016040529081600082015481526020016001820180546109d09061428f565b80601f01602080910402602001604051908101604052809291908181526020018280546109fc9061428f565b8015610a495780601f10610a1e57610100808354040283529160200191610a49565b820191906000526020600020905b815481529060010190602001808311610a2c57829003601f168201915b5050505050815260200160028201805480602002602001604051908101604052809291908181526020016000905b82821015610b23578382906000526020600020018054610a969061428f565b80601f0160208091040260200160405190810160405280929190818152602001828054610ac29061428f565b8015610b0f5780601f10610ae457610100808354040283529160200191610b0f565b820191906000526020600020905b815481529060010190602001808311610af257829003601f168201915b505050505081526020019060010190610a77565b50505050815260200160038201548152602001600482015481526020016005820160009054906101000a900460ff16151515158152505090506005826000018781548110610b7457610b7361442b565b5b90600052602060002090600602016000015410610bc6576040517f08c379a0000000000000000000000000000000000000000000000000000000008152600401610bbd906144a6565b60405180910390fd5b600481600001511415610c365760c883600701541115610c1b576040517f08c379a0000000000000000000000000000000000000000000000000000000008152600401610c1290614512565b60405180910390fd5b826007016000815480929190610c3090614561565b91905055505b6000816000015190508160400151826000015181518110610c5a57610c5961442b565b5b60200260200101518260200181905250816000018051809190610c7c90614561565b8152505081836000018881548110610c9757610c9661442b565b5b9060005260206000209060060201600082015181600001556020820151816001019080519060200190610ccb92919061390a565b506040820151816002019080519060200190610ce8929190613990565b50606082015181600301556080820151816004015560a08201518160050160006101000a81548160ff021916908315150217905550905050610d3b336103e88460000151610d3691906145aa565b6124ae565b610d44876119ab565b507f316f492708edb192ed7be53ed328501fe25892eccd577fe461e594a0b21ba54587828460000151866000018b81548110610d8357610d8261442b565b5b9060005260206000209060060201604051610da194939291906148a2565b60405180910390a150505050505050565b600080610dbd612481565b9050600081600501549050610320811115610e0d576040517f08c379a0000000000000000000000000000000000000000000000000000000008152600401610e049061493a565b60405180910390fd5b61073a8110610e285767016345785d8a000092505050610e9d565b6106a48110610e435767011c37937e08000092505050610e9d565b61047e8110610e5d5766d529ae9e86000092505050610e9d565b61028a8110610e775766b1a2bc2ec5000092505050610e9d565b60fa8110610e9057666a94d74f43000092505050610e9d565b662386f26fc10000925050505b90565b600080610eab612481565b9050806000015491505090565b610ec23382612682565b610f01576040517f08c379a0000000000000000000000000000000000000000000000000000000008152600401610ef8906149cc565b60405180910390fd5b610f0c838383612760565b505050565b610f2c83838360405180602001604052806000815250611950565b505050565b6000610f3b612301565b90506000610f476129da565b90506000826000018481548110610f6157610f6061442b565b5b90600052602060002090600602016040518060c001604052908160008201548152602001600182018054610f949061428f565b80601f0160208091040260200160405190810160405280929190818152602001828054610fc09061428f565b801561100d5780601f10610fe25761010080835404028352916020019161100d565b820191906000526020600020905b815481529060010190602001808311610ff057829003601f168201915b5050505050815260200160028201805480602002602001604051908101604052809291908181526020016000905b828210156110e757838290600052602060002001805461105a9061428f565b80601f01602080910402602001604051908101604052809291908181526020018280546110869061428f565b80156110d35780601f106110a8576101008083540402835291602001916110d3565b820191906000526020600020905b8154815290600101906020018083116110b657829003601f168201915b50505050508152602001906001019061103b565b50505050815260200160038201548152602001600482015481526020016005820160009054906101000a900460ff161515151581525050905060004290506001151584600001868154811061113f5761113e61442b565b5b906000526020600020906006020160050160009054906101000a900460ff161515146111a0576040517f08c379a000000000000000000000000000000000000000000000000000000000815260040161119790614a38565b60405180910390fd5b81608001518110156111e7576040517f08c379a00000000000000000000000000000000000000000000000000000000081526004016111de90614a7e565b60405180910390fd5b60008360000160003373ffffffffffffffffffffffffffffffffffffffff1673ffffffffffffffffffffffffffffffffffffffff16815260200190815260200160002054141561126c576040517f08c379a000000000000000000000000000000000000000000000000000000000815260040161126390614aea565b60405180910390fd5b600082608001518261127e9190614b0a565b90506000836060015184600001518361129791906145aa565b6112a191906145aa565b90506112ad3382612a07565b828660000188815481106112c4576112c361442b565b5b90600052602060002090600602016004018190555050505050505050565b6000806112ed612301565b9050600081600301600085815260200190815260200160002060009054906101000a900473ffffffffffffffffffffffffffffffffffffffff169050600073ffffffffffffffffffffffffffffffffffffffff168173ffffffffffffffffffffffffffffffffffffffff161415611399576040517f08c379a000000000000000000000000000000000000000000000000000000000815260040161139090614bb0565b60405180910390fd5b8092505050919050565b6000806113ae612301565b9050600073ffffffffffffffffffffffffffffffffffffffff168373ffffffffffffffffffffffffffffffffffffffff161415611420576040517f08c379a000000000000000000000000000000000000000000000000000000000815260040161141790614c1c565b60405180910390fd5b8060040160008473ffffffffffffffffffffffffffffffffffffffff1673ffffffffffffffffffffffffffffffffffffffff16815260200190815260200160002054915050919050565b60606000611476612301565b90508060020180546114879061428f565b80601f01602080910402602001604051908101604052809291908181526020018280546114b39061428f565b80156115005780601f106114d557610100808354040283529160200191611500565b820191906000526020600020905b8154815290600101906020018083116114e357829003601f168201915b505050505091505090565b611516338383612b61565b5050565b80611524816112e2565b73ffffffffffffffffffffffffffffffffffffffff163373ffffffffffffffffffffffffffffffffffffffff1614611591576040517f08c379a00000000000000000000000000000000000000000000000000000000081526004016115889061439f565b60405180910390fd5b8161159b8161232e565b6115da576040517f08c379a00000000000000000000000000000000000000000000000000000000081526004016115d19061440b565b60405180910390fd5b60006115e4612301565b905060011515816000018581548110611600576115ff61442b565b5b906000526020600020906006020160050160009054906101000a900460ff16151514611661576040517f08c379a000000000000000000000000000000000000000000000000000000000815260040161165890614a38565b60405180910390fd5b60008160000185815481106116795761167861442b565b5b90600052602060002090600602016040518060c0016040529081600082015481526020016001820180546116ac9061428f565b80601f01602080910402602001604051908101604052809291908181526020018280546116d89061428f565b80156117255780601f106116fa57610100808354040283529160200191611725565b820191906000526020600020905b81548152906001019060200180831161170857829003601f168201915b5050505050815260200160028201805480602002602001604051908101604052809291908181526020016000905b828210156117ff5783829060005260206000200180546117729061428f565b80601f016020809104026020016040519081016040528092919081815260200182805461179e9061428f565b80156117eb5780601f106117c0576101008083540402835291602001916117eb565b820191906000526020600020905b8154815290600101906020018083116117ce57829003601f168201915b505050505081526020019060010190611753565b50505050815260200160038201548152602001600482015481526020016005820160009054906101000a900460ff161515151581525050905060008260000186815481106118505761184f61442b565b5b906000526020600020906006020160050160006101000a81548160ff021916908315150217905550600081608001514261188a9190614b0a565b9050600082606001518360000151836118a391906145aa565b6118ad91906145aa565b905060008460000188815481106118c7576118c661442b565b5b9060005260206000209060060201600401819055506118e63382612a07565b7f5bb69cf91a5fe5042a1dddb4665b7cdc9f36bfa7355be3174a35dac89df43a6c87600083876000018b815481106119215761192061442b565b5b906000526020600020906006020160405161193f9493929190614c3c565b60405180910390a150505050505050565b61195a3383612682565b611999576040517f08c379a0000000000000000000000000000000000000000000000000000000008152600401611990906149cc565b60405180910390fd5b6119a584848484612cdd565b50505050565b606060006119b7612301565b90506119c28361232e565b611a01576040517f08c379a00000000000000000000000000000000000000000000000000000000081526004016119f890614cfa565b60405180910390fd5b6000816000018481548110611a1957611a1861442b565b5b90600052602060002090600602016001018054611a359061428f565b80601f0160208091040260200160405190810160405280929190818152602001828054611a619061428f565b8015611aae5780601f10611a8357610100808354040283529160200191611aae565b820191906000526020600020905b815481529060010190602001808311611a9157829003601f168201915b505050505090506000611abf612d39565b90506000815111611adf5760405180602001604052806000815250611b02565b8082604051602001611af2929190614d56565b6040516020818303038152906040525b9350505050919050565b80611b16816112e2565b73ffffffffffffffffffffffffffffffffffffffff163373ffffffffffffffffffffffffffffffffffffffff1614611b83576040517f08c379a0000000000000000000000000000000000000000000000000000000008152600401611b7a9061439f565b60405180910390fd5b81611b8d8161232e565b611bcc576040517f08c379a0000000000000000000000000000000000000000000000000000000008152600401611bc39061440b565b60405180910390fd5b6000611bd6612301565b905060001515816000018581548110611bf257611bf161442b565b5b906000526020600020906006020160050160009054906101000a900460ff16151514611c53576040517f08c379a0000000000000000000000000000000000000000000000000000000008152600401611c4a90614dc6565b60405180910390fd5b6001816000018581548110611c6b57611c6a61442b565b5b906000526020600020906006020160050160006101000a81548160ff02191690831515021790555042816000018581548110611caa57611ca961442b565b5b9060005260206000209060060201600401819055507f0da3e9e731707ba42937bc4b0f86f285e0f0e197a033df78be0dc152b1e2509d846001836000018781548110611cf957611cf861442b565b5b9060005260206000209060060201604051611d1693929190614de6565b60405180910390a150505050565b6000611d2e612481565b90506000611d3a612d76565b90506000611d46612301565b905060018260050160003373ffffffffffffffffffffffffffffffffffffffff1673ffffffffffffffffffffffffffffffffffffffff168152602001908152602001600020541015611dcd576040517f08c379a0000000000000000000000000000000000000000000000000000000008152600401611dc490614e70565b60405180910390fd5b60c8836006015410611e14576040517f08c379a0000000000000000000000000000000000000000000000000000000008152600401611e0b90614edc565b60405180910390fd5b60018260050160003373ffffffffffffffffffffffffffffffffffffffff1673ffffffffffffffffffffffffffffffffffffffff1681526020019081526020016000206000828254611e669190614b0a565b925050819055506000611e77612da3565b90506000611e858287612ef5565b905060006040518060c001604052806001815260200183600081518110611eaf57611eae61442b565b5b602002602001015181526020018381526020018481526020016000815260200160001515815250905083600001819080600181540180825580915050600190039060005260206000209060060201600090919091909150600082015181600001556020820151816001019080519060200190611f2c92919061390a565b506040820151816002019080519060200190611f49929190613990565b50606082015181600301556080820151816004015560a08201518160050160006101000a81548160ff0219169083151502179055505050856006016000815480929190611f9590614561565b9190505550611fa383612ff1565b611fc03360018660000180549050611fbb9190614b0a565b613170565b7f33f55e39b5b394b47eacc42fbb4fc9c0e327107d2dd97eb3a9fac85d3ab35f02338560000180549050600084604051611ffd94939291906150bb565b60405180910390a150505050505050565b600080612019612301565b90508060060160008573ffffffffffffffffffffffffffffffffffffffff1673ffffffffffffffffffffffffffffffffffffffff16815260200190815260200160002060008473ffffffffffffffffffffffffffffffffffffffff1673ffffffffffffffffffffffffffffffffffffffff16815260200190815260200160002060009054906101000a900460ff1691505092915050565b60006120ba612481565b905060006120c6612301565b9050610320826005015410612110576040517f08c379a000000000000000000000000000000000000000000000000000000000815260040161210790615153565b60405180910390fd5b34612119610db2565b14612159576040517f08c379a0000000000000000000000000000000000000000000000000000000008152600401612150906151bf565b60405180910390fd5b6000612163612da3565b905060006121718286612ef5565b905060006040518060c00160405280600181526020018360008151811061219b5761219a61442b565b5b60200260200101518152602001838152602001848152602001600081526020016000151581525090508360000181908060018154018082558091505060019003906000526020600020906006020160009091909190915060008201518160000155602082015181600101908051906020019061221892919061390a565b506040820151816002019080519060200190612235929190613990565b50606082015181600301556080820151816004015560a08201518160050160006101000a81548160ff021916908315150217905550505084600501600081548092919061228190614561565b919050555061228f83612ff1565b6122ac33600186600001805490506122a79190614b0a565b613170565b6122b534613343565b7f33f55e39b5b394b47eacc42fbb4fc9c0e327107d2dd97eb3a9fac85d3ab35f0233856000018054905034846040516122f194939291906151df565b60405180910390a1505050505050565b6000807fa7dd434add67a973f5647cf03b4c2f6cf4bf5c1fc7f2ac8b3891ebb3133b346690508091505090565b600080612339612301565b9050600073ffffffffffffffffffffffffffffffffffffffff1681600301600085815260200190815260200160002060009054906101000a900473ffffffffffffffffffffffffffffffffffffffff1673ffffffffffffffffffffffffffffffffffffffff16146123ae5760019150506123b4565b60009150505b919050565b60006123c3612301565b90508281600501600084815260200190815260200160002060006101000a81548173ffffffffffffffffffffffffffffffffffffffff021916908373ffffffffffffffffffffffffffffffffffffffff160217905550818373ffffffffffffffffffffffffffffffffffffffff1661243a846112e2565b73ffffffffffffffffffffffffffffffffffffffff167f8c5be1e5ebec7d5bd14f71427d1e84f3dd0314c0f7b2291e5b200ac8c7c3b92560405160405180910390a4505050565b6000807f2a0147cf5b9ff63908d056e474ebe771e5673907c489029e386f7a5318ddf50190508091505090565b60006124b86129da565b9050600073ffffffffffffffffffffffffffffffffffffffff168373ffffffffffffffffffffffffffffffffffffffff16141561252a576040517f08c379a00000000000000000000000000000000000000000000000000000000081526004016125219061529d565b60405180910390fd5b60008160010160008573ffffffffffffffffffffffffffffffffffffffff1673ffffffffffffffffffffffffffffffffffffffff168152602001908152602001600020549050828110156125b3576040517f08c379a00000000000000000000000000000000000000000000000000000000081526004016125aa9061532f565b60405180910390fd5b8281038260010160008673ffffffffffffffffffffffffffffffffffffffff1673ffffffffffffffffffffffffffffffffffffffff168152602001908152602001600020819055508282600201600082825461260f9190614b0a565b92505081905550600073ffffffffffffffffffffffffffffffffffffffff168473ffffffffffffffffffffffffffffffffffffffff167fddf252ad1be2c89b69c2b068fc378daa952ba7f163c4a11628f55a4df523b3ef856040516126749190613c7a565b60405180910390a350505050565b600061268d8261232e565b6126cc576040517f08c379a00000000000000000000000000000000000000000000000000000000081526004016126c3906153c1565b60405180910390fd5b60006126d7836112e2565b90508073ffffffffffffffffffffffffffffffffffffffff168473ffffffffffffffffffffffffffffffffffffffff16148061274657508373ffffffffffffffffffffffffffffffffffffffff1661272e84610558565b73ffffffffffffffffffffffffffffffffffffffff16145b806127575750612756818561200e565b5b91505092915050565b600061276a612301565b90508373ffffffffffffffffffffffffffffffffffffffff1661278c836112e2565b73ffffffffffffffffffffffffffffffffffffffff16146127e2576040517f08c379a00000000000000000000000000000000000000000000000000000000081526004016127d990615453565b60405180910390fd5b600073ffffffffffffffffffffffffffffffffffffffff168373ffffffffffffffffffffffffffffffffffffffff161415612852576040517f08c379a0000000000000000000000000000000000000000000000000000000008152600401612849906154e5565b60405180910390fd5b61285d848484613414565b6128686000836123b9565b60018160040160008673ffffffffffffffffffffffffffffffffffffffff1673ffffffffffffffffffffffffffffffffffffffff16815260200190815260200160002060008282546128ba9190614b0a565b9250508190555060018160040160008573ffffffffffffffffffffffffffffffffffffffff1673ffffffffffffffffffffffffffffffffffffffff16815260200190815260200160002060008282546129139190615505565b925050819055508281600301600084815260200190815260200160002060006101000a81548173ffffffffffffffffffffffffffffffffffffffff021916908373ffffffffffffffffffffffffffffffffffffffff160217905550818373ffffffffffffffffffffffffffffffffffffffff168573ffffffffffffffffffffffffffffffffffffffff167fddf252ad1be2c89b69c2b068fc378daa952ba7f163c4a11628f55a4df523b3ef60405160405180910390a46129d4848484613419565b50505050565b6000807f1b091a9fb79d8a0a791074366f5ea0051fa79aed1deb4e83519829de6fb92bb190508091505090565b6000612a116129da565b9050600073ffffffffffffffffffffffffffffffffffffffff168373ffffffffffffffffffffffffffffffffffffffff161415612a83576040517f08c379a0000000000000000000000000000000000000000000000000000000008152600401612a7a906155a7565b60405180910390fd5b81816002016000828254612a979190615505565b92505081905550818160010160008573ffffffffffffffffffffffffffffffffffffffff1673ffffffffffffffffffffffffffffffffffffffff1681526020019081526020016000206000828254612aef9190615505565b925050819055508273ffffffffffffffffffffffffffffffffffffffff16600073ffffffffffffffffffffffffffffffffffffffff167fddf252ad1be2c89b69c2b068fc378daa952ba7f163c4a11628f55a4df523b3ef84604051612b549190613c7a565b60405180910390a3505050565b8173ffffffffffffffffffffffffffffffffffffffff168373ffffffffffffffffffffffffffffffffffffffff161415612bd0576040517f08c379a0000000000000000000000000000000000000000000000000000000008152600401612bc790615613565b60405180910390fd5b6000612bda612301565b9050818160060160008673ffffffffffffffffffffffffffffffffffffffff1673ffffffffffffffffffffffffffffffffffffffff16815260200190815260200160002060008573ffffffffffffffffffffffffffffffffffffffff1673ffffffffffffffffffffffffffffffffffffffff16815260200190815260200160002060006101000a81548160ff0219169083151502179055508273ffffffffffffffffffffffffffffffffffffffff168473ffffffffffffffffffffffffffffffffffffffff167f17307eab39ab6107e8899845ad3d59bd9653f200f220920489ca2b5937696c3184604051612ccf9190614245565b60405180910390a350505050565b612ce8848484612760565b612cf48484848461341e565b612d33576040517f08c379a0000000000000000000000000000000000000000000000000000000008152600401612d2a906156a5565b60405180910390fd5b50505050565b60606040518060400160405280601581526020017f68747470733a2f2f697066732e696f2f697066732f0000000000000000000000815250905090565b6000807f6bc844e8f78d8de9f3b120d94fd2efae4c9d3b45b2ddde509e79ee4515f298cc90508091505090565b600080612dae612481565b90506000816008015411612df7576040517f08c379a0000000000000000000000000000000000000000000000000000000008152600401612dee90614512565b60405180910390fd5b600060018260080154612e0a9190615505565b612e1261359f565b612e1c91906156f4565b9050600081118015612e32575081600101548111155b15612e4257600192505050612ef2565b816001015481118015612e59575081600201548111155b15612e6957600292505050612ef2565b816002015481118015612e80575081600301548111155b15612e9057600392505050612ef2565b816003015481118015612ea7575081600401548111155b15612eb757600492505050612ef2565b6040517f08c379a0000000000000000000000000000000000000000000000000000000008152600401612ee990615771565b60405180910390fd5b90565b606060058310612f3a576040517f08c379a0000000000000000000000000000000000000000000000000000000008152600401612f31906157dd565b60405180910390fd5b6001831415612f665781600081518110612f5757612f5661442b565b5b60200260200101519050612feb565b6002831415612f925781600181518110612f8357612f8261442b565b5b60200260200101519050612feb565b6003831415612fbe5781600281518110612faf57612fae61442b565b5b60200260200101519050612feb565b6004831415612fea5781600381518110612fdb57612fda61442b565b5b60200260200101519050612feb565b5b92915050565b6000612ffb612481565b905060018214156130735780600101600081548092919061301b906157fd565b9190505550806002016000815480929190613035906157fd565b919050555080600301600081548092919061304f906157fd565b9190505550806004016000815480929190613069906157fd565b9190505550613138565b60028214156130cf57806002016000815480929190613091906157fd565b91905055508060030160008154809291906130ab906157fd565b91905055508060040160008154809291906130c5906157fd565b9190505550613137565b6003821415613111578060030160008154809291906130ed906157fd565b9190505550806004016000815480929190613107906157fd565b9190505550613136565b60048214156131355780600401600081548092919061312f906157fd565b91905055505b5b5b5b80600001600081548092919061314d90614561565b9190505550806008016000815480929190613167906157fd565b91905055505050565b600061317a612301565b9050600073ffffffffffffffffffffffffffffffffffffffff168373ffffffffffffffffffffffffffffffffffffffff1614156131ec576040517f08c379a00000000000000000000000000000000000000000000000000000000081526004016131e390615873565b60405180910390fd5b6131f58261232e565b15613235576040517f08c379a000000000000000000000000000000000000000000000000000000000815260040161322c906158df565b60405180910390fd5b60018160040160008573ffffffffffffffffffffffffffffffffffffffff1673ffffffffffffffffffffffffffffffffffffffff16815260200190815260200160002060008282546132879190615505565b925050819055508281600301600084815260200190815260200160002060006101000a81548173ffffffffffffffffffffffffffffffffffffffff021916908373ffffffffffffffffffffffffffffffffffffffff160217905550818373ffffffffffffffffffffffffffffffffffffffff16600073ffffffffffffffffffffffffffffffffffffffff167fddf252ad1be2c89b69c2b068fc378daa952ba7f163c4a11628f55a4df523b3ef60405160405180910390a4505050565b600061334d6136b1565b9050600060028361335e91906158ff565b905060005b600281101561340e57818360000160008560010184600281106133895761338861442b565b5b0160009054906101000a900473ffffffffffffffffffffffffffffffffffffffff1673ffffffffffffffffffffffffffffffffffffffff1673ffffffffffffffffffffffffffffffffffffffff16815260200190815260200160002060008282546133f49190615505565b92505081905550808061340690614561565b915050613363565b50505050565b505050565b505050565b600061343f8473ffffffffffffffffffffffffffffffffffffffff166136de565b15613592578373ffffffffffffffffffffffffffffffffffffffff1663150b7a02338786866040518563ffffffff1660e01b81526004016134839493929190615985565b6020604051808303816000875af19250505080156134bf57506040513d601f19601f820116820180604052508101906134bc9190615a29565b60015b613542573d80600081146134ef576040519150601f19603f3d011682016040523d82523d6000602084013e6134f4565b606091505b5060008151141561353a576040517f08c379a0000000000000000000000000000000000000000000000000000000008152600401613531906156a5565b60405180910390fd5b805181602001fd5b63150b7a0260e01b7bffffffffffffffffffffffffffffffffffffffffffffffffffffffff1916817bffffffffffffffffffffffffffffffffffffffffffffffffffffffff191614915050613597565b600190505b949350505050565b6000806135aa613701565b905080600301548160040160009054906101000a900473ffffffffffffffffffffffffffffffffffffffff1673ffffffffffffffffffffffffffffffffffffffff166370a08231306040518263ffffffff1660e01b815260040161360e9190613be4565b602060405180830381865afa15801561362b573d6000803e3d6000fd5b505050506040513d601f19601f8201168201806040525081019061364f9190615a6b565b1015613690576040517f08c379a000000000000000000000000000000000000000000000000000000000815260040161368790615b0a565b60405180910390fd5b60006136a48260020154836003015461372e565b60001c9050809250505090565b6000807faaecf6edcf861fc17fc9c5b0a28686a3e50a6d0beadccbac12a685bd4ed4771790508091505090565b6000808273ffffffffffffffffffffffffffffffffffffffff163b119050919050565b6000807fcd0c49d5c8438d0944f64e0d3825bed3b606f318474213a77860c93bca5ed99990508091505090565b600080613739613701565b90508060040160009054906101000a900473ffffffffffffffffffffffffffffffffffffffff1673ffffffffffffffffffffffffffffffffffffffff16634000aea08260000160009054906101000a900473ffffffffffffffffffffffffffffffffffffffff16858760006040516020016137b5929190615b43565b6040516020818303038152906040526040518463ffffffff1660e01b81526004016137e293929190615b6c565b6020604051808303816000875af1158015613801573d6000803e3d6000fd5b505050506040513d601f19601f820116820180604052508101906138259190615bbf565b50600061384a856000308560060160008a81526020019081526020016000205461389b565b905060018260060160008781526020019081526020016000205461386e9190615505565b8260060160008781526020019081526020016000208190555061389185826138d7565b9250505092915050565b6000848484846040516020016138b49493929190615bec565b6040516020818303038152906040528051906020012060001c9050949350505050565b600082826040516020016138ec929190615c73565b60405160208183030381529060405280519060200120905092915050565b8280546139169061428f565b90600052602060002090601f016020900481019282613938576000855561397f565b82601f1061395157805160ff191683800117855561397f565b8280016001018555821561397f579182015b8281111561397e578251825591602001919060010190613963565b5b50905061398c91906139f0565b5090565b8280548282559060005260206000209081019282156139df579160200282015b828111156139de5782518290805190602001906139ce92919061390a565b50916020019190600101906139b0565b5b5090506139ec9190613a0d565b5090565b5b80821115613a095760008160009055506001016139f1565b5090565b5b80821115613a2d5760008181613a249190613a31565b50600101613a0e565b5090565b508054613a3d9061428f565b6000825580601f10613a4f5750613a6e565b601f016020900490600052602060002090810190613a6d91906139f0565b5b50565b600081519050919050565b600082825260208201905092915050565b60005b83811015613aab578082015181840152602081019050613a90565b83811115613aba576000848401525b50505050565b6000601f19601f8301169050919050565b6000613adc82613a71565b613ae68185613a7c565b9350613af6818560208601613a8d565b613aff81613ac0565b840191505092915050565b60006020820190508181036000830152613b248184613ad1565b905092915050565b6000604051905090565b600080fd5b600080fd5b6000819050919050565b613b5381613b40565b8114613b5e57600080fd5b50565b600081359050613b7081613b4a565b92915050565b600060208284031215613b8c57613b8b613b36565b5b6000613b9a84828501613b61565b91505092915050565b600073ffffffffffffffffffffffffffffffffffffffff82169050919050565b6000613bce82613ba3565b9050919050565b613bde81613bc3565b82525050565b6000602082019050613bf96000830184613bd5565b92915050565b613c0881613bc3565b8114613c1357600080fd5b50565b600081359050613c2581613bff565b92915050565b60008060408385031215613c4257613c41613b36565b5b6000613c5085828601613c16565b9250506020613c6185828601613b61565b9150509250929050565b613c7481613b40565b82525050565b6000602082019050613c8f6000830184613c6b565b92915050565b600080600060608486031215613cae57613cad613b36565b5b6000613cbc86828701613c16565b9350506020613ccd86828701613c16565b9250506040613cde86828701613b61565b9150509250925092565b600060208284031215613cfe57613cfd613b36565b5b6000613d0c84828501613c16565b91505092915050565b60008115159050919050565b613d2a81613d15565b8114613d3557600080fd5b50565b600081359050613d4781613d21565b92915050565b60008060408385031215613d6457613d63613b36565b5b6000613d7285828601613c16565b9250506020613d8385828601613d38565b9150509250929050565b600080fd5b600080fd5b7f4e487b7100000000000000000000000000000000000000000000000000000000600052604160045260246000fd5b613dcf82613ac0565b810181811067ffffffffffffffff82111715613dee57613ded613d97565b5b80604052505050565b6000613e01613b2c565b9050613e0d8282613dc6565b919050565b600067ffffffffffffffff821115613e2d57613e2c613d97565b5b613e3682613ac0565b9050602081019050919050565b82818337600083830152505050565b6000613e65613e6084613e12565b613df7565b905082815260208101848484011115613e8157613e80613d92565b5b613e8c848285613e43565b509392505050565b600082601f830112613ea957613ea8613d8d565b5b8135613eb9848260208601613e52565b91505092915050565b60008060008060808587031215613edc57613edb613b36565b5b6000613eea87828801613c16565b9450506020613efb87828801613c16565b9350506040613f0c87828801613b61565b925050606085013567ffffffffffffffff811115613f2d57613f2c613b3b565b5b613f3987828801613e94565b91505092959194509250565b600067ffffffffffffffff821115613f6057613f5f613d97565b5b602082029050602081019050919050565b600080fd5b600067ffffffffffffffff821115613f9157613f90613d97565b5b602082029050602081019050919050565b600067ffffffffffffffff821115613fbd57613fbc613d97565b5b613fc682613ac0565b9050602081019050919050565b6000613fe6613fe184613fa2565b613df7565b90508281526020810184848401111561400257614001613d92565b5b61400d848285613e43565b509392505050565b600082601f83011261402a57614029613d8d565b5b813561403a848260208601613fd3565b91505092915050565b600061405661405184613f76565b613df7565b9050808382526020820190506020840283018581111561407957614078613f71565b5b835b818110156140c057803567ffffffffffffffff81111561409e5761409d613d8d565b5b8086016140ab8982614015565b8552602085019450505060208101905061407b565b5050509392505050565b600082601f8301126140df576140de613d8d565b5b81356140ef848260208601614043565b91505092915050565b600061410b61410684613f45565b613df7565b9050808382526020820190506020840283018581111561412e5761412d613f71565b5b835b8181101561417557803567ffffffffffffffff81111561415357614152613d8d565b5b80860161416089826140ca565b85526020850194505050602081019050614130565b5050509392505050565b600082601f83011261419457614193613d8d565b5b81356141a48482602086016140f8565b91505092915050565b6000602082840312156141c3576141c2613b36565b5b600082013567ffffffffffffffff8111156141e1576141e0613b3b565b5b6141ed8482850161417f565b91505092915050565b6000806040838503121561420d5761420c613b36565b5b600061421b85828601613c16565b925050602061422c85828601613c16565b9150509250929050565b61423f81613d15565b82525050565b600060208201905061425a6000830184614236565b92915050565b7f4e487b7100000000000000000000000000000000000000000000000000000000600052602260045260246000fd5b600060028204905060018216806142a757607f821691505b602082108114156142bb576142ba614260565b5b50919050565b7f4552433732313a20617070726f76656420717565727920666f72206e6f6e657860008201527f697374656e7420746f6b656e0000000000000000000000000000000000000000602082015250565b600061431d602c83613a7c565b9150614328826142c1565b604082019050919050565b6000602082019050818103600083015261434c81614310565b9050919050565b7f6e6f74206f776e65720000000000000000000000000000000000000000000000600082015250565b6000614389600983613a7c565b915061439482614353565b602082019050919050565b600060208201905081810360008301526143b88161437c565b9050919050565b7f4e465420646f65736e2774206578697374000000000000000000000000000000600082015250565b60006143f5601183613a7c565b9150614400826143bf565b602082019050919050565b60006020820190508181036000830152614424816143e8565b9050919050565b7f4e487b7100000000000000000000000000000000000000000000000000000000600052603260045260246000fd5b7f6d6178206c766c00000000000000000000000000000000000000000000000000600082015250565b6000614490600783613a7c565b915061449b8261445a565b602082019050919050565b600060208201905081810360008301526144bf81614483565b9050919050565b7f6c696d6974207265616368656400000000000000000000000000000000000000600082015250565b60006144fc600d83613a7c565b9150614507826144c6565b602082019050919050565b6000602082019050818103600083015261452b816144ef565b9050919050565b7f4e487b7100000000000000000000000000000000000000000000000000000000600052601160045260246000fd5b600061456c82613b40565b91507fffffffffffffffffffffffffffffffffffffffffffffffffffffffffffffffff82141561459f5761459e614532565b5b600182019050919050565b60006145b582613b40565b91506145c083613b40565b9250817fffffffffffffffffffffffffffffffffffffffffffffffffffffffffffffffff04831182151516156145f9576145f8614532565b5b828202905092915050565b60008160001c9050919050565b6000819050919050565b600061462e61462983614604565b614611565b9050919050565b61463e81613b40565b82525050565b600082825260208201905092915050565b60008190508160005260206000209050919050565b600081546146778161428f565b6146818186614644565b9450600182166000811461469c57600181146146ae576146e1565b60ff19831686526020860193506146e1565b6146b785614655565b60005b838110156146d9578154818901526001820191506020810190506146ba565b808801955050505b50505092915050565b600081549050919050565b600082825260208201905092915050565b60008190508160005260206000209050919050565b6000614727838361466a565b905092915050565b6000600182019050919050565b6000614747826146ea565b61475181856146f5565b93508360208202850161476385614706565b8060005b8581101561479e5784840389528161477f858261471b565b945061478a8361472f565b925060208a01995050600181019050614767565b50829750879550505050505092915050565b600060ff82169050919050565b60006147d06147cb83614604565b6147b0565b9050919050565b6147e081613d15565b82525050565b600060c0830160008084015490506147fd8161461b565b61480a6000870182614635565b50600184018583036020870152614821838261466a565b92505060028401858303604087015261483a838261473c565b9250506003840154905061484d8161461b565b61485a6060870182614635565b506004840154905061486b8161461b565b6148786080870182614635565b5060058401549050614889816147bd565b61489660a08701826147d7565b50819250505092915050565b60006080820190506148b76000830187613c6b565b6148c46020830186613c6b565b6148d16040830185613c6b565b81810360608301526148e381846147e6565b905095945050505050565b7f4d696e7420656e64656400000000000000000000000000000000000000000000600082015250565b6000614924600a83613a7c565b915061492f826148ee565b602082019050919050565b6000602082019050818103600083015261495381614917565b9050919050565b7f4552433732313a207472616e736665722063616c6c6572206973206e6f74206f60008201527f776e6572206e6f7220617070726f766564000000000000000000000000000000602082015250565b60006149b6603183613a7c565b91506149c18261495a565b604082019050919050565b600060208201905081810360008301526149e5816149a9565b9050919050565b7f6e6f74207374616b656400000000000000000000000000000000000000000000600082015250565b6000614a22600a83613a7c565b9150614a2d826149ec565b602082019050919050565b60006020820190508181036000830152614a5181614a15565b9050919050565b50565b6000614a68600083613a7c565b9150614a7382614a58565b600082019050919050565b60006020820190508181036000830152614a9781614a5b565b9050919050565b7f6e6f20737461726d000000000000000000000000000000000000000000000000600082015250565b6000614ad4600883613a7c565b9150614adf82614a9e565b602082019050919050565b60006020820190508181036000830152614b0381614ac7565b9050919050565b6000614b1582613b40565b9150614b2083613b40565b925082821015614b3357614b32614532565b5b828203905092915050565b7f4552433732313a206f776e657220717565727920666f72206e6f6e657869737460008201527f656e7420746f6b656e0000000000000000000000000000000000000000000000602082015250565b6000614b9a602983613a7c565b9150614ba582614b3e565b604082019050919050565b60006020820190508181036000830152614bc981614b8d565b9050919050565b7f7a65726f20616464726573730000000000000000000000000000000000000000600082015250565b6000614c06600c83613a7c565b9150614c1182614bd0565b602082019050919050565b60006020820190508181036000830152614c3581614bf9565b9050919050565b6000608082019050614c516000830187613c6b565b614c5e6020830186614236565b614c6b6040830185613c6b565b8181036060830152614c7d81846147e6565b905095945050505050565b7f4552433732314d657461646174613a2055524920717565727920666f72206e6f60008201527f6e6578697374656e7420746f6b656e0000000000000000000000000000000000602082015250565b6000614ce4602f83613a7c565b9150614cef82614c88565b604082019050919050565b60006020820190508181036000830152614d1381614cd7565b9050919050565b600081905092915050565b6000614d3082613a71565b614d3a8185614d1a565b9350614d4a818560208601613a8d565b80840191505092915050565b6000614d628285614d25565b9150614d6e8284614d25565b91508190509392505050565b7f7374616b696e6700000000000000000000000000000000000000000000000000600082015250565b6000614db0600783613a7c565b9150614dbb82614d7a565b602082019050919050565b60006020820190508181036000830152614ddf81614da3565b9050919050565b6000606082019050614dfb6000830186613c6b565b614e086020830185614236565b8181036040830152614e1a81846147e6565b9050949350505050565b7f6e6f207469636b65747300000000000000000000000000000000000000000000600082015250565b6000614e5a600a83613a7c565b9150614e6582614e24565b602082019050919050565b60006020820190508181036000830152614e8981614e4d565b9050919050565b7f4e6f206d6f7265206c6f74746572696573000000000000000000000000000000600082015250565b6000614ec6601183613a7c565b9150614ed182614e90565b602082019050919050565b60006020820190508181036000830152614ef581614eb9565b9050919050565b6000819050919050565b6000819050919050565b6000614f2b614f26614f2184614efc565b614f06565b613b40565b9050919050565b614f3b81614f10565b82525050565b6000614f4c82613a71565b614f568185614644565b9350614f66818560208601613a8d565b614f6f81613ac0565b840191505092915050565b600081519050919050565b6000819050602082019050919050565b6000614fa18383614f41565b905092915050565b6000602082019050919050565b6000614fc182614f7a565b614fcb81856146f5565b935083602082028501614fdd85614f85565b8060005b858110156150195784840389528151614ffa8582614f95565b945061500583614fa9565b925060208a01995050600181019050614fe1565b50829750879550505050505092915050565b600060c0830160008301516150436000860182614635565b506020830151848203602086015261505b8282614f41565b915050604083015184820360408601526150758282614fb6565b915050606083015161508a6060860182614635565b50608083015161509d6080860182614635565b5060a08301516150b060a08601826147d7565b508091505092915050565b60006080820190506150d06000830187613bd5565b6150dd6020830186613c6b565b6150ea6040830185614f32565b81810360608301526150fc818461502b565b905095945050505050565b7f616c6c206d696e74656400000000000000000000000000000000000000000000600082015250565b600061513d600a83613a7c565b915061514882615107565b602082019050919050565b6000602082019050818103600083015261516c81615130565b9050919050565b7f6e6f7420656e6f75676820657468657200000000000000000000000000000000600082015250565b60006151a9601083613a7c565b91506151b482615173565b602082019050919050565b600060208201905081810360008301526151d88161519c565b9050919050565b60006080820190506151f46000830187613bd5565b6152016020830186613c6b565b61520e6040830185613c6b565b8181036060830152615220818461502b565b905095945050505050565b7f45524332303a206275726e2066726f6d20746865207a65726f2061646472657360008201527f7300000000000000000000000000000000000000000000000000000000000000602082015250565b6000615287602183613a7c565b91506152928261522b565b604082019050919050565b600060208201905081810360008301526152b68161527a565b9050919050565b7f45524332303a206275726e20616d6f756e7420657863656564732062616c616e60008201527f6365000000000000000000000000000000000000000000000000000000000000602082015250565b6000615319602283613a7c565b9150615324826152bd565b604082019050919050565b600060208201905081810360008301526153488161530c565b9050919050565b7f4552433732313a206f70657261746f7220717565727920666f72206e6f6e657860008201527f697374656e7420746f6b656e0000000000000000000000000000000000000000602082015250565b60006153ab602c83613a7c565b91506153b68261534f565b604082019050919050565b600060208201905081810360008301526153da8161539e565b9050919050565b7f4552433732313a207472616e736665722066726f6d20696e636f72726563742060008201527f6f776e6572000000000000000000000000000000000000000000000000000000602082015250565b600061543d602583613a7c565b9150615448826153e1565b604082019050919050565b6000602082019050818103600083015261546c81615430565b9050919050565b7f4552433732313a207472616e7366657220746f20746865207a65726f2061646460008201527f7265737300000000000000000000000000000000000000000000000000000000602082015250565b60006154cf602483613a7c565b91506154da82615473565b604082019050919050565b600060208201905081810360008301526154fe816154c2565b9050919050565b600061551082613b40565b915061551b83613b40565b9250827fffffffffffffffffffffffffffffffffffffffffffffffffffffffffffffffff038211156155505761554f614532565b5b828201905092915050565b7f45524332303a206d696e7420746f20746865207a65726f206164647265737300600082015250565b6000615591601f83613a7c565b915061559c8261555b565b602082019050919050565b600060208201905081810360008301526155c081615584565b9050919050565b7f4552433732313a20617070726f766520746f2063616c6c657200000000000000600082015250565b60006155fd601983613a7c565b9150615608826155c7565b602082019050919050565b6000602082019050818103600083015261562c816155f0565b9050919050565b7f4552433732313a207472616e7366657220746f206e6f6e20455243373231526560008201527f63656976657220696d706c656d656e7465720000000000000000000000000000602082015250565b600061568f603283613a7c565b915061569a82615633565b604082019050919050565b600060208201905081810360008301526156be81615682565b9050919050565b7f4e487b7100000000000000000000000000000000000000000000000000000000600052601260045260246000fd5b60006156ff82613b40565b915061570a83613b40565b92508261571a576157196156c5565b5b828206905092915050565b7f6e6f7420696e207468652073636f706500000000000000000000000000000000600082015250565b600061575b601083613a7c565b915061576682615725565b602082019050919050565b6000602082019050818103600083015261578a8161574e565b9050919050565b7f5249206e6f74206578697374696e670000000000000000000000000000000000600082015250565b60006157c7600f83613a7c565b91506157d282615791565b602082019050919050565b600060208201905081810360008301526157f6816157ba565b9050919050565b600061580882613b40565b9150600082141561581c5761581b614532565b5b600182039050919050565b7f4552433732313a206d696e7420746f20746865207a65726f2061646472657373600082015250565b600061585d602083613a7c565b915061586882615827565b602082019050919050565b6000602082019050818103600083015261588c81615850565b9050919050565b7f4552433732313a20746f6b656e20616c7265616479206d696e74656400000000600082015250565b60006158c9601c83613a7c565b91506158d482615893565b602082019050919050565b600060208201905081810360008301526158f8816158bc565b9050919050565b600061590a82613b40565b915061591583613b40565b925082615925576159246156c5565b5b828204905092915050565b600081519050919050565b600082825260208201905092915050565b600061595782615930565b615961818561593b565b9350615971818560208601613a8d565b61597a81613ac0565b840191505092915050565b600060808201905061599a6000830187613bd5565b6159a76020830186613bd5565b6159b46040830185613c6b565b81810360608301526159c6818461594c565b905095945050505050565b60007fffffffff0000000000000000000000000000000000000000000000000000000082169050919050565b615a06816159d1565b8114615a1157600080fd5b50565b600081519050615a23816159fd565b92915050565b600060208284031215615a3f57615a3e613b36565b5b6000615a4d84828501615a14565b91505092915050565b600081519050615a6581613b4a565b92915050565b600060208284031215615a8157615a80613b36565b5b6000615a8f84828501615a56565b91505092915050565b7f4e6f7420656e6f756768204c494e4b202d2066696c6c20636f6e74726163742060008201527f7769746820666175636574000000000000000000000000000000000000000000602082015250565b6000615af4602b83613a7c565b9150615aff82615a98565b604082019050919050565b60006020820190508181036000830152615b2381615ae7565b9050919050565b6000819050919050565b615b3d81615b2a565b82525050565b6000604082019050615b586000830185615b34565b615b656020830184613c6b565b9392505050565b6000606082019050615b816000830186613bd5565b615b8e6020830185613c6b565b8181036040830152615ba0818461594c565b9050949350505050565b600081519050615bb981613d21565b92915050565b600060208284031215615bd557615bd4613b36565b5b6000615be384828501615baa565b91505092915050565b6000608082019050615c016000830187615b34565b615c0e6020830186613c6b565b615c1b6040830185613bd5565b615c286060830184613c6b565b95945050505050565b6000819050919050565b615c4c615c4782615b2a565b615c31565b82525050565b6000819050919050565b615c6d615c6882613b40565b615c52565b82525050565b6000615c7f8285615c3b565b602082019150615c8f8284615c5c565b602082019150819050939250505056fea264697066735822122048f562bfa512b97050a4477d59b6a930b2f565cb2904698f467b46f8b53b8e8864736f6c634300080b0033",
  "immutableReferences": {},
  "source": "//SPDX-License-Identifier: MIT\npragma solidity 0.8.11;\n\nimport {\n    Dixel,\n    LibDixel\n} from \"../libraries/LibDixel.sol\";\nimport {\n    LibLottery\n} from \"../libraries/LibLottery.sol\";\nimport {\n    LibStarm\n} from \"../libraries/LibStarm.sol\";\nimport {\n    LibOracle\n} from \"../libraries/LibOracle.sol\";\nimport \"../ERC721.sol\";\n\ncontract DixelFacet is ERC721 {\n    /**\n     * @dev is emitted when a Dixel is created\n     */\n    event DixelMinted(address _minter, uint _id, uint _mintPrice, Dixel _dixel);\n\n    /**\n     * @dev is emitted when a Dixel is put in staking\n     */\n    event Staking(uint _id, bool _isStaked, Dixel _dixel);\n\n    /**\n     * @dev is emitted when a Dixel is unStaked\n     */\n    event UnStaking(uint _id, bool _isStaked, uint _starmProduced, Dixel _dixel);\n\n    /**\n     * @dev is emitted when a Dixel is leveled up\n     */\n    event LevelUp(uint _tokenId, uint _oldLevel, uint _newLevel, Dixel _dixel);\n\n    event GenRandom(uint256 randomNum);\n\n    modifier isOwner(uint _tokenId) {\n        require(msg.sender == ownerOf(_tokenId), \"not owner\");\n        _;\n    }\n\n    modifier exists(uint _tokenId) {\n        require(_exists(_tokenId), \"NFT doesn't exist\");\n        _;\n    }\n\n\n    /**\n     * @dev sets the price of the mint in function of the current supply\n     */\n    function getDixelPrice() public view returns(uint256) {\n        LibDixel.SupplyStorage storage supplies = LibDixel.supplyStorage();\n        uint currentSupply = supplies.mintedSupply;\n        require(currentSupply <= LibDixel.maxMintedSupply, \"Mint ended\");\n        if (currentSupply >= 1850) {\n            return 100000000000000000; // 1850  - 1880 0.1ETH\n        } else if (currentSupply >= 1700) {\n            return 80000000000000000; // 1700 - 1850 0.08 ETH\n        } else if (currentSupply >= 1150) {\n            return 60000000000000000; // 1150 - 1700 0.06 ETH\n        } else if (currentSupply >= 650) {\n            return 50000000000000000; // 650 - 1150 0.05 ETH\n        } else if (currentSupply >= 250) {\n            return 30000000000000000; // 250 - 650 0.03 ETH\n        } else {\n            return 10000000000000000; // 0 - 250 0.01 ETH\n        }\n    }\n\n\n    /**\n     * @dev allow to mint a new Dixel for a price set in getDixelPrice()\n     * @dev there is a security issue with the addresses as anyone\n     * @param _addresses set of URI addresses for the future NFT's addresses.\n     * Emits a {DixelMinted} event\n     */\n    function mintDixel(string[][] memory _addresses) external payable {\n        LibDixel.SupplyStorage storage supplies = LibDixel.supplyStorage();\n        LibDixel.DixelStorage storage ds = LibDixel.dixelStorage();\n        require(supplies.mintedSupply< LibDixel.maxMintedSupply, \"all minted\");\n        require(getDixelPrice() == msg.value, \"not enough ether\");\n        uint rarity = LibDixel.genRarity();\n        string[] memory mAddressArray = LibDixel.assignAddress(rarity, _addresses);\n        Dixel memory tempDix = Dixel(1, mAddressArray[0], mAddressArray, rarity, 0, false);\n        ds.dixels.push(tempDix);\n        supplies.mintedSupply++;\n        LibDixel.changeSupplies(rarity);\n        mint(msg.sender, ds.dixels.length - 1);\n        LibDixel.fundCreators(msg.value);\n        emit DixelMinted(msg.sender, ds.dixels.length, msg.value, tempDix);\n    }\n\n\n    /**\n     * @dev mint a Dixel for free with a won lottery ticket. User will still have to pay gas fee\n     * @dev there is a security issue with the addresses as anyone\n     * @param _addresses set of URI addresses for the future NFT's addresses.\n     *\n     * Emits a {DixelMinted} event\n     */\n    function mintFreeDixel(string[][] memory _addresses) external {\n        LibDixel.SupplyStorage storage supplies = LibDixel.supplyStorage();\n        LibLottery.LotteryStorage storage ls = LibLottery.lotteryStorage();\n        LibDixel.DixelStorage storage ds = LibDixel.dixelStorage();\n        require(ls.freeMintTickets[msg.sender] >= 1, \"no tickets\");\n        require(supplies.lotterySupply < LibDixel.maxLotteryMintedSupply, \"No more lotteries\");\n\n        ls.freeMintTickets[msg.sender] -= 1;\n        uint rarity = LibDixel.genRarity();\n        string[] memory mAddressArray = LibDixel.assignAddress(rarity, _addresses);\n        Dixel memory tempDix = Dixel(1, mAddressArray[0], mAddressArray, rarity, 0, false);\n        ds.dixels.push(tempDix);\n        supplies.lotterySupply++;\n        LibDixel.changeSupplies(rarity);\n        mint(msg.sender, ds.dixels.length - 1);\n        emit DixelMinted(msg.sender, ds.dixels.length, 0, tempDix);\n    }\n\n    /**\n     * @dev overriden function to set the base URI to ipfs\n     */\n    function _baseURI() internal override pure returns(string memory) {\n        return \"https://ipfs.io/ipfs/\";\n    }\n\n    /**\n     * @dev overiden function to set ipfs metadata's address hash\n     */\n    function tokenURI(uint256 tokenId) public override view returns(string memory) {\n        LibDixel.DixelStorage storage ds = LibDixel.dixelStorage();\n        require(_exists(tokenId), \"ERC721Metadata: URI query for nonexistent token\");\n        string memory mAddress = ds.dixels[tokenId].URI;\n        string memory baseURI = _baseURI();\n        return bytes(baseURI).length > 0 ?\n            string(abi.encodePacked(baseURI, mAddress)) :\n            '';\n    }\n\n    /**\n    * @notice Stake a NFT to produce starm\n    * @param _tokenId the id of the NFT to stake \n    ** Emits a {Staking} event\n    */ \n    function stakeDix(uint _tokenId) external isOwner(_tokenId) exists(_tokenId){\n        LibDixel.DixelStorage storage ds = LibDixel.dixelStorage();\n        require(ds.dixels[_tokenId].staked == false, \"staking\");\n        ds.dixels[_tokenId].staked = true;\n        ds.dixels[_tokenId].stakeInitTime = block.timestamp;\n\n        emit Staking(_tokenId, true, ds.dixels[_tokenId]);\n    }\n\n    /**\n     * @dev unStake chosen dixel and rewards minted starm to user\n     * @param _tokenId the Dixel to unstake\n     *\n     ** Emits a {UnStaking} event\n     */\n    function unStakeDix(uint _tokenId) external isOwner(_tokenId) exists(_tokenId) {\n        LibDixel.DixelStorage storage ds = LibDixel.dixelStorage();\n        require(ds.dixels[_tokenId].staked == true, \"not staked\");\n        Dixel memory dixel = ds.dixels[_tokenId];\n        ds.dixels[_tokenId].staked = false;\n        uint stakedTime = block.timestamp - dixel.stakeInitTime;\n        uint StarmToMint = stakedTime * (dixel.level) * (dixel.rarity);\n        ds.dixels[_tokenId].stakeInitTime = 0;\n        LibStarm._mintStarm(msg.sender, StarmToMint);\n        emit UnStaking(_tokenId, false, StarmToMint, ds.dixels[_tokenId]);\n    }\n\n    /**\n     * @dev level up a Dixel for a cost of Starm\n     * @param _tokenId the Dixel to level up\n     *\n     * Emits a {LevelUp} event\n     */\n    function levelUp(uint _tokenId) external isOwner(_tokenId) exists(_tokenId) {\n        LibDixel.SupplyStorage storage supplies = LibDixel.supplyStorage();\n        LibDixel.DixelStorage storage ds = LibDixel.dixelStorage();\n        Dixel memory dixel = ds.dixels[_tokenId];\n        require(ds.dixels[_tokenId].level < 5 , \"max lvl\");\n\n        if (dixel.level == 4) {\n            require(supplies.collectorsSupply <= LibDixel.maxCollectors, \"limit reached\");\n            supplies.collectorsSupply++;\n        }\n        uint oldLevel = dixel.level;\n        dixel.URI = dixel.levelURI[dixel.level];\n        dixel.level++;\n        ds.dixels[_tokenId] = dixel;\n        LibStarm._burnStarm(msg.sender, dixel.level * 1000);\n        tokenURI(_tokenId);\n        emit LevelUp(_tokenId, oldLevel, dixel.level, ds.dixels[_tokenId]);\n    }\n\n    /**\n    * @notice withdraw starm produced by one staked NFT\n    * @param _tokenId id of the staked NFT to withdraw the produced starm from\n    */\n        function withdrawProducedStarm(uint _tokenId) external {\n        LibDixel.DixelStorage storage ds = LibDixel.dixelStorage();\n        LibStarm.StarmStorage storage ss = LibStarm.starmStorage();\n        Dixel memory dixel = ds.dixels[_tokenId];\n        uint currentBlockTime = block.timestamp;\n\n        require(ds.dixels[_tokenId].staked == true, \"not staked\");\n        require(currentBlockTime >= dixel.stakeInitTime, \"\");\n        require(ss.starmToWithdraw[msg.sender] != 0, \"no starm\");\n\n        uint stakedTime = currentBlockTime - dixel.stakeInitTime;\n        uint StarmToMint = stakedTime * (dixel.level) * (dixel.rarity); // FIXME: staking formula must be changed for mainnet deployment\n\n        LibStarm._mintStarm(msg.sender, StarmToMint);\n        ds.dixels[_tokenId].stakeInitTime = currentBlockTime;\n    }\n\n}",
  "sourcePath": "/home/torof/blockchain-developer-bootcamp-final-project/contracts/facets/DixelFacet.sol",
  "compiler": {
    "name": "solc",
    "version": "0.8.11+commit.d7f03943.Emscripten.clang"
  },
  "schemaVersion": "3.4.4",
  "updatedAt": "2022-02-02T16:58:03.417Z",
  "networkType": "ethereum",
  "devdoc": {
    "events": {
      "DixelMinted(address,uint256,uint256,(uint256,string,string[],uint256,uint256,bool))": {
        "details": "is emitted when a Dixel is created"
      },
      "LevelUp(uint256,uint256,uint256,(uint256,string,string[],uint256,uint256,bool))": {
        "details": "is emitted when a Dixel is leveled up"
      },
      "Staking(uint256,bool,(uint256,string,string[],uint256,uint256,bool))": {
        "details": "is emitted when a Dixel is put in staking"
      },
      "UnStaking(uint256,bool,uint256,(uint256,string,string[],uint256,uint256,bool))": {
        "details": "is emitted when a Dixel is unStaked"
      }
    },
    "kind": "dev",
    "methods": {
      "approve(address,uint256)": {
        "details": "Gives permission to `to` to transfer `tokenId` token to another account. The approval is cleared when the token is transferred. Only a single account can be approved at a time, so approving the zero address clears previous approvals. Requirements: - The caller must own the token or be an approved operator. - `tokenId` must exist. Emits an {Approval} event."
      },
      "balanceOf(address)": {
        "details": "Returns the number of tokens in ``owner``'s account."
      },
      "getApproved(uint256)": {
        "details": "Returns the account approved for `tokenId` token. Requirements: - `tokenId` must exist."
      },
      "getDixelPrice()": {
        "details": "sets the price of the mint in function of the current supply"
      },
      "isApprovedForAll(address,address)": {
        "details": "Returns if the `operator` is allowed to manage all of the assets of `owner`. See {setApprovalForAll}"
      },
      "levelUp(uint256)": {
        "details": "level up a Dixel for a cost of Starm",
        "params": {
          "_tokenId": "the Dixel to level up Emits a {LevelUp} event"
        }
      },
      "mintDixel(string[][])": {
        "details": "allow to mint a new Dixel for a price set in getDixelPrice()there is a security issue with the addresses as anyone",
        "params": {
          "_addresses": "set of URI addresses for the future NFT's addresses. Emits a {DixelMinted} event"
        }
      },
      "mintFreeDixel(string[][])": {
        "details": "mint a Dixel for free with a won lottery ticket. User will still have to pay gas feethere is a security issue with the addresses as anyone",
        "params": {
          "_addresses": "set of URI addresses for the future NFT's addresses. Emits a {DixelMinted} event"
        }
      },
      "ownerOf(uint256)": {
        "details": "Returns the owner of the `tokenId` token. Requirements: - `tokenId` must exist."
      },
      "safeTransferFrom(address,address,uint256)": {
        "details": "Safely transfers `tokenId` token from `from` to `to`, checking first that contract recipients are aware of the ERC721 protocol to prevent tokens from being forever locked. Requirements: - `from` cannot be the zero address. - `to` cannot be the zero address. - `tokenId` token must exist and be owned by `from`. - If the caller is not `from`, it must be have been allowed to move this token by either {approve} or {setApprovalForAll}. - If `to` refers to a smart contract, it must implement {IERC721Receiver-onERC721Received}, which is called upon a safe transfer. Emits a {Transfer} event."
      },
      "safeTransferFrom(address,address,uint256,bytes)": {
        "details": "Safely transfers `tokenId` token from `from` to `to`. Requirements: - `from` cannot be the zero address. - `to` cannot be the zero address. - `tokenId` token must exist and be owned by `from`. - If the caller is not `from`, it must be approved to move this token by either {approve} or {setApprovalForAll}. - If `to` refers to a smart contract, it must implement {IERC721Receiver-onERC721Received}, which is called upon a safe transfer. Emits a {Transfer} event."
      },
      "setApprovalForAll(address,bool)": {
        "details": "Approve or remove `operator` as an operator for the caller. Operators can call {transferFrom} or {safeTransferFrom} for any token owned by the caller. Requirements: - The `operator` cannot be the caller. Emits an {ApprovalForAll} event."
      },
      "stakeDix(uint256)": {
        "params": {
          "_tokenId": "the id of the NFT to stake ** Emits a {Staking} event"
        }
      },
      "tokenURI(uint256)": {
        "details": "overiden function to set ipfs metadata's address hash"
      },
      "transferFrom(address,address,uint256)": {
        "details": "Transfers `tokenId` token from `from` to `to`. WARNING: Usage of this method is discouraged, use {safeTransferFrom} whenever possible. Requirements: - `from` cannot be the zero address. - `to` cannot be the zero address. - `tokenId` token must be owned by `from`. - If the caller is not `from`, it must be approved to move this token by either {approve} or {setApprovalForAll}. Emits a {Transfer} event."
      },
      "unStakeDix(uint256)": {
        "details": "unStake chosen dixel and rewards minted starm to user",
        "params": {
          "_tokenId": "the Dixel to unstake** Emits a {UnStaking} event"
        }
      },
      "withdrawProducedStarm(uint256)": {
        "params": {
          "_tokenId": "id of the staked NFT to withdraw the produced starm from"
        }
      }
    },
    "version": 1
  },
  "userdoc": {
    "kind": "user",
    "methods": {
      "stakeDix(uint256)": {
        "notice": "Stake a NFT to produce starm"
      },
      "withdrawProducedStarm(uint256)": {
        "notice": "withdraw starm produced by one staked NFT"
      }
    },
    "version": 1
  }
}