{
  "contractName": "ERC721",
  "abi": [
    {
      "anonymous": false,
      "inputs": [
        {
          "indexed": true,
          "internalType": "address",
          "name": "owner",
          "type": "address"
        },
        {
          "indexed": true,
          "internalType": "address",
          "name": "approved",
          "type": "address"
        },
        {
          "indexed": true,
          "internalType": "uint256",
          "name": "tokenId",
          "type": "uint256"
        }
      ],
      "name": "Approval",
      "type": "event"
    },
    {
      "anonymous": false,
      "inputs": [
        {
          "indexed": true,
          "internalType": "address",
          "name": "owner",
          "type": "address"
        },
        {
          "indexed": true,
          "internalType": "address",
          "name": "operator",
          "type": "address"
        },
        {
          "indexed": false,
          "internalType": "bool",
          "name": "approved",
          "type": "bool"
        }
      ],
      "name": "ApprovalForAll",
      "type": "event"
    },
    {
      "anonymous": false,
      "inputs": [
        {
          "indexed": true,
          "internalType": "address",
          "name": "from",
          "type": "address"
        },
        {
          "indexed": true,
          "internalType": "address",
          "name": "to",
          "type": "address"
        },
        {
          "indexed": true,
          "internalType": "uint256",
          "name": "tokenId",
          "type": "uint256"
        }
      ],
      "name": "Transfer",
      "type": "event"
    },
    {
      "inputs": [],
      "name": "name",
      "outputs": [
        {
          "internalType": "string",
          "name": "",
          "type": "string"
        }
      ],
      "stateMutability": "view",
      "type": "function"
    },
    {
      "inputs": [],
      "name": "symbol",
      "outputs": [
        {
          "internalType": "string",
          "name": "",
          "type": "string"
        }
      ],
      "stateMutability": "view",
      "type": "function"
    },
    {
      "inputs": [],
      "name": "totalSupply",
      "outputs": [
        {
          "internalType": "uint256",
          "name": "",
          "type": "uint256"
        }
      ],
      "stateMutability": "view",
      "type": "function"
    },
    {
      "inputs": [
        {
          "internalType": "uint256",
          "name": "tokenId",
          "type": "uint256"
        }
      ],
      "name": "tokenURI",
      "outputs": [
        {
          "internalType": "string",
          "name": "",
          "type": "string"
        }
      ],
      "stateMutability": "view",
      "type": "function"
    },
    {
      "inputs": [
        {
          "internalType": "address",
          "name": "owner",
          "type": "address"
        }
      ],
      "name": "balanceOf",
      "outputs": [
        {
          "internalType": "uint256",
          "name": "balance",
          "type": "uint256"
        }
      ],
      "stateMutability": "view",
      "type": "function"
    },
    {
      "inputs": [
        {
          "internalType": "uint256",
          "name": "_tokenId",
          "type": "uint256"
        }
      ],
      "name": "ownerOf",
      "outputs": [
        {
          "internalType": "address",
          "name": "",
          "type": "address"
        }
      ],
      "stateMutability": "view",
      "type": "function"
    },
    {
      "inputs": [
        {
          "internalType": "address",
          "name": "from",
          "type": "address"
        },
        {
          "internalType": "address",
          "name": "to",
          "type": "address"
        },
        {
          "internalType": "uint256",
          "name": "tokenId",
          "type": "uint256"
        }
      ],
      "name": "safeTransferFrom",
      "outputs": [],
      "stateMutability": "nonpayable",
      "type": "function"
    },
    {
      "inputs": [
        {
          "internalType": "address",
          "name": "_from",
          "type": "address"
        },
        {
          "internalType": "address",
          "name": "_to",
          "type": "address"
        },
        {
          "internalType": "uint256",
          "name": "_tokenId",
          "type": "uint256"
        },
        {
          "internalType": "bytes",
          "name": "_data",
          "type": "bytes"
        }
      ],
      "name": "safeTransferFrom",
      "outputs": [],
      "stateMutability": "nonpayable",
      "type": "function"
    },
    {
      "inputs": [
        {
          "internalType": "address",
          "name": "_from",
          "type": "address"
        },
        {
          "internalType": "address",
          "name": "_to",
          "type": "address"
        },
        {
          "internalType": "uint256",
          "name": "_tokenId",
          "type": "uint256"
        }
      ],
      "name": "transferFrom",
      "outputs": [],
      "stateMutability": "nonpayable",
      "type": "function"
    },
    {
      "inputs": [
        {
          "internalType": "address",
          "name": "_to",
          "type": "address"
        },
        {
          "internalType": "uint256",
          "name": "_tokenId",
          "type": "uint256"
        }
      ],
      "name": "approve",
      "outputs": [],
      "stateMutability": "nonpayable",
      "type": "function"
    },
    {
      "inputs": [
        {
          "internalType": "uint256",
          "name": "tokenId",
          "type": "uint256"
        }
      ],
      "name": "getApproved",
      "outputs": [
        {
          "internalType": "address",
          "name": "",
          "type": "address"
        }
      ],
      "stateMutability": "view",
      "type": "function"
    },
    {
      "inputs": [
        {
          "internalType": "address",
          "name": "operator",
          "type": "address"
        },
        {
          "internalType": "bool",
          "name": "_approved",
          "type": "bool"
        }
      ],
      "name": "setApprovalForAll",
      "outputs": [],
      "stateMutability": "nonpayable",
      "type": "function"
    },
    {
      "inputs": [
        {
          "internalType": "address",
          "name": "owner",
          "type": "address"
        },
        {
          "internalType": "address",
          "name": "operator",
          "type": "address"
        }
      ],
      "name": "isApprovedForAll",
      "outputs": [
        {
          "internalType": "bool",
          "name": "",
          "type": "bool"
        }
      ],
      "stateMutability": "view",
      "type": "function"
    }
  ],
  "bytecode": "0x608060405234801561001057600080fd5b506126c9806100206000396000f3fe608060405234801561001057600080fd5b50600436106100cf5760003560e01c80636352211e1161008c578063a22cb46511610066578063a22cb46514610212578063b88d4fde1461022e578063c87b56dd1461024a578063e985e9c51461027a576100cf565b80636352211e1461019457806370a08231146101c457806395d89b41146101f4576100cf565b806306fdde03146100d4578063081812fc146100f2578063095ea7b31461012257806318160ddd1461013e57806323b872dd1461015c57806342842e0e14610178575b600080fd5b6100dc6102aa565b6040516100e991906118dd565b60405180910390f35b61010c60048036038101906101079190611949565b61034b565b60405161011991906119b7565b60405180910390f35b61013c600480360381019061013791906119fe565b6103de565b005b6101466106a0565b6040516101539190611a4d565b60405180910390f35b61017660048036038101906101719190611a68565b6106b8565b005b610192600480360381019061018d9190611a68565b610a45565b005b6101ae60048036038101906101a99190611949565b610a65565b6040516101bb91906119b7565b60405180910390f35b6101de60048036038101906101d99190611abb565b610b26565b6040516101eb9190611a4d565b60405180910390f35b6101fc610bed565b60405161020991906118dd565b60405180910390f35b61022c60048036038101906102279190611b20565b610c8e565b005b61024860048036038101906102439190611c95565b610c9d565b005b610264600480360381019061025f9190611949565b610cf8565b60405161027191906118dd565b60405180910390f35b610294600480360381019061028f9190611d18565b610d9f565b6040516102a19190611d67565b60405180910390f35b606060006102b6610e41565b90508060010180546102c790611db1565b80601f01602080910402602001604051908101604052809291908181526020018280546102f390611db1565b80156103405780601f1061031557610100808354040283529160200191610340565b820191906000526020600020905b81548152906001019060200180831161032357829003601f168201915b505050505091505090565b600080610356610e41565b905061036183610e6e565b6103a0576040517f08c379a000000000000000000000000000000000000000000000000000000000815260040161039790611e55565b60405180910390fd5b80600501600084815260200190815260200160002060009054906101000a900473ffffffffffffffffffffffffffffffffffffffff16915050919050565b60006103e8610e41565b9050600073ffffffffffffffffffffffffffffffffffffffff168373ffffffffffffffffffffffffffffffffffffffff16141561042457600080fd5b600073ffffffffffffffffffffffffffffffffffffffff1681600301600084815260200190815260200160002060009054906101000a900473ffffffffffffffffffffffffffffffffffffffff1673ffffffffffffffffffffffffffffffffffffffff16141561049357600080fd5b8273ffffffffffffffffffffffffffffffffffffffff1681600301600084815260200190815260200160002060009054906101000a900473ffffffffffffffffffffffffffffffffffffffff1673ffffffffffffffffffffffffffffffffffffffff16141561050157600080fd5b80600301600083815260200190815260200160002060009054906101000a900473ffffffffffffffffffffffffffffffffffffffff1673ffffffffffffffffffffffffffffffffffffffff163373ffffffffffffffffffffffffffffffffffffffff16148061063457506001151581600601600083600301600086815260200190815260200160002060009054906101000a900473ffffffffffffffffffffffffffffffffffffffff1673ffffffffffffffffffffffffffffffffffffffff1673ffffffffffffffffffffffffffffffffffffffff16815260200190815260200160002060003373ffffffffffffffffffffffffffffffffffffffff1673ffffffffffffffffffffffffffffffffffffffff16815260200190815260200160002060009054906101000a900460ff161515145b61063d57600080fd5b8281600501600084815260200190815260200160002060006101000a81548173ffffffffffffffffffffffffffffffffffffffff021916908373ffffffffffffffffffffffffffffffffffffffff16021790555061069b8383610ef9565b505050565b6000806106ab610fc1565b9050806000015491505090565b60006106c2610e41565b9050600073ffffffffffffffffffffffffffffffffffffffff168473ffffffffffffffffffffffffffffffffffffffff161415801561072e5750600073ffffffffffffffffffffffffffffffffffffffff168373ffffffffffffffffffffffffffffffffffffffff1614155b61073757600080fd5b3373ffffffffffffffffffffffffffffffffffffffff1681600301600084815260200190815260200160002060009054906101000a900473ffffffffffffffffffffffffffffffffffffffff1673ffffffffffffffffffffffffffffffffffffffff16148061080657503373ffffffffffffffffffffffffffffffffffffffff1681600501600084815260200190815260200160002060009054906101000a900473ffffffffffffffffffffffffffffffffffffffff1673ffffffffffffffffffffffffffffffffffffffff16145b806108d557506001151581600601600083600501600086815260200190815260200160002060009054906101000a900473ffffffffffffffffffffffffffffffffffffffff1673ffffffffffffffffffffffffffffffffffffffff1673ffffffffffffffffffffffffffffffffffffffff16815260200190815260200160002060008673ffffffffffffffffffffffffffffffffffffffff1673ffffffffffffffffffffffffffffffffffffffff16815260200190815260200160002060009054906101000a900460ff161515145b6108de57600080fd5b60018160040160008673ffffffffffffffffffffffffffffffffffffffff1673ffffffffffffffffffffffffffffffffffffffff16815260200190815260200160002060008282546109309190611ea4565b9250508190555060018160040160008573ffffffffffffffffffffffffffffffffffffffff1673ffffffffffffffffffffffffffffffffffffffff16815260200190815260200160002060008282546109899190611ed8565b925050819055508281600301600084815260200190815260200160002060006101000a81548173ffffffffffffffffffffffffffffffffffffffff021916908373ffffffffffffffffffffffffffffffffffffffff160217905550818373ffffffffffffffffffffffffffffffffffffffff168573ffffffffffffffffffffffffffffffffffffffff167fddf252ad1be2c89b69c2b068fc378daa952ba7f163c4a11628f55a4df523b3ef60405160405180910390a450505050565b610a6083838360405180602001604052806000815250610c9d565b505050565b600080610a70610e41565b9050600081600301600085815260200190815260200160002060009054906101000a900473ffffffffffffffffffffffffffffffffffffffff169050600073ffffffffffffffffffffffffffffffffffffffff168173ffffffffffffffffffffffffffffffffffffffff161415610b1c576040517f08c379a0000000000000000000000000000000000000000000000000000000008152600401610b1390611fa0565b60405180910390fd5b8092505050919050565b600080610b31610e41565b9050600073ffffffffffffffffffffffffffffffffffffffff168373ffffffffffffffffffffffffffffffffffffffff161415610ba3576040517f08c379a0000000000000000000000000000000000000000000000000000000008152600401610b9a9061200c565b60405180910390fd5b8060040160008473ffffffffffffffffffffffffffffffffffffffff1673ffffffffffffffffffffffffffffffffffffffff16815260200190815260200160002054915050919050565b60606000610bf9610e41565b9050806002018054610c0a90611db1565b80601f0160208091040260200160405190810160405280929190818152602001828054610c3690611db1565b8015610c835780601f10610c5857610100808354040283529160200191610c83565b820191906000526020600020905b815481529060010190602001808311610c6657829003601f168201915b505050505091505090565b610c99338383610fee565b5050565b610ca7338361116a565b610ce6576040517f08c379a0000000000000000000000000000000000000000000000000000000008152600401610cdd9061209e565b60405180910390fd5b610cf284848484611248565b50505050565b6060610d0382610e6e565b610d42576040517f08c379a0000000000000000000000000000000000000000000000000000000008152600401610d3990612130565b60405180910390fd5b6000610d4c6112a4565b90506000815111610d6c5760405180602001604052806000815250610d97565b80610d76846112bb565b604051602001610d8792919061218c565b6040516020818303038152906040525b915050919050565b600080610daa610e41565b90508060060160008573ffffffffffffffffffffffffffffffffffffffff1673ffffffffffffffffffffffffffffffffffffffff16815260200190815260200160002060008473ffffffffffffffffffffffffffffffffffffffff1673ffffffffffffffffffffffffffffffffffffffff16815260200190815260200160002060009054906101000a900460ff1691505092915050565b6000807fa7dd434add67a973f5647cf03b4c2f6cf4bf5c1fc7f2ac8b3891ebb3133b346690508091505090565b600080610e79610e41565b9050600073ffffffffffffffffffffffffffffffffffffffff1681600301600085815260200190815260200160002060009054906101000a900473ffffffffffffffffffffffffffffffffffffffff1673ffffffffffffffffffffffffffffffffffffffff1614610eee576001915050610ef4565b60009150505b919050565b6000610f03610e41565b90508281600501600084815260200190815260200160002060006101000a81548173ffffffffffffffffffffffffffffffffffffffff021916908373ffffffffffffffffffffffffffffffffffffffff160217905550818373ffffffffffffffffffffffffffffffffffffffff16610f7a84610a65565b73ffffffffffffffffffffffffffffffffffffffff167f8c5be1e5ebec7d5bd14f71427d1e84f3dd0314c0f7b2291e5b200ac8c7c3b92560405160405180910390a4505050565b6000807f2a0147cf5b9ff63908d056e474ebe771e5673907c489029e386f7a5318ddf50190508091505090565b8173ffffffffffffffffffffffffffffffffffffffff168373ffffffffffffffffffffffffffffffffffffffff16141561105d576040517f08c379a0000000000000000000000000000000000000000000000000000000008152600401611054906121fc565b60405180910390fd5b6000611067610e41565b9050818160060160008673ffffffffffffffffffffffffffffffffffffffff1673ffffffffffffffffffffffffffffffffffffffff16815260200190815260200160002060008573ffffffffffffffffffffffffffffffffffffffff1673ffffffffffffffffffffffffffffffffffffffff16815260200190815260200160002060006101000a81548160ff0219169083151502179055508273ffffffffffffffffffffffffffffffffffffffff168473ffffffffffffffffffffffffffffffffffffffff167f17307eab39ab6107e8899845ad3d59bd9653f200f220920489ca2b5937696c318460405161115c9190611d67565b60405180910390a350505050565b600061117582610e6e565b6111b4576040517f08c379a00000000000000000000000000000000000000000000000000000000081526004016111ab9061228e565b60405180910390fd5b60006111bf83610a65565b90508073ffffffffffffffffffffffffffffffffffffffff168473ffffffffffffffffffffffffffffffffffffffff16148061122e57508373ffffffffffffffffffffffffffffffffffffffff166112168461034b565b73ffffffffffffffffffffffffffffffffffffffff16145b8061123f575061123e8185610d9f565b5b91505092915050565b61125384848461141c565b61125f84848484611696565b61129e576040517f08c379a000000000000000000000000000000000000000000000000000000000815260040161129590612320565b60405180910390fd5b50505050565b606060405180602001604052806000815250905090565b60606000821415611303576040518060400160405280600181526020017f30000000000000000000000000000000000000000000000000000000000000008152509050611417565b600082905060005b6000821461133557808061131e90612340565b915050600a8261132e91906123b8565b915061130b565b60008167ffffffffffffffff81111561135157611350611b6a565b5b6040519080825280601f01601f1916602001820160405280156113835781602001600182028036833780820191505090505b5090505b600085146114105760018261139c9190611ea4565b9150600a856113ab91906123e9565b60306113b79190611ed8565b60f81b8183815181106113cd576113cc61241a565b5b60200101907effffffffffffffffffffffffffffffffffffffffffffffffffffffffffffff1916908160001a905350600a8561140991906123b8565b9450611387565b8093505050505b919050565b6000611426610e41565b90508373ffffffffffffffffffffffffffffffffffffffff1661144883610a65565b73ffffffffffffffffffffffffffffffffffffffff161461149e576040517f08c379a0000000000000000000000000000000000000000000000000000000008152600401611495906124bb565b60405180910390fd5b600073ffffffffffffffffffffffffffffffffffffffff168373ffffffffffffffffffffffffffffffffffffffff16141561150e576040517f08c379a00000000000000000000000000000000000000000000000000000000081526004016115059061254d565b60405180910390fd5b611519848484611817565b611524600083610ef9565b60018160040160008673ffffffffffffffffffffffffffffffffffffffff1673ffffffffffffffffffffffffffffffffffffffff16815260200190815260200160002060008282546115769190611ea4565b9250508190555060018160040160008573ffffffffffffffffffffffffffffffffffffffff1673ffffffffffffffffffffffffffffffffffffffff16815260200190815260200160002060008282546115cf9190611ed8565b925050819055508281600301600084815260200190815260200160002060006101000a81548173ffffffffffffffffffffffffffffffffffffffff021916908373ffffffffffffffffffffffffffffffffffffffff160217905550818373ffffffffffffffffffffffffffffffffffffffff168573ffffffffffffffffffffffffffffffffffffffff167fddf252ad1be2c89b69c2b068fc378daa952ba7f163c4a11628f55a4df523b3ef60405160405180910390a461169084848461181c565b50505050565b60006116b78473ffffffffffffffffffffffffffffffffffffffff16611821565b1561180a578373ffffffffffffffffffffffffffffffffffffffff1663150b7a02338786866040518563ffffffff1660e01b81526004016116fb94939291906125c2565b6020604051808303816000875af192505050801561173757506040513d601f19601f820116820180604052508101906117349190612666565b60015b6117ba573d8060008114611767576040519150601f19603f3d011682016040523d82523d6000602084013e61176c565b606091505b506000815114156117b2576040517f08c379a00000000000000000000000000000000000000000000000000000000081526004016117a990612320565b60405180910390fd5b805181602001fd5b63150b7a0260e01b7bffffffffffffffffffffffffffffffffffffffffffffffffffffffff1916817bffffffffffffffffffffffffffffffffffffffffffffffffffffffff19161491505061180f565b600190505b949350505050565b505050565b505050565b6000808273ffffffffffffffffffffffffffffffffffffffff163b119050919050565b600081519050919050565b600082825260208201905092915050565b60005b8381101561187e578082015181840152602081019050611863565b8381111561188d576000848401525b50505050565b6000601f19601f8301169050919050565b60006118af82611844565b6118b9818561184f565b93506118c9818560208601611860565b6118d281611893565b840191505092915050565b600060208201905081810360008301526118f781846118a4565b905092915050565b6000604051905090565b600080fd5b600080fd5b6000819050919050565b61192681611913565b811461193157600080fd5b50565b6000813590506119438161191d565b92915050565b60006020828403121561195f5761195e611909565b5b600061196d84828501611934565b91505092915050565b600073ffffffffffffffffffffffffffffffffffffffff82169050919050565b60006119a182611976565b9050919050565b6119b181611996565b82525050565b60006020820190506119cc60008301846119a8565b92915050565b6119db81611996565b81146119e657600080fd5b50565b6000813590506119f8816119d2565b92915050565b60008060408385031215611a1557611a14611909565b5b6000611a23858286016119e9565b9250506020611a3485828601611934565b9150509250929050565b611a4781611913565b82525050565b6000602082019050611a626000830184611a3e565b92915050565b600080600060608486031215611a8157611a80611909565b5b6000611a8f868287016119e9565b9350506020611aa0868287016119e9565b9250506040611ab186828701611934565b9150509250925092565b600060208284031215611ad157611ad0611909565b5b6000611adf848285016119e9565b91505092915050565b60008115159050919050565b611afd81611ae8565b8114611b0857600080fd5b50565b600081359050611b1a81611af4565b92915050565b60008060408385031215611b3757611b36611909565b5b6000611b45858286016119e9565b9250506020611b5685828601611b0b565b9150509250929050565b600080fd5b600080fd5b7f4e487b7100000000000000000000000000000000000000000000000000000000600052604160045260246000fd5b611ba282611893565b810181811067ffffffffffffffff82111715611bc157611bc0611b6a565b5b80604052505050565b6000611bd46118ff565b9050611be08282611b99565b919050565b600067ffffffffffffffff821115611c0057611bff611b6a565b5b611c0982611893565b9050602081019050919050565b82818337600083830152505050565b6000611c38611c3384611be5565b611bca565b905082815260208101848484011115611c5457611c53611b65565b5b611c5f848285611c16565b509392505050565b600082601f830112611c7c57611c7b611b60565b5b8135611c8c848260208601611c25565b91505092915050565b60008060008060808587031215611caf57611cae611909565b5b6000611cbd878288016119e9565b9450506020611cce878288016119e9565b9350506040611cdf87828801611934565b925050606085013567ffffffffffffffff811115611d0057611cff61190e565b5b611d0c87828801611c67565b91505092959194509250565b60008060408385031215611d2f57611d2e611909565b5b6000611d3d858286016119e9565b9250506020611d4e858286016119e9565b9150509250929050565b611d6181611ae8565b82525050565b6000602082019050611d7c6000830184611d58565b92915050565b7f4e487b7100000000000000000000000000000000000000000000000000000000600052602260045260246000fd5b60006002820490506001821680611dc957607f821691505b60208210811415611ddd57611ddc611d82565b5b50919050565b7f4552433732313a20617070726f76656420717565727920666f72206e6f6e657860008201527f697374656e7420746f6b656e0000000000000000000000000000000000000000602082015250565b6000611e3f602c8361184f565b9150611e4a82611de3565b604082019050919050565b60006020820190508181036000830152611e6e81611e32565b9050919050565b7f4e487b7100000000000000000000000000000000000000000000000000000000600052601160045260246000fd5b6000611eaf82611913565b9150611eba83611913565b925082821015611ecd57611ecc611e75565b5b828203905092915050565b6000611ee382611913565b9150611eee83611913565b9250827fffffffffffffffffffffffffffffffffffffffffffffffffffffffffffffffff03821115611f2357611f22611e75565b5b828201905092915050565b7f4552433732313a206f776e657220717565727920666f72206e6f6e657869737460008201527f656e7420746f6b656e0000000000000000000000000000000000000000000000602082015250565b6000611f8a60298361184f565b9150611f9582611f2e565b604082019050919050565b60006020820190508181036000830152611fb981611f7d565b9050919050565b7f7a65726f20616464726573730000000000000000000000000000000000000000600082015250565b6000611ff6600c8361184f565b915061200182611fc0565b602082019050919050565b6000602082019050818103600083015261202581611fe9565b9050919050565b7f4552433732313a207472616e736665722063616c6c6572206973206e6f74206f60008201527f776e6572206e6f7220617070726f766564000000000000000000000000000000602082015250565b600061208860318361184f565b91506120938261202c565b604082019050919050565b600060208201905081810360008301526120b78161207b565b9050919050565b7f4552433732314d657461646174613a2055524920717565727920666f72206e6f60008201527f6e6578697374656e7420746f6b656e0000000000000000000000000000000000602082015250565b600061211a602f8361184f565b9150612125826120be565b604082019050919050565b600060208201905081810360008301526121498161210d565b9050919050565b600081905092915050565b600061216682611844565b6121708185612150565b9350612180818560208601611860565b80840191505092915050565b6000612198828561215b565b91506121a4828461215b565b91508190509392505050565b7f4552433732313a20617070726f766520746f2063616c6c657200000000000000600082015250565b60006121e660198361184f565b91506121f1826121b0565b602082019050919050565b60006020820190508181036000830152612215816121d9565b9050919050565b7f4552433732313a206f70657261746f7220717565727920666f72206e6f6e657860008201527f697374656e7420746f6b656e0000000000000000000000000000000000000000602082015250565b6000612278602c8361184f565b91506122838261221c565b604082019050919050565b600060208201905081810360008301526122a78161226b565b9050919050565b7f4552433732313a207472616e7366657220746f206e6f6e20455243373231526560008201527f63656976657220696d706c656d656e7465720000000000000000000000000000602082015250565b600061230a60328361184f565b9150612315826122ae565b604082019050919050565b60006020820190508181036000830152612339816122fd565b9050919050565b600061234b82611913565b91507fffffffffffffffffffffffffffffffffffffffffffffffffffffffffffffffff82141561237e5761237d611e75565b5b600182019050919050565b7f4e487b7100000000000000000000000000000000000000000000000000000000600052601260045260246000fd5b60006123c382611913565b91506123ce83611913565b9250826123de576123dd612389565b5b828204905092915050565b60006123f482611913565b91506123ff83611913565b92508261240f5761240e612389565b5b828206905092915050565b7f4e487b7100000000000000000000000000000000000000000000000000000000600052603260045260246000fd5b7f4552433732313a207472616e736665722066726f6d20696e636f72726563742060008201527f6f776e6572000000000000000000000000000000000000000000000000000000602082015250565b60006124a560258361184f565b91506124b082612449565b604082019050919050565b600060208201905081810360008301526124d481612498565b9050919050565b7f4552433732313a207472616e7366657220746f20746865207a65726f2061646460008201527f7265737300000000000000000000000000000000000000000000000000000000602082015250565b600061253760248361184f565b9150612542826124db565b604082019050919050565b600060208201905081810360008301526125668161252a565b9050919050565b600081519050919050565b600082825260208201905092915050565b60006125948261256d565b61259e8185612578565b93506125ae818560208601611860565b6125b781611893565b840191505092915050565b60006080820190506125d760008301876119a8565b6125e460208301866119a8565b6125f16040830185611a3e565b81810360608301526126038184612589565b905095945050505050565b60007fffffffff0000000000000000000000000000000000000000000000000000000082169050919050565b6126438161260e565b811461264e57600080fd5b50565b6000815190506126608161263a565b92915050565b60006020828403121561267c5761267b611909565b5b600061268a84828501612651565b9150509291505056fea264697066735822122084e329c85cf5357ca86645aa2688f05c4db3853ce5955c5e792f37872bf4b35064736f6c634300080b0033",
  "immutableReferences": {},
  "source": "//SPDX-License-Identifier: MIT\n\npragma solidity 0.8.11;\n\nimport \"./interfaces/IERC721.sol\";\nimport \"./utils/Address.sol\";\nimport \"./utils/Strings.sol\";\nimport {LibDixel} from \"./libraries/LibDixel.sol\";\nimport \"./interfaces/IERC721Receiver.sol\";\n\ncontract ERC721 is IERC721 { \n    using Address for address;\n    using Strings for uint256;\n\n    function _exists(uint256 tokenId) internal view returns (bool){\n        LibDixel.DixelStorage storage ds = LibDixel.dixelStorage();\n        if(ds.owners[tokenId] != address(0)) return true;\n        else return false;\n    }\n\n    function name() public view returns(string memory) {\n        LibDixel.DixelStorage storage ds = LibDixel.dixelStorage();\n        return ds.name;\n    }\n\n    function symbol() public view returns(string memory){\n        LibDixel.DixelStorage storage ds = LibDixel.dixelStorage();\n        return ds.symbol;\n    }\n\n    function totalSupply() public view returns(uint) {\n        LibDixel.SupplyStorage storage ss = LibDixel.supplyStorage();\n        return ss.totalSupply;\n    }\n\n        /**\n     * @dev See {IERC721Metadata-tokenURI}.\n     */\n    function tokenURI(uint256 tokenId) public view virtual returns (string memory) {\n        require(_exists(tokenId), \"ERC721Metadata: URI query for nonexistent token\");\n\n        string memory baseURI = _baseURI();\n        return bytes(baseURI).length > 0 ? string(abi.encodePacked(baseURI, tokenId.toString())) : \"\";\n    }\n\n    /**\n     * @dev Base URI for computing {tokenURI}. If set, the resulting URI for each\n     * token will be the concatenation of the `baseURI` and the `tokenId`. Empty\n     * by default, can be overriden in child contracts.\n     */\n    function _baseURI() internal view virtual returns (string memory) {\n        return \"\";\n    }\n\n    /**\n     * @dev Returns the number of tokens in ``owner``'s account.\n     */\n    function balanceOf(address owner) public override view returns (uint256 balance){\n        LibDixel.DixelStorage storage ds = LibDixel.dixelStorage();\n        require(owner != address(0), \"zero address\");\n        return ds.balances[owner];\n    }\n\n    /**\n     * @dev Returns the owner of the `tokenId` token.\n     *\n     * Requirements:\n     *\n     * - `tokenId` must exist.\n     */\n    function ownerOf(uint256 _tokenId) public override view returns (address){\n        LibDixel.DixelStorage storage ds = LibDixel.dixelStorage();\n        address owner = ds.owners[_tokenId];\n        require(owner != address(0), \"ERC721: owner query for nonexistent token\");\n        return owner;\n    }\n\n        /**\n     * @dev Safely transfers `tokenId` token from `from` to `to`, checking first that contract recipients\n     * are aware of the ERC721 protocol to prevent tokens from being forever locked.\n     *\n     * Requirements:\n     *\n     * - `from` cannot be the zero address.\n     * - `to` cannot be the zero address.\n     * - `tokenId` token must exist and be owned by `from`.\n     * - If the caller is not `from`, it must be have been allowed to move this token by either {approve} or {setApprovalForAll}.\n     * - If `to` refers to a smart contract, it must implement {IERC721Receiver-onERC721Received}, which is called upon a safe transfer.\n     *\n     * Emits a {Transfer} event.\n     */\n    function safeTransferFrom(\n        address from,\n        address to,\n        uint256 tokenId\n    ) public virtual override {\n        safeTransferFrom(from, to, tokenId, \"\");\n    }\n\n        /**\n     * @dev Safely transfers `tokenId` token from `from` to `to`.\n     *\n     * Requirements:\n     *\n     * - `from` cannot be the zero address.\n     * - `to` cannot be the zero address.\n     * - `tokenId` token must exist and be owned by `from`.\n     * - If the caller is not `from`, it must be approved to move this token by either {approve} or {setApprovalForAll}.\n     * - If `to` refers to a smart contract, it must implement {IERC721Receiver-onERC721Received}, which is called upon a safe transfer.\n     *\n     * Emits a {Transfer} event.\n     */\n    function safeTransferFrom(\n        address _from,\n        address _to,\n        uint256 _tokenId,\n        bytes memory _data\n    ) public virtual override {\n        require(_isApprovedOrOwner(msg.sender, _tokenId), \"ERC721: transfer caller is not owner nor approved\");\n        _safeTransfer(_from, _to, _tokenId, _data);\n    }\n\n    /**\n     * @dev Transfers `tokenId` token from `from` to `to`.\n     *\n     * WARNING: Usage of this method is discouraged, use {safeTransferFrom} whenever possible.\n     *\n     * Requirements:\n     *\n     * - `from` cannot be the zero address.\n     * - `to` cannot be the zero address.\n     * - `tokenId` token must be owned by `from`.\n     * - If the caller is not `from`, it must be approved to move this token by either {approve} or {setApprovalForAll}.\n     *\n     * Emits a {Transfer} event.\n     */\n    function transferFrom(\n        address _from,\n        address _to,\n        uint256 _tokenId\n    ) public override{\n        LibDixel.DixelStorage storage ds = LibDixel.dixelStorage();\n        require(_from != address(0) && _to !=address(0));\n        require(ds.owners[_tokenId] == msg.sender || ds.tokenApprovals[_tokenId] == msg.sender || ds.operatorApprovals[ds.tokenApprovals[_tokenId]][_from] == true);\n        ds.balances[_from] -= 1;\n        ds.balances[_to] +=1;\n        ds.owners[_tokenId] = _to;\n        emit Transfer(_from, _to, _tokenId);\n    }\n\n        /**\n     * @dev Safely transfers `tokenId` token from `from` to `to`, checking first that contract recipients\n     * are aware of the ERC721 protocol to prevent tokens from being forever locked.\n     *\n     * `_data` is additional data, it has no specified format and it is sent in call to `to`.\n     *\n     * This internal function is equivalent to {safeTransferFrom}, and can be used to e.g.\n     * implement alternative mechanisms to perform token transfer, such as signature-based.\n     *\n     * Requirements:\n     *\n     * - `from` cannot be the zero address.\n     * - `to` cannot be the zero address.\n     * - `tokenId` token must exist and be owned by `from`.\n     * - If `to` refers to a smart contract, it must implement {IERC721Receiver-onERC721Received}, which is called upon a safe transfer.\n     *\n     * Emits a {Transfer} event.\n     */\n    function _safeTransfer(\n        address _from,\n        address _to,\n        uint256 _tokenId,\n        bytes memory _data\n    ) internal virtual {\n        _transfer(_from, _to, _tokenId);\n        require(_checkOnERC721Received(_from, _to, _tokenId, _data), \"ERC721: transfer to non ERC721Receiver implementer\");\n    }\n\n    /**\n     * @dev Transfers `tokenId` from `from` to `to`.\n     *  As opposed to {transferFrom}, this imposes no restrictions on msg.sender.\n     *\n     * Requirements:\n     *\n     * - `to` cannot be the zero address.\n     * - `tokenId` token must be owned by `from`.\n     *\n     * Emits a {Transfer} event.\n     */\n        function _transfer(\n        address _from,\n        address _to,\n        uint256 _tokenId\n    ) internal virtual {\n        LibDixel.DixelStorage storage ds = LibDixel.dixelStorage();\n        require(ERC721.ownerOf(_tokenId) == _from, \"ERC721: transfer from incorrect owner\");\n        require(_to != address(0), \"ERC721: transfer to the zero address\");\n\n        _beforeTokenTransfer(_from, _to, _tokenId);\n\n        // Clear approvals from the previous owner\n        _approve(address(0), _tokenId);\n\n        ds.balances[_from] -= 1;\n        ds.balances[_to] += 1;\n        ds.owners[_tokenId] = _to;\n\n        emit Transfer(_from, _to, _tokenId);\n\n        _afterTokenTransfer(_from, _to, _tokenId);\n    }\n\n    /**\n     * @dev Gives permission to `to` to transfer `tokenId` token to another account.\n     * The approval is cleared when the token is transferred.\n     *\n     * Only a single account can be approved at a time, so approving the zero address clears previous approvals.\n     *\n     * Requirements:\n     *\n     * - The caller must own the token or be an approved operator.\n     * - `tokenId` must exist.\n     *\n     * Emits an {Approval} event.\n     */\n    function approve(address _to, uint256 _tokenId) public override{\n        LibDixel.DixelStorage storage ds = LibDixel.dixelStorage();\n        require(_to != address(0));\n        require(ds.owners[_tokenId] !=address(0));\n        require(ds.owners[_tokenId] != _to);\n        require( msg.sender == ds.owners[_tokenId] || ds.operatorApprovals[ds.owners[_tokenId]][msg.sender] == true);\n        ds.tokenApprovals[_tokenId] = _to;\n\n        _approve(_to, _tokenId);\n    }\n\n        /**\n     * @dev Approve `to` to operate on `tokenId`\n     *\n     * Emits a {Approval} event.\n     */\n    function _approve(address _to, uint256 _tokenId) internal virtual {\n        LibDixel.DixelStorage storage ds = LibDixel.dixelStorage();\n        ds.tokenApprovals[_tokenId] = _to;\n        emit Approval(ERC721.ownerOf(_tokenId), _to, _tokenId);\n    }\n\n\n    /**\n     * @dev Returns the account approved for `tokenId` token.\n     *\n     * Requirements:\n     *\n     * - `tokenId` must exist.\n     */\n    function getApproved(uint256 tokenId) public override view returns (address){\n        LibDixel.DixelStorage storage ds = LibDixel.dixelStorage();\n        require(_exists(tokenId), \"ERC721: approved query for nonexistent token\");\n\n        return ds.tokenApprovals[tokenId];\n    }\n\n    function mint(address _to, uint _tokenId) internal {\n        LibDixel.DixelStorage storage ds = LibDixel.dixelStorage();\n        require(_to != address(0), \"ERC721: mint to the zero address\");\n        require(!_exists(_tokenId), \"ERC721: token already minted\");\n        ds.balances[_to] += 1;\n        ds.owners[_tokenId] = _to;\n\n        emit Transfer(address(0), _to, _tokenId);\n    }\n\n            /**\n     * @dev Approve `operator` to operate on all of `owner` tokens\n     *\n     * Emits a {ApprovalForAll} event.\n     */\n    function _setApprovalForAll(\n        address owner,\n        address operator,\n        bool approved\n    ) internal virtual {\n        require(owner != operator, \"ERC721: approve to caller\");\n        LibDixel.DixelStorage storage ds = LibDixel.dixelStorage();\n        ds.operatorApprovals[owner][operator] = approved;\n        emit ApprovalForAll(owner, operator, approved);\n    }\n\n    /**\n     * @dev Approve or remove `operator` as an operator for the caller.\n     * Operators can call {transferFrom} or {safeTransferFrom} for any token owned by the caller.\n     *\n     * Requirements:\n     *\n     * - The `operator` cannot be the caller.\n     *\n     * Emits an {ApprovalForAll} event.\n     */\n    function setApprovalForAll(address operator, bool _approved) public override {\n        _setApprovalForAll(msg.sender, operator, _approved);\n    }\n\n    /**\n     * @dev Returns if the `operator` is allowed to manage all of the assets of `owner`.\n     *\n     * See {setApprovalForAll}\n     */\n    function isApprovedForAll(address owner, address operator) public override view returns (bool){\n        LibDixel.DixelStorage storage ds = LibDixel.dixelStorage();\n        return ds.operatorApprovals[owner][operator];\n    }\n\n        /**\n     * @dev Returns whether `spender` is allowed to manage `tokenId`.\n     *\n     * Requirements:\n     *\n     * - `tokenId` must exist.\n     */\n    function _isApprovedOrOwner(address spender, uint256 tokenId) internal view virtual returns (bool) {\n        require(_exists(tokenId), \"ERC721: operator query for nonexistent token\");\n        address owner = ERC721.ownerOf(tokenId);\n        return (spender == owner || getApproved(tokenId) == spender || isApprovedForAll(owner, spender));\n    }\n\n    /**\n     * @dev Internal function to invoke {IERC721Receiver-onERC721Received} on a target address.\n     * The call is not executed if the target address is not a contract.\n     *\n     * @param from address representing the previous owner of the given token ID\n     * @param to target address that will receive the tokens\n     * @param tokenId uint256 ID of the token to be transferred\n     * @param _data bytes optional data to send along with the call\n     * @return bool whether the call correctly returned the expected magic value\n     */\n    function _checkOnERC721Received(\n        address from,\n        address to,\n        uint256 tokenId,\n        bytes memory _data\n    ) private returns (bool) {\n        if (to.isContract()) {\n            try IERC721Receiver(to).onERC721Received(msg.sender, from, tokenId, _data) returns (bytes4 retval) {\n                return retval == IERC721Receiver.onERC721Received.selector;\n            } catch (bytes memory reason) {\n                if (reason.length == 0) {\n                    revert(\"ERC721: transfer to non ERC721Receiver implementer\");\n                } else {\n                    assembly {\n                        revert(add(32, reason), mload(reason))\n                    }\n                }\n            }\n        } else {\n            return true;\n        }\n    }\n\n        /**\n     * @dev Hook that is called before any token transfer. This includes minting\n     * and burning.\n     *\n     * Calling conditions:\n     *\n     * - When `from` and `to` are both non-zero, ``from``'s `tokenId` will be\n     * transferred to `to`.\n     * - When `from` is zero, `tokenId` will be minted for `to`.\n     * - When `to` is zero, ``from``'s `tokenId` will be burned.\n     * - `from` and `to` are never both zero.\n     *\n     * To learn more about hooks, head to xref:ROOT:extending-contracts.adoc#using-hooks[Using Hooks].\n     */\n    function _beforeTokenTransfer(\n        address from,\n        address to,\n        uint256 tokenId\n    ) internal virtual {}\n\n        /**\n     * @dev Hook that is called after any transfer of tokens. This includes\n     * minting and burning.\n     *\n     * Calling conditions:\n     *\n     * - when `from` and `to` are both non-zero.\n     * - `from` and `to` are never both zero.\n     *\n     * To learn more about hooks, head to xref:ROOT:extending-contracts.adoc#using-hooks[Using Hooks].\n     */\n    function _afterTokenTransfer(\n        address from,\n        address to,\n        uint256 tokenId\n    ) internal virtual {}\n\n    // function supportsInterface(bytes4 interfaceId) external virtual view returns (bool){}\n}",
  "sourcePath": "/home/torof/Desktop/Dixel-folder/dixel-22/contracts/ERC721.sol",
  "compiler": {
    "name": "solc",
    "version": "0.8.11+commit.d7f03943.Emscripten.clang"
  },
  "schemaVersion": "3.4.4",
  "updatedAt": "2022-01-24T15:16:40.665Z",
  "devdoc": {
    "kind": "dev",
    "methods": {
      "approve(address,uint256)": {
        "details": "Gives permission to `to` to transfer `tokenId` token to another account. The approval is cleared when the token is transferred. Only a single account can be approved at a time, so approving the zero address clears previous approvals. Requirements: - The caller must own the token or be an approved operator. - `tokenId` must exist. Emits an {Approval} event."
      },
      "balanceOf(address)": {
        "details": "Returns the number of tokens in ``owner``'s account."
      },
      "getApproved(uint256)": {
        "details": "Returns the account approved for `tokenId` token. Requirements: - `tokenId` must exist."
      },
      "isApprovedForAll(address,address)": {
        "details": "Returns if the `operator` is allowed to manage all of the assets of `owner`. See {setApprovalForAll}"
      },
      "ownerOf(uint256)": {
        "details": "Returns the owner of the `tokenId` token. Requirements: - `tokenId` must exist."
      },
      "safeTransferFrom(address,address,uint256)": {
        "details": "Safely transfers `tokenId` token from `from` to `to`, checking first that contract recipients are aware of the ERC721 protocol to prevent tokens from being forever locked. Requirements: - `from` cannot be the zero address. - `to` cannot be the zero address. - `tokenId` token must exist and be owned by `from`. - If the caller is not `from`, it must be have been allowed to move this token by either {approve} or {setApprovalForAll}. - If `to` refers to a smart contract, it must implement {IERC721Receiver-onERC721Received}, which is called upon a safe transfer. Emits a {Transfer} event."
      },
      "safeTransferFrom(address,address,uint256,bytes)": {
        "details": "Safely transfers `tokenId` token from `from` to `to`. Requirements: - `from` cannot be the zero address. - `to` cannot be the zero address. - `tokenId` token must exist and be owned by `from`. - If the caller is not `from`, it must be approved to move this token by either {approve} or {setApprovalForAll}. - If `to` refers to a smart contract, it must implement {IERC721Receiver-onERC721Received}, which is called upon a safe transfer. Emits a {Transfer} event."
      },
      "setApprovalForAll(address,bool)": {
        "details": "Approve or remove `operator` as an operator for the caller. Operators can call {transferFrom} or {safeTransferFrom} for any token owned by the caller. Requirements: - The `operator` cannot be the caller. Emits an {ApprovalForAll} event."
      },
      "tokenURI(uint256)": {
        "details": "See {IERC721Metadata-tokenURI}."
      },
      "transferFrom(address,address,uint256)": {
        "details": "Transfers `tokenId` token from `from` to `to`. WARNING: Usage of this method is discouraged, use {safeTransferFrom} whenever possible. Requirements: - `from` cannot be the zero address. - `to` cannot be the zero address. - `tokenId` token must be owned by `from`. - If the caller is not `from`, it must be approved to move this token by either {approve} or {setApprovalForAll}. Emits a {Transfer} event."
      }
    },
    "version": 1
  },
  "userdoc": {
    "kind": "user",
    "methods": {},
    "version": 1
  }
}