{
  "contractName": "ERC721",
  "abi": [
    {
      "anonymous": false,
      "inputs": [
        {
          "indexed": true,
          "internalType": "address",
          "name": "owner",
          "type": "address"
        },
        {
          "indexed": true,
          "internalType": "address",
          "name": "approved",
          "type": "address"
        },
        {
          "indexed": true,
          "internalType": "uint256",
          "name": "tokenId",
          "type": "uint256"
        }
      ],
      "name": "Approval",
      "type": "event"
    },
    {
      "anonymous": false,
      "inputs": [
        {
          "indexed": true,
          "internalType": "address",
          "name": "owner",
          "type": "address"
        },
        {
          "indexed": true,
          "internalType": "address",
          "name": "operator",
          "type": "address"
        },
        {
          "indexed": false,
          "internalType": "bool",
          "name": "approved",
          "type": "bool"
        }
      ],
      "name": "ApprovalForAll",
      "type": "event"
    },
    {
      "anonymous": false,
      "inputs": [
        {
          "indexed": true,
          "internalType": "address",
          "name": "from",
          "type": "address"
        },
        {
          "indexed": true,
          "internalType": "address",
          "name": "to",
          "type": "address"
        },
        {
          "indexed": true,
          "internalType": "uint256",
          "name": "tokenId",
          "type": "uint256"
        }
      ],
      "name": "Transfer",
      "type": "event"
    },
    {
      "inputs": [],
      "name": "name",
      "outputs": [
        {
          "internalType": "string",
          "name": "",
          "type": "string"
        }
      ],
      "stateMutability": "view",
      "type": "function"
    },
    {
      "inputs": [],
      "name": "symbol",
      "outputs": [
        {
          "internalType": "string",
          "name": "",
          "type": "string"
        }
      ],
      "stateMutability": "view",
      "type": "function"
    },
    {
      "inputs": [],
      "name": "totalSupply",
      "outputs": [
        {
          "internalType": "uint256",
          "name": "",
          "type": "uint256"
        }
      ],
      "stateMutability": "view",
      "type": "function"
    },
    {
      "inputs": [
        {
          "internalType": "uint256",
          "name": "tokenId",
          "type": "uint256"
        }
      ],
      "name": "tokenURI",
      "outputs": [
        {
          "internalType": "string",
          "name": "",
          "type": "string"
        }
      ],
      "stateMutability": "view",
      "type": "function"
    },
    {
      "inputs": [
        {
          "internalType": "address",
          "name": "owner",
          "type": "address"
        }
      ],
      "name": "balanceOf",
      "outputs": [
        {
          "internalType": "uint256",
          "name": "balance",
          "type": "uint256"
        }
      ],
      "stateMutability": "view",
      "type": "function"
    },
    {
      "inputs": [
        {
          "internalType": "uint256",
          "name": "_tokenId",
          "type": "uint256"
        }
      ],
      "name": "ownerOf",
      "outputs": [
        {
          "internalType": "address",
          "name": "",
          "type": "address"
        }
      ],
      "stateMutability": "view",
      "type": "function"
    },
    {
      "inputs": [
        {
          "internalType": "address",
          "name": "from",
          "type": "address"
        },
        {
          "internalType": "address",
          "name": "to",
          "type": "address"
        },
        {
          "internalType": "uint256",
          "name": "tokenId",
          "type": "uint256"
        }
      ],
      "name": "safeTransferFrom",
      "outputs": [],
      "stateMutability": "nonpayable",
      "type": "function"
    },
    {
      "inputs": [
        {
          "internalType": "address",
          "name": "_from",
          "type": "address"
        },
        {
          "internalType": "address",
          "name": "_to",
          "type": "address"
        },
        {
          "internalType": "uint256",
          "name": "_tokenId",
          "type": "uint256"
        },
        {
          "internalType": "bytes",
          "name": "_data",
          "type": "bytes"
        }
      ],
      "name": "safeTransferFrom",
      "outputs": [],
      "stateMutability": "nonpayable",
      "type": "function"
    },
    {
      "inputs": [
        {
          "internalType": "address",
          "name": "_from",
          "type": "address"
        },
        {
          "internalType": "address",
          "name": "_to",
          "type": "address"
        },
        {
          "internalType": "uint256",
          "name": "_tokenId",
          "type": "uint256"
        }
      ],
      "name": "transferFrom",
      "outputs": [],
      "stateMutability": "nonpayable",
      "type": "function"
    },
    {
      "inputs": [
        {
          "internalType": "address",
          "name": "_to",
          "type": "address"
        },
        {
          "internalType": "uint256",
          "name": "_tokenId",
          "type": "uint256"
        }
      ],
      "name": "approve",
      "outputs": [],
      "stateMutability": "nonpayable",
      "type": "function"
    },
    {
      "inputs": [
        {
          "internalType": "uint256",
          "name": "tokenId",
          "type": "uint256"
        }
      ],
      "name": "getApproved",
      "outputs": [
        {
          "internalType": "address",
          "name": "",
          "type": "address"
        }
      ],
      "stateMutability": "view",
      "type": "function"
    },
    {
      "inputs": [
        {
          "internalType": "address",
          "name": "operator",
          "type": "address"
        },
        {
          "internalType": "bool",
          "name": "_approved",
          "type": "bool"
        }
      ],
      "name": "setApprovalForAll",
      "outputs": [],
      "stateMutability": "nonpayable",
      "type": "function"
    },
    {
      "inputs": [
        {
          "internalType": "address",
          "name": "owner",
          "type": "address"
        },
        {
          "internalType": "address",
          "name": "operator",
          "type": "address"
        }
      ],
      "name": "isApprovedForAll",
      "outputs": [
        {
          "internalType": "bool",
          "name": "",
          "type": "bool"
        }
      ],
      "stateMutability": "view",
      "type": "function"
    }
  ],
  "bytecode": "0x608060405234801561001057600080fd5b50612395806100206000396000f3fe608060405234801561001057600080fd5b50600436106100cf5760003560e01c80636352211e1161008c578063a22cb46511610066578063a22cb46514610212578063b88d4fde1461022e578063c87b56dd1461024a578063e985e9c51461027a576100cf565b80636352211e1461019457806370a08231146101c457806395d89b41146101f4576100cf565b806306fdde03146100d4578063081812fc146100f2578063095ea7b31461012257806318160ddd1461013e57806323b872dd1461015c57806342842e0e14610178575b600080fd5b6100dc6102aa565b6040516100e991906115a9565b60405180910390f35b61010c60048036038101906101079190611615565b61034b565b6040516101199190611683565b60405180910390f35b61013c600480360381019061013791906116ca565b6103de565b005b6101466106a0565b6040516101539190611719565b60405180910390f35b61017660048036038101906101719190611734565b6106b8565b005b610192600480360381019061018d9190611734565b610711565b005b6101ae60048036038101906101a99190611615565b610731565b6040516101bb9190611683565b60405180910390f35b6101de60048036038101906101d99190611787565b6107f2565b6040516101eb9190611719565b60405180910390f35b6101fc6108b9565b60405161020991906115a9565b60405180910390f35b61022c600480360381019061022791906117ec565b61095a565b005b61024860048036038101906102439190611961565b610969565b005b610264600480360381019061025f9190611615565b6109c4565b60405161027191906115a9565b60405180910390f35b610294600480360381019061028f91906119e4565b610a6b565b6040516102a19190611a33565b60405180910390f35b606060006102b6610b0d565b90508060010180546102c790611a7d565b80601f01602080910402602001604051908101604052809291908181526020018280546102f390611a7d565b80156103405780601f1061031557610100808354040283529160200191610340565b820191906000526020600020905b81548152906001019060200180831161032357829003601f168201915b505050505091505090565b600080610356610b0d565b905061036183610b3a565b6103a0576040517f08c379a000000000000000000000000000000000000000000000000000000000815260040161039790611b21565b60405180910390fd5b80600501600084815260200190815260200160002060009054906101000a900473ffffffffffffffffffffffffffffffffffffffff16915050919050565b60006103e8610b0d565b9050600073ffffffffffffffffffffffffffffffffffffffff168373ffffffffffffffffffffffffffffffffffffffff16141561042457600080fd5b600073ffffffffffffffffffffffffffffffffffffffff1681600301600084815260200190815260200160002060009054906101000a900473ffffffffffffffffffffffffffffffffffffffff1673ffffffffffffffffffffffffffffffffffffffff16141561049357600080fd5b8273ffffffffffffffffffffffffffffffffffffffff1681600301600084815260200190815260200160002060009054906101000a900473ffffffffffffffffffffffffffffffffffffffff1673ffffffffffffffffffffffffffffffffffffffff16141561050157600080fd5b80600301600083815260200190815260200160002060009054906101000a900473ffffffffffffffffffffffffffffffffffffffff1673ffffffffffffffffffffffffffffffffffffffff163373ffffffffffffffffffffffffffffffffffffffff16148061063457506001151581600601600083600301600086815260200190815260200160002060009054906101000a900473ffffffffffffffffffffffffffffffffffffffff1673ffffffffffffffffffffffffffffffffffffffff1673ffffffffffffffffffffffffffffffffffffffff16815260200190815260200160002060003373ffffffffffffffffffffffffffffffffffffffff1673ffffffffffffffffffffffffffffffffffffffff16815260200190815260200160002060009054906101000a900460ff161515145b61063d57600080fd5b8281600501600084815260200190815260200160002060006101000a81548173ffffffffffffffffffffffffffffffffffffffff021916908373ffffffffffffffffffffffffffffffffffffffff16021790555061069b8383610bc5565b505050565b6000806106ab610c8d565b9050806000015491505090565b6106c23382610cba565b610701576040517f08c379a00000000000000000000000000000000000000000000000000000000081526004016106f890611bb3565b60405180910390fd5b61070c838383610d98565b505050565b61072c83838360405180602001604052806000815250610969565b505050565b60008061073c610b0d565b9050600081600301600085815260200190815260200160002060009054906101000a900473ffffffffffffffffffffffffffffffffffffffff169050600073ffffffffffffffffffffffffffffffffffffffff168173ffffffffffffffffffffffffffffffffffffffff1614156107e8576040517f08c379a00000000000000000000000000000000000000000000000000000000081526004016107df90611c45565b60405180910390fd5b8092505050919050565b6000806107fd610b0d565b9050600073ffffffffffffffffffffffffffffffffffffffff168373ffffffffffffffffffffffffffffffffffffffff16141561086f576040517f08c379a000000000000000000000000000000000000000000000000000000000815260040161086690611cb1565b60405180910390fd5b8060040160008473ffffffffffffffffffffffffffffffffffffffff1673ffffffffffffffffffffffffffffffffffffffff16815260200190815260200160002054915050919050565b606060006108c5610b0d565b90508060020180546108d690611a7d565b80601f016020809104026020016040519081016040528092919081815260200182805461090290611a7d565b801561094f5780601f106109245761010080835404028352916020019161094f565b820191906000526020600020905b81548152906001019060200180831161093257829003601f168201915b505050505091505090565b610965338383611012565b5050565b6109733383610cba565b6109b2576040517f08c379a00000000000000000000000000000000000000000000000000000000081526004016109a990611bb3565b60405180910390fd5b6109be8484848461118e565b50505050565b60606109cf82610b3a565b610a0e576040517f08c379a0000000000000000000000000000000000000000000000000000000008152600401610a0590611d43565b60405180910390fd5b6000610a186111ea565b90506000815111610a385760405180602001604052806000815250610a63565b80610a4284611201565b604051602001610a53929190611d9f565b6040516020818303038152906040525b915050919050565b600080610a76610b0d565b90508060060160008573ffffffffffffffffffffffffffffffffffffffff1673ffffffffffffffffffffffffffffffffffffffff16815260200190815260200160002060008473ffffffffffffffffffffffffffffffffffffffff1673ffffffffffffffffffffffffffffffffffffffff16815260200190815260200160002060009054906101000a900460ff1691505092915050565b6000807fa7dd434add67a973f5647cf03b4c2f6cf4bf5c1fc7f2ac8b3891ebb3133b346690508091505090565b600080610b45610b0d565b9050600073ffffffffffffffffffffffffffffffffffffffff1681600301600085815260200190815260200160002060009054906101000a900473ffffffffffffffffffffffffffffffffffffffff1673ffffffffffffffffffffffffffffffffffffffff1614610bba576001915050610bc0565b60009150505b919050565b6000610bcf610b0d565b90508281600501600084815260200190815260200160002060006101000a81548173ffffffffffffffffffffffffffffffffffffffff021916908373ffffffffffffffffffffffffffffffffffffffff160217905550818373ffffffffffffffffffffffffffffffffffffffff16610c4684610731565b73ffffffffffffffffffffffffffffffffffffffff167f8c5be1e5ebec7d5bd14f71427d1e84f3dd0314c0f7b2291e5b200ac8c7c3b92560405160405180910390a4505050565b6000807f2a0147cf5b9ff63908d056e474ebe771e5673907c489029e386f7a5318ddf50190508091505090565b6000610cc582610b3a565b610d04576040517f08c379a0000000000000000000000000000000000000000000000000000000008152600401610cfb90611e35565b60405180910390fd5b6000610d0f83610731565b90508073ffffffffffffffffffffffffffffffffffffffff168473ffffffffffffffffffffffffffffffffffffffff161480610d7e57508373ffffffffffffffffffffffffffffffffffffffff16610d668461034b565b73ffffffffffffffffffffffffffffffffffffffff16145b80610d8f5750610d8e8185610a6b565b5b91505092915050565b6000610da2610b0d565b90508373ffffffffffffffffffffffffffffffffffffffff16610dc483610731565b73ffffffffffffffffffffffffffffffffffffffff1614610e1a576040517f08c379a0000000000000000000000000000000000000000000000000000000008152600401610e1190611ec7565b60405180910390fd5b600073ffffffffffffffffffffffffffffffffffffffff168373ffffffffffffffffffffffffffffffffffffffff161415610e8a576040517f08c379a0000000000000000000000000000000000000000000000000000000008152600401610e8190611f59565b60405180910390fd5b610e95848484611362565b610ea0600083610bc5565b60018160040160008673ffffffffffffffffffffffffffffffffffffffff1673ffffffffffffffffffffffffffffffffffffffff1681526020019081526020016000206000828254610ef29190611fa8565b9250508190555060018160040160008573ffffffffffffffffffffffffffffffffffffffff1673ffffffffffffffffffffffffffffffffffffffff1681526020019081526020016000206000828254610f4b9190611fdc565b925050819055508281600301600084815260200190815260200160002060006101000a81548173ffffffffffffffffffffffffffffffffffffffff021916908373ffffffffffffffffffffffffffffffffffffffff160217905550818373ffffffffffffffffffffffffffffffffffffffff168573ffffffffffffffffffffffffffffffffffffffff167fddf252ad1be2c89b69c2b068fc378daa952ba7f163c4a11628f55a4df523b3ef60405160405180910390a461100c848484611367565b50505050565b8173ffffffffffffffffffffffffffffffffffffffff168373ffffffffffffffffffffffffffffffffffffffff161415611081576040517f08c379a00000000000000000000000000000000000000000000000000000000081526004016110789061207e565b60405180910390fd5b600061108b610b0d565b9050818160060160008673ffffffffffffffffffffffffffffffffffffffff1673ffffffffffffffffffffffffffffffffffffffff16815260200190815260200160002060008573ffffffffffffffffffffffffffffffffffffffff1673ffffffffffffffffffffffffffffffffffffffff16815260200190815260200160002060006101000a81548160ff0219169083151502179055508273ffffffffffffffffffffffffffffffffffffffff168473ffffffffffffffffffffffffffffffffffffffff167f17307eab39ab6107e8899845ad3d59bd9653f200f220920489ca2b5937696c31846040516111809190611a33565b60405180910390a350505050565b611199848484610d98565b6111a58484848461136c565b6111e4576040517f08c379a00000000000000000000000000000000000000000000000000000000081526004016111db90612110565b60405180910390fd5b50505050565b606060405180602001604052806000815250905090565b60606000821415611249576040518060400160405280600181526020017f3000000000000000000000000000000000000000000000000000000000000000815250905061135d565b600082905060005b6000821461127b57808061126490612130565b915050600a8261127491906121a8565b9150611251565b60008167ffffffffffffffff81111561129757611296611836565b5b6040519080825280601f01601f1916602001820160405280156112c95781602001600182028036833780820191505090505b5090505b60008514611356576001826112e29190611fa8565b9150600a856112f191906121d9565b60306112fd9190611fdc565b60f81b8183815181106113135761131261220a565b5b60200101907effffffffffffffffffffffffffffffffffffffffffffffffffffffffffffff1916908160001a905350600a8561134f91906121a8565b94506112cd565b8093505050505b919050565b505050565b505050565b600061138d8473ffffffffffffffffffffffffffffffffffffffff166114ed565b156114e0578373ffffffffffffffffffffffffffffffffffffffff1663150b7a02338786866040518563ffffffff1660e01b81526004016113d1949392919061228e565b6020604051808303816000875af192505050801561140d57506040513d601f19601f8201168201806040525081019061140a9190612332565b60015b611490573d806000811461143d576040519150601f19603f3d011682016040523d82523d6000602084013e611442565b606091505b50600081511415611488576040517f08c379a000000000000000000000000000000000000000000000000000000000815260040161147f90612110565b60405180910390fd5b805181602001fd5b63150b7a0260e01b7bffffffffffffffffffffffffffffffffffffffffffffffffffffffff1916817bffffffffffffffffffffffffffffffffffffffffffffffffffffffff1916149150506114e5565b600190505b949350505050565b6000808273ffffffffffffffffffffffffffffffffffffffff163b119050919050565b600081519050919050565b600082825260208201905092915050565b60005b8381101561154a57808201518184015260208101905061152f565b83811115611559576000848401525b50505050565b6000601f19601f8301169050919050565b600061157b82611510565b611585818561151b565b935061159581856020860161152c565b61159e8161155f565b840191505092915050565b600060208201905081810360008301526115c38184611570565b905092915050565b6000604051905090565b600080fd5b600080fd5b6000819050919050565b6115f2816115df565b81146115fd57600080fd5b50565b60008135905061160f816115e9565b92915050565b60006020828403121561162b5761162a6115d5565b5b600061163984828501611600565b91505092915050565b600073ffffffffffffffffffffffffffffffffffffffff82169050919050565b600061166d82611642565b9050919050565b61167d81611662565b82525050565b60006020820190506116986000830184611674565b92915050565b6116a781611662565b81146116b257600080fd5b50565b6000813590506116c48161169e565b92915050565b600080604083850312156116e1576116e06115d5565b5b60006116ef858286016116b5565b925050602061170085828601611600565b9150509250929050565b611713816115df565b82525050565b600060208201905061172e600083018461170a565b92915050565b60008060006060848603121561174d5761174c6115d5565b5b600061175b868287016116b5565b935050602061176c868287016116b5565b925050604061177d86828701611600565b9150509250925092565b60006020828403121561179d5761179c6115d5565b5b60006117ab848285016116b5565b91505092915050565b60008115159050919050565b6117c9816117b4565b81146117d457600080fd5b50565b6000813590506117e6816117c0565b92915050565b60008060408385031215611803576118026115d5565b5b6000611811858286016116b5565b9250506020611822858286016117d7565b9150509250929050565b600080fd5b600080fd5b7f4e487b7100000000000000000000000000000000000000000000000000000000600052604160045260246000fd5b61186e8261155f565b810181811067ffffffffffffffff8211171561188d5761188c611836565b5b80604052505050565b60006118a06115cb565b90506118ac8282611865565b919050565b600067ffffffffffffffff8211156118cc576118cb611836565b5b6118d58261155f565b9050602081019050919050565b82818337600083830152505050565b60006119046118ff846118b1565b611896565b9050828152602081018484840111156119205761191f611831565b5b61192b8482856118e2565b509392505050565b600082601f8301126119485761194761182c565b5b81356119588482602086016118f1565b91505092915050565b6000806000806080858703121561197b5761197a6115d5565b5b6000611989878288016116b5565b945050602061199a878288016116b5565b93505060406119ab87828801611600565b925050606085013567ffffffffffffffff8111156119cc576119cb6115da565b5b6119d887828801611933565b91505092959194509250565b600080604083850312156119fb576119fa6115d5565b5b6000611a09858286016116b5565b9250506020611a1a858286016116b5565b9150509250929050565b611a2d816117b4565b82525050565b6000602082019050611a486000830184611a24565b92915050565b7f4e487b7100000000000000000000000000000000000000000000000000000000600052602260045260246000fd5b60006002820490506001821680611a9557607f821691505b60208210811415611aa957611aa8611a4e565b5b50919050565b7f4552433732313a20617070726f76656420717565727920666f72206e6f6e657860008201527f697374656e7420746f6b656e0000000000000000000000000000000000000000602082015250565b6000611b0b602c8361151b565b9150611b1682611aaf565b604082019050919050565b60006020820190508181036000830152611b3a81611afe565b9050919050565b7f4552433732313a207472616e736665722063616c6c6572206973206e6f74206f60008201527f776e6572206e6f7220617070726f766564000000000000000000000000000000602082015250565b6000611b9d60318361151b565b9150611ba882611b41565b604082019050919050565b60006020820190508181036000830152611bcc81611b90565b9050919050565b7f4552433732313a206f776e657220717565727920666f72206e6f6e657869737460008201527f656e7420746f6b656e0000000000000000000000000000000000000000000000602082015250565b6000611c2f60298361151b565b9150611c3a82611bd3565b604082019050919050565b60006020820190508181036000830152611c5e81611c22565b9050919050565b7f7a65726f20616464726573730000000000000000000000000000000000000000600082015250565b6000611c9b600c8361151b565b9150611ca682611c65565b602082019050919050565b60006020820190508181036000830152611cca81611c8e565b9050919050565b7f4552433732314d657461646174613a2055524920717565727920666f72206e6f60008201527f6e6578697374656e7420746f6b656e0000000000000000000000000000000000602082015250565b6000611d2d602f8361151b565b9150611d3882611cd1565b604082019050919050565b60006020820190508181036000830152611d5c81611d20565b9050919050565b600081905092915050565b6000611d7982611510565b611d838185611d63565b9350611d9381856020860161152c565b80840191505092915050565b6000611dab8285611d6e565b9150611db78284611d6e565b91508190509392505050565b7f4552433732313a206f70657261746f7220717565727920666f72206e6f6e657860008201527f697374656e7420746f6b656e0000000000000000000000000000000000000000602082015250565b6000611e1f602c8361151b565b9150611e2a82611dc3565b604082019050919050565b60006020820190508181036000830152611e4e81611e12565b9050919050565b7f4552433732313a207472616e736665722066726f6d20696e636f72726563742060008201527f6f776e6572000000000000000000000000000000000000000000000000000000602082015250565b6000611eb160258361151b565b9150611ebc82611e55565b604082019050919050565b60006020820190508181036000830152611ee081611ea4565b9050919050565b7f4552433732313a207472616e7366657220746f20746865207a65726f2061646460008201527f7265737300000000000000000000000000000000000000000000000000000000602082015250565b6000611f4360248361151b565b9150611f4e82611ee7565b604082019050919050565b60006020820190508181036000830152611f7281611f36565b9050919050565b7f4e487b7100000000000000000000000000000000000000000000000000000000600052601160045260246000fd5b6000611fb3826115df565b9150611fbe836115df565b925082821015611fd157611fd0611f79565b5b828203905092915050565b6000611fe7826115df565b9150611ff2836115df565b9250827fffffffffffffffffffffffffffffffffffffffffffffffffffffffffffffffff0382111561202757612026611f79565b5b828201905092915050565b7f4552433732313a20617070726f766520746f2063616c6c657200000000000000600082015250565b600061206860198361151b565b915061207382612032565b602082019050919050565b600060208201905081810360008301526120978161205b565b9050919050565b7f4552433732313a207472616e7366657220746f206e6f6e20455243373231526560008201527f63656976657220696d706c656d656e7465720000000000000000000000000000602082015250565b60006120fa60328361151b565b91506121058261209e565b604082019050919050565b60006020820190508181036000830152612129816120ed565b9050919050565b600061213b826115df565b91507fffffffffffffffffffffffffffffffffffffffffffffffffffffffffffffffff82141561216e5761216d611f79565b5b600182019050919050565b7f4e487b7100000000000000000000000000000000000000000000000000000000600052601260045260246000fd5b60006121b3826115df565b91506121be836115df565b9250826121ce576121cd612179565b5b828204905092915050565b60006121e4826115df565b91506121ef836115df565b9250826121ff576121fe612179565b5b828206905092915050565b7f4e487b7100000000000000000000000000000000000000000000000000000000600052603260045260246000fd5b600081519050919050565b600082825260208201905092915050565b600061226082612239565b61226a8185612244565b935061227a81856020860161152c565b6122838161155f565b840191505092915050565b60006080820190506122a36000830187611674565b6122b06020830186611674565b6122bd604083018561170a565b81810360608301526122cf8184612255565b905095945050505050565b60007fffffffff0000000000000000000000000000000000000000000000000000000082169050919050565b61230f816122da565b811461231a57600080fd5b50565b60008151905061232c81612306565b92915050565b600060208284031215612348576123476115d5565b5b60006123568482850161231d565b9150509291505056fea2646970667358221220960b2e86f5940bfaddc53443571d1cfe6479f8dda1beeae37b14b847be38df7a64736f6c634300080b0033",
  "immutableReferences": {},
  "source": "//SPDX-License-Identifier: MIT\n\npragma solidity 0.8.11;\n\nimport \"./interfaces/IERC721.sol\";\nimport \"./utils/Address.sol\";\nimport \"./utils/Strings.sol\";\nimport {LibDixel} from \"./libraries/LibDixel.sol\";\nimport \"./interfaces/IERC721Receiver.sol\";\n\ncontract ERC721 is IERC721 { \n    using Address for address;\n    using Strings for uint256;\n\n\n    function name() public view returns(string memory) {\n        LibDixel.DixelStorage storage ds = LibDixel.dixelStorage();\n        return ds.name;\n    }\n\n    function symbol() public view returns(string memory){\n        LibDixel.DixelStorage storage ds = LibDixel.dixelStorage();\n        return ds.symbol;\n    }\n\n    function totalSupply() public view returns(uint) {\n        LibDixel.SupplyStorage storage ss = LibDixel.supplyStorage();\n        return ss.totalSupply;\n    }\n\n    function _exists(uint256 tokenId) internal view returns (bool){\n        LibDixel.DixelStorage storage ds = LibDixel.dixelStorage();\n        if(ds.owners[tokenId] != address(0)) return true;\n        else return false;\n    }\n\n        /**\n     * @dev See {IERC721Metadata-tokenURI}.\n     */\n    function tokenURI(uint256 tokenId) public view virtual returns (string memory) {\n        require(_exists(tokenId), \"ERC721Metadata: URI query for nonexistent token\");\n\n        string memory baseURI = _baseURI();\n        return bytes(baseURI).length > 0 ? string(abi.encodePacked(baseURI, tokenId.toString())) : \"\";\n    }\n\n    /**\n     * @dev Base URI for computing {tokenURI}. If set, the resulting URI for each\n     * token will be the concatenation of the `baseURI` and the `tokenId`. Empty\n     * by default, can be overriden in child contracts.\n     */\n    function _baseURI() internal view virtual returns (string memory) {\n        return \"\";\n    }\n\n    /**\n     * @dev Returns the number of tokens in ``owner``'s account.\n     */\n    function balanceOf(address owner) public override view returns (uint256 balance){\n        LibDixel.DixelStorage storage ds = LibDixel.dixelStorage();\n        require(owner != address(0), \"zero address\");\n        return ds.balances[owner];\n    }\n\n    /**\n     * @dev Returns the owner of the `tokenId` token.\n     *\n     * Requirements:\n     *\n     * - `tokenId` must exist.\n     */\n    function ownerOf(uint256 _tokenId) public override view returns (address){\n        LibDixel.DixelStorage storage ds = LibDixel.dixelStorage();\n        address owner = ds.owners[_tokenId];\n        require(owner != address(0), \"ERC721: owner query for nonexistent token\");\n        return owner;\n    }\n\n        /**\n     * @dev Safely transfers `tokenId` token from `from` to `to`, checking first that contract recipients\n     * are aware of the ERC721 protocol to prevent tokens from being forever locked.\n     *\n     * Requirements:\n     *\n     * - `from` cannot be the zero address.\n     * - `to` cannot be the zero address.\n     * - `tokenId` token must exist and be owned by `from`.\n     * - If the caller is not `from`, it must be have been allowed to move this token by either {approve} or {setApprovalForAll}.\n     * - If `to` refers to a smart contract, it must implement {IERC721Receiver-onERC721Received}, which is called upon a safe transfer.\n     *\n     * Emits a {Transfer} event.\n     */\n    function safeTransferFrom(\n        address from,\n        address to,\n        uint256 tokenId\n    ) public virtual override {\n        safeTransferFrom(from, to, tokenId, \"\");\n    }\n\n        /**\n     * @dev Safely transfers `tokenId` token from `from` to `to`.\n     *\n     * Requirements:\n     *\n     * - `from` cannot be the zero address.\n     * - `to` cannot be the zero address.\n     * - `tokenId` token must exist and be owned by `from`.\n     * - If the caller is not `from`, it must be approved to move this token by either {approve} or {setApprovalForAll}.\n     * - If `to` refers to a smart contract, it must implement {IERC721Receiver-onERC721Received}, which is called upon a safe transfer.\n     *\n     * Emits a {Transfer} event.\n     */\n    function safeTransferFrom(\n        address _from,\n        address _to,\n        uint256 _tokenId,\n        bytes memory _data\n    ) public virtual override {\n        require(_isApprovedOrOwner(msg.sender, _tokenId), \"ERC721: transfer caller is not owner nor approved\");\n        _safeTransfer(_from, _to, _tokenId, _data);\n    }\n\n    /**\n     * @dev Transfers `tokenId` token from `from` to `to`.\n     *\n     * WARNING: Usage of this method is discouraged, use {safeTransferFrom} whenever possible.\n     *\n     * Requirements:\n     *\n     * - `from` cannot be the zero address.\n     * - `to` cannot be the zero address.\n     * - `tokenId` token must be owned by `from`.\n     * - If the caller is not `from`, it must be approved to move this token by either {approve} or {setApprovalForAll}.\n     *\n     * Emits a {Transfer} event.\n     */\n    function transferFrom(\n        address _from,\n        address _to,\n        uint256 _tokenId\n    ) public override{\n        require(_isApprovedOrOwner(msg.sender, _tokenId), \"ERC721: transfer caller is not owner nor approved\");\n\n        _transfer(_from, _to, _tokenId);\n    }\n\n        /**\n     * @dev Safely transfers `tokenId` token from `from` to `to`, checking first that contract recipients\n     * are aware of the ERC721 protocol to prevent tokens from being forever locked.\n     *\n     * `_data` is additional data, it has no specified format and it is sent in call to `to`.\n     *\n     * This internal function is equivalent to {safeTransferFrom}, and can be used to e.g.\n     * implement alternative mechanisms to perform token transfer, such as signature-based.\n     *\n     * Requirements:\n     *\n     * - `from` cannot be the zero address.\n     * - `to` cannot be the zero address.\n     * - `tokenId` token must exist and be owned by `from`.\n     * - If `to` refers to a smart contract, it must implement {IERC721Receiver-onERC721Received}, which is called upon a safe transfer.\n     *\n     * Emits a {Transfer} event.\n     */\n    function _safeTransfer(\n        address _from,\n        address _to,\n        uint256 _tokenId,\n        bytes memory _data\n    ) internal virtual {\n        _transfer(_from, _to, _tokenId);\n        require(_checkOnERC721Received(_from, _to, _tokenId, _data), \"ERC721: transfer to non ERC721Receiver implementer\");\n    }\n\n    /**\n     * @dev Transfers `tokenId` from `from` to `to`.\n     *  As opposed to {transferFrom}, this imposes no restrictions on msg.sender.\n     *\n     * Requirements:\n     *\n     * - `to` cannot be the zero address.\n     * - `tokenId` token must be owned by `from`.\n     *\n     * Emits a {Transfer} event.\n     */\n        function _transfer(\n        address _from,\n        address _to,\n        uint256 _tokenId\n    ) internal virtual {\n        LibDixel.DixelStorage storage ds = LibDixel.dixelStorage();\n        require(ERC721.ownerOf(_tokenId) == _from, \"ERC721: transfer from incorrect owner\");\n        require(_to != address(0), \"ERC721: transfer to the zero address\");\n\n        _beforeTokenTransfer(_from, _to, _tokenId);\n\n        // Clear approvals from the previous owner\n        _approve(address(0), _tokenId);\n\n        ds.balances[_from] -= 1;\n        ds.balances[_to] += 1;\n        ds.owners[_tokenId] = _to;\n\n        emit Transfer(_from, _to, _tokenId);\n\n        _afterTokenTransfer(_from, _to, _tokenId);\n    }\n\n    /**\n     * @dev Gives permission to `to` to transfer `tokenId` token to another account.\n     * The approval is cleared when the token is transferred.\n     *\n     * Only a single account can be approved at a time, so approving the zero address clears previous approvals.\n     *\n     * Requirements:\n     *\n     * - The caller must own the token or be an approved operator.\n     * - `tokenId` must exist.\n     *\n     * Emits an {Approval} event.\n     */\n    function approve(address _to, uint256 _tokenId) public override{\n        LibDixel.DixelStorage storage ds = LibDixel.dixelStorage();\n        require(_to != address(0));\n        require(ds.owners[_tokenId] !=address(0));\n        require(ds.owners[_tokenId] != _to);\n        require( msg.sender == ds.owners[_tokenId] || ds.operatorApprovals[ds.owners[_tokenId]][msg.sender] == true);\n        ds.tokenApprovals[_tokenId] = _to;\n\n        _approve(_to, _tokenId);\n    }\n\n        /**\n     * @dev Approve `to` to operate on `tokenId`\n     *\n     * Emits a {Approval} event.\n     */\n    function _approve(address _to, uint256 _tokenId) internal virtual {\n        LibDixel.DixelStorage storage ds = LibDixel.dixelStorage();\n        ds.tokenApprovals[_tokenId] = _to;\n        emit Approval(ERC721.ownerOf(_tokenId), _to, _tokenId);\n    }\n\n\n    /**\n     * @dev Returns the account approved for `tokenId` token.\n     *\n     * Requirements:\n     *\n     * - `tokenId` must exist.\n     */\n    function getApproved(uint256 tokenId) public override view returns (address){\n        LibDixel.DixelStorage storage ds = LibDixel.dixelStorage();\n        require(_exists(tokenId), \"ERC721: approved query for nonexistent token\");\n\n        return ds.tokenApprovals[tokenId];\n    }\n\n    function mint(address _to, uint _tokenId) internal {\n        LibDixel.DixelStorage storage ds = LibDixel.dixelStorage();\n        require(_to != address(0), \"ERC721: mint to the zero address\");\n        require(!_exists(_tokenId), \"ERC721: token already minted\");\n        ds.balances[_to] += 1;\n        ds.owners[_tokenId] = _to;\n\n        emit Transfer(address(0), _to, _tokenId);\n    }\n\n            /**\n     * @dev Approve `operator` to operate on all of `owner` tokens\n     *\n     * Emits a {ApprovalForAll} event.\n     */\n    function _setApprovalForAll(\n        address owner,\n        address operator,\n        bool approved\n    ) internal virtual {\n        require(owner != operator, \"ERC721: approve to caller\");\n        LibDixel.DixelStorage storage ds = LibDixel.dixelStorage();\n        ds.operatorApprovals[owner][operator] = approved;\n        emit ApprovalForAll(owner, operator, approved);\n    }\n\n    /**\n     * @dev Approve or remove `operator` as an operator for the caller.\n     * Operators can call {transferFrom} or {safeTransferFrom} for any token owned by the caller.\n     *\n     * Requirements:\n     *\n     * - The `operator` cannot be the caller.\n     *\n     * Emits an {ApprovalForAll} event.\n     */\n    function setApprovalForAll(address operator, bool _approved) public override {\n        _setApprovalForAll(msg.sender, operator, _approved);\n    }\n\n    /**\n     * @dev Returns if the `operator` is allowed to manage all of the assets of `owner`.\n     *\n     * See {setApprovalForAll}\n     */\n    function isApprovedForAll(address owner, address operator) public override view returns (bool){\n        LibDixel.DixelStorage storage ds = LibDixel.dixelStorage();\n        return ds.operatorApprovals[owner][operator];\n    }\n\n        /**\n     * @dev Returns whether `spender` is allowed to manage `tokenId`.\n     *\n     * Requirements:\n     *\n     * - `tokenId` must exist.\n     */\n    function _isApprovedOrOwner(address spender, uint256 tokenId) internal view virtual returns (bool) {\n        require(_exists(tokenId), \"ERC721: operator query for nonexistent token\");\n        address owner = ERC721.ownerOf(tokenId);\n        return (spender == owner || getApproved(tokenId) == spender || isApprovedForAll(owner, spender));\n    }\n\n    /**\n     * @dev Internal function to invoke {IERC721Receiver-onERC721Received} on a target address.\n     * The call is not executed if the target address is not a contract.\n     *\n     * @param from address representing the previous owner of the given token ID\n     * @param to target address that will receive the tokens\n     * @param tokenId uint256 ID of the token to be transferred\n     * @param _data bytes optional data to send along with the call\n     * @return bool whether the call correctly returned the expected magic value\n     */\n    function _checkOnERC721Received(\n        address from,\n        address to,\n        uint256 tokenId,\n        bytes memory _data\n    ) private returns (bool) {\n        if (to.isContract()) {\n            try IERC721Receiver(to).onERC721Received(msg.sender, from, tokenId, _data) returns (bytes4 retval) {\n                return retval == IERC721Receiver.onERC721Received.selector;\n            } catch (bytes memory reason) {\n                if (reason.length == 0) {\n                    revert(\"ERC721: transfer to non ERC721Receiver implementer\");\n                } else {\n                    assembly {\n                        revert(add(32, reason), mload(reason))\n                    }\n                }\n            }\n        } else {\n            return true;\n        }\n    }\n\n        /**\n     * @dev Hook that is called before any token transfer. This includes minting\n     * and burning.\n     *\n     * Calling conditions:\n     *\n     * - When `from` and `to` are both non-zero, ``from``'s `tokenId` will be\n     * transferred to `to`.\n     * - When `from` is zero, `tokenId` will be minted for `to`.\n     * - When `to` is zero, ``from``'s `tokenId` will be burned.\n     * - `from` and `to` are never both zero.\n     *\n     * To learn more about hooks, head to xref:ROOT:extending-contracts.adoc#using-hooks[Using Hooks].\n     */\n    function _beforeTokenTransfer(\n        address from,\n        address to,\n        uint256 tokenId\n    ) internal virtual {}\n\n        /**\n     * @dev Hook that is called after any transfer of tokens. This includes\n     * minting and burning.\n     *\n     * Calling conditions:\n     *\n     * - when `from` and `to` are both non-zero.\n     * - `from` and `to` are never both zero.\n     *\n     * To learn more about hooks, head to xref:ROOT:extending-contracts.adoc#using-hooks[Using Hooks].\n     */\n    function _afterTokenTransfer(\n        address from,\n        address to,\n        uint256 tokenId\n    ) internal virtual {}\n\n    // function supportsInterface(bytes4 interfaceId) external virtual view returns (bool){}\n}",
  "sourcePath": "/home/torof/blockchain-developer-bootcamp-final-project/contracts/ERC721.sol",
  "compiler": {
    "name": "solc",
    "version": "0.8.11+commit.d7f03943.Emscripten.clang"
  },
  "schemaVersion": "3.4.4",
  "updatedAt": "2022-01-29T20:37:12.237Z",
  "devdoc": {
    "kind": "dev",
    "methods": {
      "approve(address,uint256)": {
        "details": "Gives permission to `to` to transfer `tokenId` token to another account. The approval is cleared when the token is transferred. Only a single account can be approved at a time, so approving the zero address clears previous approvals. Requirements: - The caller must own the token or be an approved operator. - `tokenId` must exist. Emits an {Approval} event."
      },
      "balanceOf(address)": {
        "details": "Returns the number of tokens in ``owner``'s account."
      },
      "getApproved(uint256)": {
        "details": "Returns the account approved for `tokenId` token. Requirements: - `tokenId` must exist."
      },
      "isApprovedForAll(address,address)": {
        "details": "Returns if the `operator` is allowed to manage all of the assets of `owner`. See {setApprovalForAll}"
      },
      "ownerOf(uint256)": {
        "details": "Returns the owner of the `tokenId` token. Requirements: - `tokenId` must exist."
      },
      "safeTransferFrom(address,address,uint256)": {
        "details": "Safely transfers `tokenId` token from `from` to `to`, checking first that contract recipients are aware of the ERC721 protocol to prevent tokens from being forever locked. Requirements: - `from` cannot be the zero address. - `to` cannot be the zero address. - `tokenId` token must exist and be owned by `from`. - If the caller is not `from`, it must be have been allowed to move this token by either {approve} or {setApprovalForAll}. - If `to` refers to a smart contract, it must implement {IERC721Receiver-onERC721Received}, which is called upon a safe transfer. Emits a {Transfer} event."
      },
      "safeTransferFrom(address,address,uint256,bytes)": {
        "details": "Safely transfers `tokenId` token from `from` to `to`. Requirements: - `from` cannot be the zero address. - `to` cannot be the zero address. - `tokenId` token must exist and be owned by `from`. - If the caller is not `from`, it must be approved to move this token by either {approve} or {setApprovalForAll}. - If `to` refers to a smart contract, it must implement {IERC721Receiver-onERC721Received}, which is called upon a safe transfer. Emits a {Transfer} event."
      },
      "setApprovalForAll(address,bool)": {
        "details": "Approve or remove `operator` as an operator for the caller. Operators can call {transferFrom} or {safeTransferFrom} for any token owned by the caller. Requirements: - The `operator` cannot be the caller. Emits an {ApprovalForAll} event."
      },
      "tokenURI(uint256)": {
        "details": "See {IERC721Metadata-tokenURI}."
      },
      "transferFrom(address,address,uint256)": {
        "details": "Transfers `tokenId` token from `from` to `to`. WARNING: Usage of this method is discouraged, use {safeTransferFrom} whenever possible. Requirements: - `from` cannot be the zero address. - `to` cannot be the zero address. - `tokenId` token must be owned by `from`. - If the caller is not `from`, it must be approved to move this token by either {approve} or {setApprovalForAll}. Emits a {Transfer} event."
      }
    },
    "version": 1
  },
  "userdoc": {
    "kind": "user",
    "methods": {},
    "version": 1
  }
}