{
  "contractName": "GetterFacet",
  "abi": [
    {
      "inputs": [],
      "name": "getDixels",
      "outputs": [
        {
          "components": [
            {
              "internalType": "uint256",
              "name": "level",
              "type": "uint256"
            },
            {
              "internalType": "string",
              "name": "URI",
              "type": "string"
            },
            {
              "internalType": "string[]",
              "name": "levelURI",
              "type": "string[]"
            },
            {
              "internalType": "uint256",
              "name": "rarity",
              "type": "uint256"
            },
            {
              "internalType": "uint256",
              "name": "stakeInitTime",
              "type": "uint256"
            },
            {
              "internalType": "bool",
              "name": "staked",
              "type": "bool"
            }
          ],
          "internalType": "struct Dixel[]",
          "name": "",
          "type": "tuple[]"
        }
      ],
      "stateMutability": "view",
      "type": "function",
      "constant": true
    },
    {
      "inputs": [],
      "name": "returnSupplies",
      "outputs": [
        {
          "components": [
            {
              "internalType": "uint256",
              "name": "totalSupply",
              "type": "uint256"
            },
            {
              "internalType": "uint256",
              "name": "commonSupply",
              "type": "uint256"
            },
            {
              "internalType": "uint256",
              "name": "uncommonSupply",
              "type": "uint256"
            },
            {
              "internalType": "uint256",
              "name": "rareSupply",
              "type": "uint256"
            },
            {
              "internalType": "uint256",
              "name": "legendarySupply",
              "type": "uint256"
            },
            {
              "internalType": "uint256",
              "name": "mintedSupply",
              "type": "uint256"
            },
            {
              "internalType": "uint256",
              "name": "lotterySupply",
              "type": "uint256"
            },
            {
              "internalType": "uint256",
              "name": "collectorsSupply",
              "type": "uint256"
            },
            {
              "internalType": "uint256",
              "name": "availableToGen",
              "type": "uint256"
            }
          ],
          "internalType": "struct LibDixel.SupplyStorage",
          "name": "supplies",
          "type": "tuple"
        }
      ],
      "stateMutability": "pure",
      "type": "function",
      "constant": true
    },
    {
      "inputs": [],
      "name": "contractBalance",
      "outputs": [
        {
          "internalType": "uint256",
          "name": "",
          "type": "uint256"
        }
      ],
      "stateMutability": "view",
      "type": "function",
      "constant": true
    },
    {
      "inputs": [],
      "name": "returnLotteryTickets",
      "outputs": [
        {
          "internalType": "uint256",
          "name": "",
          "type": "uint256"
        }
      ],
      "stateMutability": "view",
      "type": "function",
      "constant": true
    },
    {
      "inputs": [],
      "name": "returnFreeMintTickets",
      "outputs": [
        {
          "internalType": "uint256",
          "name": "",
          "type": "uint256"
        }
      ],
      "stateMutability": "view",
      "type": "function",
      "constant": true
    },
    {
      "inputs": [],
      "name": "returnRegisteredTickets",
      "outputs": [
        {
          "internalType": "uint256",
          "name": "",
          "type": "uint256"
        }
      ],
      "stateMutability": "view",
      "type": "function",
      "constant": true
    },
    {
      "inputs": [],
      "name": "returnStarmWon",
      "outputs": [
        {
          "internalType": "uint256",
          "name": "",
          "type": "uint256"
        }
      ],
      "stateMutability": "view",
      "type": "function",
      "constant": true
    },
    {
      "inputs": [],
      "name": "returnLotteryWinners",
      "outputs": [
        {
          "components": [
            {
              "internalType": "uint256",
              "name": "timestamp",
              "type": "uint256"
            },
            {
              "internalType": "address",
              "name": "dixelMintWinner",
              "type": "address"
            },
            {
              "internalType": "address",
              "name": "starmWinner",
              "type": "address"
            }
          ],
          "internalType": "struct Winners[]",
          "name": "",
          "type": "tuple[]"
        }
      ],
      "stateMutability": "view",
      "type": "function",
      "constant": true
    }
  ],
  "bytecode": "0x608060405234801561001057600080fd5b50610d6f806100206000396000f3fe608060405234801561001057600080fd5b50600436106100885760003560e01c8063ca2265511161005b578063ca22655114610105578063d225202414610123578063d3f9707714610141578063dcaefe601461015f57610088565b806315a3361f1461008d57806344fd1f2e146100ab5780638b0e9a61146100c95780638b7afe2e146100e7575b600080fd5b61009561017d565b6040516100a29190610a65565b60405180910390f35b6100b361038f565b6040516100c09190610bb9565b60405180910390f35b6100d16104ad565b6040516100de9190610bea565b60405180910390f35b6100ef610502565b6040516100fc9190610bea565b60405180910390f35b61010d61050a565b60405161011a9190610bea565b60405180910390f35b61012b61055f565b6040516101389190610bea565b60405180910390f35b6101496105b4565b6040516101569190610bea565b60405180910390f35b610167610609565b6040516101749190610cbc565b60405180910390f35b60606000610189610684565b905080600001805480602002602001604051908101604052809291908181526020016000905b8282101561038557838290600052602060002090600602016040518060c0016040529081600082015481526020016001820180546101ec90610d07565b80601f016020809104026020016040519081016040528092919081815260200182805461021890610d07565b80156102655780601f1061023a57610100808354040283529160200191610265565b820191906000526020600020905b81548152906001019060200180831161024857829003601f168201915b5050505050815260200160028201805480602002602001604051908101604052809291908181526020016000905b8282101561033f5783829060005260206000200180546102b290610d07565b80601f01602080910402602001604051908101604052809291908181526020018280546102de90610d07565b801561032b5780601f106103005761010080835404028352916020019161032b565b820191906000526020600020905b81548152906001019060200180831161030e57829003601f168201915b505050505081526020019060010190610293565b50505050815260200160038201548152602001600482015481526020016005820160009054906101000a900460ff161515151581525050815260200190600101906101af565b5050505091505090565b60606103996106b1565b600201805480602002602001604051908101604052809291908181526020016000905b828210156104a45783829060005260206000209060030201604051806060016040529081600082015481526020016001820160009054906101000a900473ffffffffffffffffffffffffffffffffffffffff1673ffffffffffffffffffffffffffffffffffffffff1673ffffffffffffffffffffffffffffffffffffffff1681526020016002820160009054906101000a900473ffffffffffffffffffffffffffffffffffffffff1673ffffffffffffffffffffffffffffffffffffffff1673ffffffffffffffffffffffffffffffffffffffff1681525050815260200190600101906103bc565b50505050905090565b6000806104b86106de565b90508060000160003373ffffffffffffffffffffffffffffffffffffffff1673ffffffffffffffffffffffffffffffffffffffff1681526020019081526020016000205491505090565b600047905090565b6000806105156106b1565b90508060050160003373ffffffffffffffffffffffffffffffffffffffff1673ffffffffffffffffffffffffffffffffffffffff1681526020019081526020016000205491505090565b60008061056a6106b1565b90508060030160003373ffffffffffffffffffffffffffffffffffffffff1673ffffffffffffffffffffffffffffffffffffffff1681526020019081526020016000205491505090565b6000806105bf6106b1565b90508060040160003373ffffffffffffffffffffffffffffffffffffffff1673ffffffffffffffffffffffffffffffffffffffff1681526020019081526020016000205491505090565b610611610738565b61061961070b565b604051806101200160405290816000820154815260200160018201548152602001600282015481526020016003820154815260200160048201548152602001600582015481526020016006820154815260200160078201548152602001600882015481525050905090565b6000807fa7dd434add67a973f5647cf03b4c2f6cf4bf5c1fc7f2ac8b3891ebb3133b346690508091505090565b6000807f6bc844e8f78d8de9f3b120d94fd2efae4c9d3b45b2ddde509e79ee4515f298cc90508091505090565b6000807f1b091a9fb79d8a0a791074366f5ea0051fa79aed1deb4e83519829de6fb92bb190508091505090565b6000807f2a0147cf5b9ff63908d056e474ebe771e5673907c489029e386f7a5318ddf50190508091505090565b6040518061012001604052806000815260200160008152602001600081526020016000815260200160008152602001600081526020016000815260200160008152602001600081525090565b600081519050919050565b600082825260208201905092915050565b6000819050602082019050919050565b6000819050919050565b6107c3816107b0565b82525050565b600081519050919050565b600082825260208201905092915050565b60005b838110156108035780820151818401526020810190506107e8565b83811115610812576000848401525b50505050565b6000601f19601f8301169050919050565b6000610834826107c9565b61083e81856107d4565b935061084e8185602086016107e5565b61085781610818565b840191505092915050565b600081519050919050565b600082825260208201905092915050565b6000819050602082019050919050565b600061089a8383610829565b905092915050565b6000602082019050919050565b60006108ba82610862565b6108c4818561086d565b9350836020820285016108d68561087e565b8060005b8581101561091257848403895281516108f3858261088e565b94506108fe836108a2565b925060208a019950506001810190506108da565b50829750879550505050505092915050565b60008115159050919050565b61093981610924565b82525050565b600060c08301600083015161095760008601826107ba565b506020830151848203602086015261096f8282610829565b9150506040830151848203604086015261098982826108af565b915050606083015161099e60608601826107ba565b5060808301516109b160808601826107ba565b5060a08301516109c460a0860182610930565b508091505092915050565b60006109db838361093f565b905092915050565b6000602082019050919050565b60006109fb82610784565b610a05818561078f565b935083602082028501610a17856107a0565b8060005b85811015610a535784840389528151610a3485826109cf565b9450610a3f836109e3565b925060208a01995050600181019050610a1b565b50829750879550505050505092915050565b60006020820190508181036000830152610a7f81846109f0565b905092915050565b600081519050919050565b600082825260208201905092915050565b6000819050602082019050919050565b600073ffffffffffffffffffffffffffffffffffffffff82169050919050565b6000610ade82610ab3565b9050919050565b610aee81610ad3565b82525050565b606082016000820151610b0a60008501826107ba565b506020820151610b1d6020850182610ae5565b506040820151610b306040850182610ae5565b50505050565b6000610b428383610af4565b60608301905092915050565b6000602082019050919050565b6000610b6682610a87565b610b708185610a92565b9350610b7b83610aa3565b8060005b83811015610bac578151610b938882610b36565b9750610b9e83610b4e565b925050600181019050610b7f565b5085935050505092915050565b60006020820190508181036000830152610bd38184610b5b565b905092915050565b610be4816107b0565b82525050565b6000602082019050610bff6000830184610bdb565b92915050565b61012082016000820151610c1c60008501826107ba565b506020820151610c2f60208501826107ba565b506040820151610c4260408501826107ba565b506060820151610c5560608501826107ba565b506080820151610c6860808501826107ba565b5060a0820151610c7b60a08501826107ba565b5060c0820151610c8e60c08501826107ba565b5060e0820151610ca160e08501826107ba565b50610100820151610cb66101008501826107ba565b50505050565b600061012082019050610cd26000830184610c05565b92915050565b7f4e487b7100000000000000000000000000000000000000000000000000000000600052602260045260246000fd5b60006002820490506001821680610d1f57607f821691505b60208210811415610d3357610d32610cd8565b5b5091905056fea26469706673582212207ce8855517d54ba600bbc00f19e9eae882169884a9eecf7a848692fb560c923d64736f6c634300080b0033",
  "immutableReferences": {},
  "source": "//SPDX-License-Identifier: MIT\n\npragma solidity 0.8.11;\n\nimport {LibDixel, Dixel} from \"../libraries/LibDixel.sol\";\nimport {LibLottery, Winners} from \"../libraries/LibLottery.sol\";\nimport {LibStarm} from \"../libraries/LibStarm.sol\";\n\ncontract GetterFacet{\n\n        /**\n    * @return returns the array containing all the dixels\n     */\n    function getDixels() external view returns(Dixel[] memory) {\n        LibDixel.DixelStorage storage ds = LibDixel.dixelStorage();\n        return ds.dixels;\n    }\n\n    /**\n     * @return supplies are return in a SupplyStorage struct\n     */\n    function returnSupplies() external pure returns(LibDixel.SupplyStorage memory supplies) {\n        supplies = LibDixel.supplyStorage();\n        return supplies;\n    }\n\n    /**\n     * @return it returns a uint of the contract balance in ETH\n     */\n    function contractBalance() external view returns(uint) {\n        return address(this).balance;\n    }\n\n        /**\n     * @notice\n     */\n    function returnLotteryTickets() external view returns(uint) {\n        LibLottery.LotteryStorage storage ls = LibLottery.lotteryStorage();\n        return ls.lotteryTickets[msg.sender];\n    }\n\n    /**\n     * @notice\n     */\n    function returnFreeMintTickets() external view returns(uint) {\n    LibLottery.LotteryStorage storage ls = LibLottery.lotteryStorage();\n        return ls.freeMintTickets[msg.sender];\n    }\n\n    /**\n     * @notice\n     */\n    function returnRegisteredTickets() external view returns(uint) {\n        LibLottery.LotteryStorage storage ls = LibLottery.lotteryStorage();\n        return ls.registeredTickets[msg.sender];\n    }\n\n    /**\n     * @notice\n     */\n    function returnStarmWon() external view returns(uint) {\n        LibStarm.StarmStorage storage starm = LibStarm.starmStorage();\n        return starm.starmToWithdraw[msg.sender];\n    }\n\n    /**\n     * @notice\n     */\n    function returnLotteryWinners() external view returns(Winners[] memory) {\n        return LibLottery.lotteryStorage().allWinners;\n    }\n}",
  "sourcePath": "/home/torof/blockchain-developer-bootcamp-final-project/contracts/facets/GetterFacet.sol",
  "compiler": {
    "name": "solc",
    "version": "0.8.11+commit.d7f03943.Emscripten.clang"
  },
  "schemaVersion": "3.4.4",
  "updatedAt": "2022-01-31T18:55:14.215Z",
  "networkType": "ethereum",
  "devdoc": {
    "kind": "dev",
    "methods": {
      "contractBalance()": {
        "returns": {
          "_0": "it returns a uint of the contract balance in ETH"
        }
      },
      "getDixels()": {
        "returns": {
          "_0": "returns the array containing all the dixels"
        }
      },
      "returnSupplies()": {
        "returns": {
          "supplies": "are return in a SupplyStorage struct"
        }
      }
    },
    "version": 1
  },
  "userdoc": {
    "kind": "user",
    "methods": {},
    "version": 1
  }
}