{
  "contractName": "LotteryFacet",
  "abi": [
    {
      "anonymous": false,
      "inputs": [
        {
          "indexed": false,
          "internalType": "address",
          "name": "_winner",
          "type": "address"
        }
      ],
      "name": "DixelLotteryWinners",
      "type": "event"
    },
    {
      "anonymous": false,
      "inputs": [
        {
          "indexed": true,
          "internalType": "address",
          "name": "_starter",
          "type": "address"
        },
        {
          "indexed": false,
          "internalType": "uint256",
          "name": "_init_time",
          "type": "uint256"
        },
        {
          "indexed": false,
          "internalType": "address[]",
          "name": "_winners",
          "type": "address[]"
        }
      ],
      "name": "LotteryStarted",
      "type": "event"
    },
    {
      "anonymous": false,
      "inputs": [
        {
          "indexed": true,
          "internalType": "address",
          "name": "_buyer",
          "type": "address"
        },
        {
          "indexed": false,
          "internalType": "uint256",
          "name": "_amount",
          "type": "uint256"
        }
      ],
      "name": "RegisteredTickets",
      "type": "event"
    },
    {
      "anonymous": false,
      "inputs": [
        {
          "indexed": true,
          "internalType": "address",
          "name": "_from",
          "type": "address"
        },
        {
          "indexed": false,
          "internalType": "uint256",
          "name": "_amount",
          "type": "uint256"
        }
      ],
      "name": "StarmClaimed",
      "type": "event"
    },
    {
      "anonymous": false,
      "inputs": [
        {
          "indexed": false,
          "internalType": "address",
          "name": "_winner",
          "type": "address"
        }
      ],
      "name": "StarmLotteryWinners",
      "type": "event"
    },
    {
      "anonymous": false,
      "inputs": [
        {
          "indexed": true,
          "internalType": "address",
          "name": "_buyer",
          "type": "address"
        },
        {
          "indexed": false,
          "internalType": "uint256",
          "name": "_amount",
          "type": "uint256"
        }
      ],
      "name": "TicketsBought",
      "type": "event"
    },
    {
      "inputs": [
        {
          "internalType": "address",
          "name": "_owner",
          "type": "address"
        }
      ],
      "name": "balanceOfStarm",
      "outputs": [
        {
          "internalType": "uint256",
          "name": "",
          "type": "uint256"
        }
      ],
      "stateMutability": "view",
      "type": "function",
      "constant": true
    },
    {
      "inputs": [
        {
          "internalType": "uint256",
          "name": "_amount",
          "type": "uint256"
        }
      ],
      "name": "buyTicket",
      "outputs": [],
      "stateMutability": "nonpayable",
      "type": "function"
    },
    {
      "inputs": [
        {
          "internalType": "uint256",
          "name": "_amount",
          "type": "uint256"
        }
      ],
      "name": "registerForLottery",
      "outputs": [],
      "stateMutability": "nonpayable",
      "type": "function"
    },
    {
      "inputs": [],
      "name": "withdrawLotteryStarm",
      "outputs": [],
      "stateMutability": "nonpayable",
      "type": "function"
    },
    {
      "inputs": [],
      "name": "startLottery",
      "outputs": [],
      "stateMutability": "nonpayable",
      "type": "function"
    }
  ],
  "bytecode": "0x608060405234801561001057600080fd5b50611603806100206000396000f3fe608060405234801561001057600080fd5b50600436106100575760003560e01c8063160344e21461005c57806367dd74ca14610066578063840ef86f14610082578063ba76c80a1461008c578063cb017859146100a8575b600080fd5b6100646100d8565b005b610080600480360381019061007b9190610e93565b61050b565b005b61008a610676565b005b6100a660048036038101906100a19190610e93565b6107ef565b005b6100c260048036038101906100bd9190610f1e565b610a04565b6040516100cf9190610f5a565b60405180910390f35b60006100e2610a5b565b905060006100ee610a88565b905060148160010180549050101561013b576040517f08c379a000000000000000000000000000000000000000000000000000000000815260040161013290610fd2565b60405180910390fd5b6000816001018054806020026020016040519081016040528092919081815260200182805480156101c157602002820191906000526020600020905b8160009054906101000a900473ffffffffffffffffffffffffffffffffffffffff1673ffffffffffffffffffffffffffffffffffffffff1681526020019060010190808311610177575b505050505090506000815161020a6040518060400160405280600581526020017f446978656c000000000000000000000000000000000000000000000000000000815250610ab5565b6102149190611021565b9050600082516102586040518060400160405280600781526020017f4c6f747465727900000000000000000000000000000000000000000000000000815250610ab5565b6102629190611021565b9050600083838151811061027957610278611052565b5b60200260200101519050600084838151811061029857610297611052565b5b6020026020010151905060018660050160008473ffffffffffffffffffffffffffffffffffffffff1673ffffffffffffffffffffffffffffffffffffffff16815260200190815260200160002060008282546102f491906110b0565b9250508190555060c88760000160008373ffffffffffffffffffffffffffffffffffffffff1673ffffffffffffffffffffffffffffffffffffffff168152602001908152602001600020600082825461034d91906110b0565b92505081905550600060405180606001604052804281526020018473ffffffffffffffffffffffffffffffffffffffff1681526020018373ffffffffffffffffffffffffffffffffffffffff168152509050866002018190806001815401808255809150506001900390600052602060002090600302016000909190919091506000820151816000015560208201518160010160006101000a81548173ffffffffffffffffffffffffffffffffffffffff021916908373ffffffffffffffffffffffffffffffffffffffff16021790555060408201518160020160006101000a81548173ffffffffffffffffffffffffffffffffffffffff021916908373ffffffffffffffffffffffffffffffffffffffff160217905550505060005b86518110156104e757600088600401600089848151811061048e5761048d611052565b5b602002602001015173ffffffffffffffffffffffffffffffffffffffff1673ffffffffffffffffffffffffffffffffffffffff1681526020019081526020016000208190555080806104df90611106565b91505061046a565b508660010160006104f89190610e1a565b4287600001819055505050505050505050565b6000610515610a5b565b9050816101f4610525919061114f565b8160010160003373ffffffffffffffffffffffffffffffffffffffff1673ffffffffffffffffffffffffffffffffffffffff1681526020019081526020016000205410156105a8576040517f08c379a000000000000000000000000000000000000000000000000000000000815260040161059f906111f5565b60405180910390fd5b60006105b2610a88565b90506105cb33846101f46105c6919061114f565b610aec565b828160030160003373ffffffffffffffffffffffffffffffffffffffff1673ffffffffffffffffffffffffffffffffffffffff168152602001908152602001600020600082825461061c91906110b0565b925050819055503373ffffffffffffffffffffffffffffffffffffffff167fb24ee662b0a257d0321d324e737d2507fbe45df8af8d0da951f630f3754eb6a0846040516106699190610f5a565b60405180910390a2505050565b6000610680610a5b565b905060008160000160003373ffffffffffffffffffffffffffffffffffffffff1673ffffffffffffffffffffffffffffffffffffffff1681526020019081526020016000205411610706576040517f08c379a00000000000000000000000000000000000000000000000000000000081526004016106fd90611261565b60405180910390fd5b60008160000160003373ffffffffffffffffffffffffffffffffffffffff1673ffffffffffffffffffffffffffffffffffffffff16815260200190815260200160002054905060008260000160003373ffffffffffffffffffffffffffffffffffffffff1673ffffffffffffffffffffffffffffffffffffffff1681526020019081526020016000208190555061079d3382610cc0565b3373ffffffffffffffffffffffffffffffffffffffff167f29905ee98cc5a52738c570e0e2f3a5bd2ba210114a0c6062448a2cb5580df78d826040516107e39190610f5a565b60405180910390a25050565b60006107f9610a88565b9050818160030160003373ffffffffffffffffffffffffffffffffffffffff1673ffffffffffffffffffffffffffffffffffffffff16815260200190815260200160002054101561087f576040517f08c379a0000000000000000000000000000000000000000000000000000000008152600401610876906112cd565b60405180910390fd5b818160030160003373ffffffffffffffffffffffffffffffffffffffff1673ffffffffffffffffffffffffffffffffffffffff16815260200190815260200160002060008282546108d091906112ed565b9250508190555060005b8281116109595781600101339080600181540180825580915050600190039060005260206000200160009091909190916101000a81548173ffffffffffffffffffffffffffffffffffffffff021916908373ffffffffffffffffffffffffffffffffffffffff160217905550808061095190611106565b9150506108da565b50818160040160003373ffffffffffffffffffffffffffffffffffffffff1673ffffffffffffffffffffffffffffffffffffffff16815260200190815260200160002060008282546109ab91906110b0565b925050819055503373ffffffffffffffffffffffffffffffffffffffff167f4f5daf1b50728a229415059b766fb8332e669057402c5ac727f4cd6fc208ce9b836040516109f89190610f5a565b60405180910390a25050565b600080610a0f610a5b565b90508060010160008473ffffffffffffffffffffffffffffffffffffffff1673ffffffffffffffffffffffffffffffffffffffff16815260200190815260200160002054915050919050565b6000807f1b091a9fb79d8a0a791074366f5ea0051fa79aed1deb4e83519829de6fb92bb190508091505090565b6000807f6bc844e8f78d8de9f3b120d94fd2efae4c9d3b45b2ddde509e79ee4515f298cc90508091505090565b6000423383604051602001610acc93929190611404565b6040516020818303038152906040528051906020012060001c9050919050565b6000610af6610a5b565b9050600073ffffffffffffffffffffffffffffffffffffffff168373ffffffffffffffffffffffffffffffffffffffff161415610b68576040517f08c379a0000000000000000000000000000000000000000000000000000000008152600401610b5f906114af565b60405180910390fd5b60008160010160008573ffffffffffffffffffffffffffffffffffffffff1673ffffffffffffffffffffffffffffffffffffffff16815260200190815260200160002054905082811015610bf1576040517f08c379a0000000000000000000000000000000000000000000000000000000008152600401610be890611541565b60405180910390fd5b8281038260010160008673ffffffffffffffffffffffffffffffffffffffff1673ffffffffffffffffffffffffffffffffffffffff1681526020019081526020016000208190555082826002016000828254610c4d91906112ed565b92505081905550600073ffffffffffffffffffffffffffffffffffffffff168473ffffffffffffffffffffffffffffffffffffffff167fddf252ad1be2c89b69c2b068fc378daa952ba7f163c4a11628f55a4df523b3ef85604051610cb29190610f5a565b60405180910390a350505050565b6000610cca610a5b565b9050600073ffffffffffffffffffffffffffffffffffffffff168373ffffffffffffffffffffffffffffffffffffffff161415610d3c576040517f08c379a0000000000000000000000000000000000000000000000000000000008152600401610d33906115ad565b60405180910390fd5b81816002016000828254610d5091906110b0565b92505081905550818160010160008573ffffffffffffffffffffffffffffffffffffffff1673ffffffffffffffffffffffffffffffffffffffff1681526020019081526020016000206000828254610da891906110b0565b925050819055508273ffffffffffffffffffffffffffffffffffffffff16600073ffffffffffffffffffffffffffffffffffffffff167fddf252ad1be2c89b69c2b068fc378daa952ba7f163c4a11628f55a4df523b3ef84604051610e0d9190610f5a565b60405180910390a3505050565b5080546000825590600052602060002090810190610e389190610e3b565b50565b5b80821115610e54576000816000905550600101610e3c565b5090565b600080fd5b6000819050919050565b610e7081610e5d565b8114610e7b57600080fd5b50565b600081359050610e8d81610e67565b92915050565b600060208284031215610ea957610ea8610e58565b5b6000610eb784828501610e7e565b91505092915050565b600073ffffffffffffffffffffffffffffffffffffffff82169050919050565b6000610eeb82610ec0565b9050919050565b610efb81610ee0565b8114610f0657600080fd5b50565b600081359050610f1881610ef2565b92915050565b600060208284031215610f3457610f33610e58565b5b6000610f4284828501610f09565b91505092915050565b610f5481610e5d565b82525050565b6000602082019050610f6f6000830184610f4b565b92915050565b600082825260208201905092915050565b7f6e6f7420656e6f75676820706c61796572730000000000000000000000000000600082015250565b6000610fbc601283610f75565b9150610fc782610f86565b602082019050919050565b60006020820190508181036000830152610feb81610faf565b9050919050565b7f4e487b7100000000000000000000000000000000000000000000000000000000600052601260045260246000fd5b600061102c82610e5d565b915061103783610e5d565b92508261104757611046610ff2565b5b828206905092915050565b7f4e487b7100000000000000000000000000000000000000000000000000000000600052603260045260246000fd5b7f4e487b7100000000000000000000000000000000000000000000000000000000600052601160045260246000fd5b60006110bb82610e5d565b91506110c683610e5d565b9250827fffffffffffffffffffffffffffffffffffffffffffffffffffffffffffffffff038211156110fb576110fa611081565b5b828201905092915050565b600061111182610e5d565b91507fffffffffffffffffffffffffffffffffffffffffffffffffffffffffffffffff82141561114457611143611081565b5b600182019050919050565b600061115a82610e5d565b915061116583610e5d565b9250817fffffffffffffffffffffffffffffffffffffffffffffffffffffffffffffffff048311821515161561119e5761119d611081565b5b828202905092915050565b7f6e6f7420656e6f75676820737461726d2062616c616e63650000000000000000600082015250565b60006111df601883610f75565b91506111ea826111a9565b602082019050919050565b6000602082019050818103600083015261120e816111d2565b9050919050565b7f6e6f20737461726d000000000000000000000000000000000000000000000000600082015250565b600061124b600883610f75565b915061125682611215565b602082019050919050565b6000602082019050818103600083015261127a8161123e565b9050919050565b7f6e6f7420656e6f756768207469636b6574730000000000000000000000000000600082015250565b60006112b7601283610f75565b91506112c282611281565b602082019050919050565b600060208201905081810360008301526112e6816112aa565b9050919050565b60006112f882610e5d565b915061130383610e5d565b92508282101561131657611315611081565b5b828203905092915050565b6000819050919050565b61133c61133782610e5d565b611321565b82525050565b60008160601b9050919050565b600061135a82611342565b9050919050565b600061136c8261134f565b9050919050565b61138461137f82610ee0565b611361565b82525050565b600081519050919050565b600081905092915050565b60005b838110156113be5780820151818401526020810190506113a3565b838111156113cd576000848401525b50505050565b60006113de8261138a565b6113e88185611395565b93506113f88185602086016113a0565b80840191505092915050565b6000611410828661132b565b6020820191506114208285611373565b60148201915061143082846113d3565b9150819050949350505050565b7f45524332303a206275726e2066726f6d20746865207a65726f2061646472657360008201527f7300000000000000000000000000000000000000000000000000000000000000602082015250565b6000611499602183610f75565b91506114a48261143d565b604082019050919050565b600060208201905081810360008301526114c88161148c565b9050919050565b7f45524332303a206275726e20616d6f756e7420657863656564732062616c616e60008201527f6365000000000000000000000000000000000000000000000000000000000000602082015250565b600061152b602283610f75565b9150611536826114cf565b604082019050919050565b6000602082019050818103600083015261155a8161151e565b9050919050565b7f45524332303a206d696e7420746f20746865207a65726f206164647265737300600082015250565b6000611597601f83610f75565b91506115a282611561565b602082019050919050565b600060208201905081810360008301526115c68161158a565b905091905056fea2646970667358221220be0dddd0f1c64fb94b499ddda74f9d62cb8b3806562aa746fe170de7db27f09864736f6c634300080b0033",
  "immutableReferences": {},
  "source": "//SPDX-License-Identifier: MIT\n\npragma solidity 0.8.11;\n\nimport {\n    LibLottery, Winners\n} from \"../libraries/LibLottery.sol\";\nimport {\n    LibStarm\n} from \"../libraries/LibStarm.sol\";\n\ncontract LotteryFacet {\n\n    /**\n     * @dev Emitted when `value` tokens are moved from one account (`from`) to\n     * another (`to`).\n     */\n    event DixelLotteryWinners(address _winner);\n        /**\n     * @dev Emitted when `value` tokens are moved from one account (`from`) to\n     * another (`to`).\n     */\n    event StarmLotteryWinners(address _winner);\n\n        /**\n     * @dev Emitted when `value` tokens are moved from one account (`from`) to\n     * another (`to`).\n     */\n    event TicketsBought(address indexed _buyer, uint _amount);\n\n        /**\n     * @dev Emitted when `value` tokens are moved from one account (`from`) to\n     * another (`to`).\n     */\n    event RegisteredTickets(address indexed _buyer, uint _amount);\n\n        /**\n     * @dev Emitted when `value` tokens are moved from one account (`from`) to\n     * another (`to`).\n     */\n    event LotteryStarted(address indexed _starter, uint _init_time, address[] _winners);\n\n        /**\n     * @dev Emitted when `value` tokens are moved from one account (`from`) to\n     * another (`to`).\n     */\n    event StarmClaimed(address indexed _from, uint _amount);\n\n    /**\n     * @dev a user can check its balance in Starm\n     * @param _owner the balance of the caller\n     */\n    function balanceOfStarm(address _owner) external view returns(uint) {\n        LibStarm.StarmStorage storage starm = LibStarm.starmStorage();\n        return starm._balances[_owner];\n    }\n\n    /**\n    * @dev will be changed by  chainlink RNG for mainnet deployment\n     */\n    function _generateRandomnessLottery(string memory _string) internal view returns(uint) {\n        return uint(keccak256(abi.encodePacked(block.timestamp, msg.sender, _string)));\n    }\n\n    /**\n     * @param _amount number of lottery tickets to buy\n     */\n    function buyTicket(uint _amount) external {\n        LibStarm.StarmStorage storage starm = LibStarm.starmStorage();\n        require(starm._balances[msg.sender] >= LibLottery.ticketPrice * _amount, \"not enough starm balance\");\n        LibLottery.LotteryStorage storage ls = LibLottery.lotteryStorage();\n        LibStarm._burnStarm(msg.sender,(LibLottery.ticketPrice * _amount));\n        ls.lotteryTickets[msg.sender] += _amount;\n        emit TicketsBought(msg.sender, _amount);\n    }\n\n    /**\n    * @notice \n    * @param _amount number of tickets to spend\n    */\n    function registerForLottery(uint _amount) external {\n    LibLottery.LotteryStorage storage ls = LibLottery.lotteryStorage();\n        require(ls.lotteryTickets[msg.sender] >= _amount, \"not enough tickets\");\n        ls.lotteryTickets[msg.sender] -= _amount;\n        for (uint i = 0; i <= _amount; i++) {\n            ls.players.push(msg.sender);\n        }\n        ls.registeredTickets[msg.sender] += _amount;\n        emit RegisteredTickets(msg.sender, _amount);\n    }\n\n    /**\n     * @dev allow a user to withdraw the Starms won in the lottery\n     */\n    function withdrawLotteryStarm() external {\n        LibStarm.StarmStorage storage starm = LibStarm.starmStorage();\n        require(starm.starmToWithdraw[msg.sender] > 0, \"no starm\");\n        uint amount = starm.starmToWithdraw[msg.sender];\n        starm.starmToWithdraw[msg.sender] = 0;\n        LibStarm._mintStarm(msg.sender, amount);\n        emit StarmClaimed(msg.sender, amount);\n    }\n\n    /**\n     * @dev initiate lottery and will select Dixel winners and Starm winners\n     */\n    function startLottery() public {\n        LibStarm.StarmStorage storage starm = LibStarm.starmStorage();\n        LibLottery.LotteryStorage storage ls = LibLottery.lotteryStorage();\n\n        // require(block.timestamp >= ls.lastLaunchTime + LibLottery.oneDayCoolDown, \"cool down\");\n        require(ls.players.length >= 20, \"not enough players\");\n        address[] memory players = ls.players;\n\n        uint p = _generateRandomnessLottery(\"Dixel\") % players.length;\n        uint p2 = _generateRandomnessLottery(\"Lottery\") % players.length;\n\n        address winnerD = players[p];\n        address winnerS = players[p2];\n\n        ls.freeMintTickets[winnerD] += 1;\n        starm.starmToWithdraw[winnerS] += 200;\n\n        Winners memory dayWinners = Winners(block.timestamp, winnerD, winnerS);\n        ls.allWinners.push(dayWinners);\n\n        for (uint i = 0; i < players.length; i++) {\n            ls.registeredTickets[players[i]] = 0;\n        }\n        delete ls.players;\n        ls.lastLaunchTime = block.timestamp;\n    }\n\n}\n",
  "sourcePath": "/home/torof/blockchain-developer-bootcamp-final-project/contracts/facets/LotteryFacet.sol",
  "compiler": {
    "name": "solc",
    "version": "0.8.11+commit.d7f03943.Emscripten.clang"
  },
  "schemaVersion": "3.4.4",
  "updatedAt": "2022-01-29T20:40:19.673Z",
  "networkType": "ethereum",
  "devdoc": {
    "events": {
      "DixelLotteryWinners(address)": {
        "details": "Emitted when `value` tokens are moved from one account (`from`) to another (`to`)."
      },
      "LotteryStarted(address,uint256,address[])": {
        "details": "Emitted when `value` tokens are moved from one account (`from`) to another (`to`)."
      },
      "RegisteredTickets(address,uint256)": {
        "details": "Emitted when `value` tokens are moved from one account (`from`) to another (`to`)."
      },
      "StarmClaimed(address,uint256)": {
        "details": "Emitted when `value` tokens are moved from one account (`from`) to another (`to`)."
      },
      "StarmLotteryWinners(address)": {
        "details": "Emitted when `value` tokens are moved from one account (`from`) to another (`to`)."
      },
      "TicketsBought(address,uint256)": {
        "details": "Emitted when `value` tokens are moved from one account (`from`) to another (`to`)."
      }
    },
    "kind": "dev",
    "methods": {
      "balanceOfStarm(address)": {
        "details": "a user can check its balance in Starm",
        "params": {
          "_owner": "the balance of the caller"
        }
      },
      "buyTicket(uint256)": {
        "params": {
          "_amount": "number of lottery tickets to buy"
        }
      },
      "registerForLottery(uint256)": {
        "params": {
          "_amount": "number of tickets to spend"
        }
      },
      "startLottery()": {
        "details": "initiate lottery and will select Dixel winners and Starm winners"
      },
      "withdrawLotteryStarm()": {
        "details": "allow a user to withdraw the Starms won in the lottery"
      }
    },
    "version": 1
  },
  "userdoc": {
    "kind": "user",
    "methods": {},
    "version": 1
  }
}