{
  "contractName": "LotteryFacet",
  "abi": [
    {
      "anonymous": false,
      "inputs": [
        {
          "indexed": false,
          "internalType": "address",
          "name": "_winner",
          "type": "address"
        }
      ],
      "name": "DixelLotteryWinners",
      "type": "event"
    },
    {
      "anonymous": false,
      "inputs": [
        {
          "indexed": true,
          "internalType": "address",
          "name": "_starter",
          "type": "address"
        },
        {
          "indexed": false,
          "internalType": "uint256",
          "name": "_init_time",
          "type": "uint256"
        },
        {
          "indexed": false,
          "internalType": "address[]",
          "name": "_winners",
          "type": "address[]"
        }
      ],
      "name": "LotteryStarted",
      "type": "event"
    },
    {
      "anonymous": false,
      "inputs": [
        {
          "indexed": true,
          "internalType": "address",
          "name": "_buyer",
          "type": "address"
        },
        {
          "indexed": false,
          "internalType": "uint256",
          "name": "_amount",
          "type": "uint256"
        }
      ],
      "name": "RegisteredTickets",
      "type": "event"
    },
    {
      "anonymous": false,
      "inputs": [
        {
          "indexed": true,
          "internalType": "address",
          "name": "_from",
          "type": "address"
        },
        {
          "indexed": false,
          "internalType": "uint256",
          "name": "_amount",
          "type": "uint256"
        }
      ],
      "name": "StarmClaimed",
      "type": "event"
    },
    {
      "anonymous": false,
      "inputs": [
        {
          "indexed": false,
          "internalType": "address",
          "name": "_winner",
          "type": "address"
        }
      ],
      "name": "StarmLotteryWinners",
      "type": "event"
    },
    {
      "anonymous": false,
      "inputs": [
        {
          "indexed": true,
          "internalType": "address",
          "name": "_buyer",
          "type": "address"
        },
        {
          "indexed": false,
          "internalType": "uint256",
          "name": "_amount",
          "type": "uint256"
        }
      ],
      "name": "TicketsBought",
      "type": "event"
    },
    {
      "inputs": [
        {
          "internalType": "address",
          "name": "_owner",
          "type": "address"
        }
      ],
      "name": "balanceOfStarm",
      "outputs": [
        {
          "internalType": "uint256",
          "name": "",
          "type": "uint256"
        }
      ],
      "stateMutability": "view",
      "type": "function",
      "constant": true
    },
    {
      "inputs": [
        {
          "internalType": "uint256",
          "name": "_amount",
          "type": "uint256"
        }
      ],
      "name": "buyTicket",
      "outputs": [],
      "stateMutability": "nonpayable",
      "type": "function"
    },
    {
      "inputs": [
        {
          "internalType": "uint256",
          "name": "_amount",
          "type": "uint256"
        }
      ],
      "name": "registerForLottery",
      "outputs": [],
      "stateMutability": "nonpayable",
      "type": "function"
    },
    {
      "inputs": [],
      "name": "withdrawLotteryStarm",
      "outputs": [],
      "stateMutability": "nonpayable",
      "type": "function"
    },
    {
      "inputs": [],
      "name": "startLottery",
      "outputs": [],
      "stateMutability": "nonpayable",
      "type": "function"
    },
    {
      "inputs": [],
      "name": "returnLotteryTickets",
      "outputs": [
        {
          "internalType": "uint256",
          "name": "",
          "type": "uint256"
        }
      ],
      "stateMutability": "view",
      "type": "function",
      "constant": true
    },
    {
      "inputs": [],
      "name": "returnFreeMintTickets",
      "outputs": [
        {
          "internalType": "uint256",
          "name": "",
          "type": "uint256"
        }
      ],
      "stateMutability": "view",
      "type": "function",
      "constant": true
    },
    {
      "inputs": [],
      "name": "returnRegisteredTickets",
      "outputs": [
        {
          "internalType": "uint256",
          "name": "",
          "type": "uint256"
        }
      ],
      "stateMutability": "view",
      "type": "function",
      "constant": true
    },
    {
      "inputs": [],
      "name": "returnStarmWon",
      "outputs": [
        {
          "internalType": "uint256",
          "name": "",
          "type": "uint256"
        }
      ],
      "stateMutability": "view",
      "type": "function",
      "constant": true
    },
    {
      "inputs": [],
      "name": "returnLotteryWinners",
      "outputs": [
        {
          "components": [
            {
              "internalType": "uint256",
              "name": "timestamp",
              "type": "uint256"
            },
            {
              "internalType": "address",
              "name": "dixelMintWinner",
              "type": "address"
            },
            {
              "internalType": "address",
              "name": "starmWinner",
              "type": "address"
            }
          ],
          "internalType": "struct Winners[]",
          "name": "",
          "type": "tuple[]"
        }
      ],
      "stateMutability": "view",
      "type": "function",
      "constant": true
    }
  ],
  "bytecode": "0x608060405234801561001057600080fd5b50611a83806100206000396000f3fe608060405234801561001057600080fd5b506004361061009e5760003560e01c8063ba76c80a11610066578063ba76c80a1461010f578063ca2265511461012b578063cb01785914610149578063d225202414610179578063d3f97077146101975761009e565b8063160344e2146100a357806344fd1f2e146100ad57806367dd74ca146100cb578063840ef86f146100e75780638b0e9a61146100f1575b600080fd5b6100ab6101b5565b005b6100b56105e8565b6040516100c291906112f2565b60405180910390f35b6100e560048036038101906100e09190611345565b610706565b005b6100ef610871565b005b6100f96109ea565b6040516101069190611381565b60405180910390f35b61012960048036038101906101249190611345565b610a3f565b005b610133610c54565b6040516101409190611381565b60405180910390f35b610163600480360381019061015e91906113c8565b610ca9565b6040516101709190611381565b60405180910390f35b610181610d00565b60405161018e9190611381565b60405180910390f35b61019f610d55565b6040516101ac9190611381565b60405180910390f35b60006101bf610daa565b905060006101cb610dd7565b9050601481600101805490501015610218576040517f08c379a000000000000000000000000000000000000000000000000000000000815260040161020f90611452565b60405180910390fd5b60008160010180548060200260200160405190810160405280929190818152602001828054801561029e57602002820191906000526020600020905b8160009054906101000a900473ffffffffffffffffffffffffffffffffffffffff1673ffffffffffffffffffffffffffffffffffffffff1681526020019060010190808311610254575b50505050509050600081516102e76040518060400160405280600581526020017f446978656c000000000000000000000000000000000000000000000000000000815250610e04565b6102f191906114a1565b9050600082516103356040518060400160405280600781526020017f4c6f747465727900000000000000000000000000000000000000000000000000815250610e04565b61033f91906114a1565b90506000838381518110610356576103556114d2565b5b602002602001015190506000848381518110610375576103746114d2565b5b6020026020010151905060018660050160008473ffffffffffffffffffffffffffffffffffffffff1673ffffffffffffffffffffffffffffffffffffffff16815260200190815260200160002060008282546103d19190611530565b9250508190555060c88760000160008373ffffffffffffffffffffffffffffffffffffffff1673ffffffffffffffffffffffffffffffffffffffff168152602001908152602001600020600082825461042a9190611530565b92505081905550600060405180606001604052804281526020018473ffffffffffffffffffffffffffffffffffffffff1681526020018373ffffffffffffffffffffffffffffffffffffffff168152509050866002018190806001815401808255809150506001900390600052602060002090600302016000909190919091506000820151816000015560208201518160010160006101000a81548173ffffffffffffffffffffffffffffffffffffffff021916908373ffffffffffffffffffffffffffffffffffffffff16021790555060408201518160020160006101000a81548173ffffffffffffffffffffffffffffffffffffffff021916908373ffffffffffffffffffffffffffffffffffffffff160217905550505060005b86518110156105c457600088600401600089848151811061056b5761056a6114d2565b5b602002602001015173ffffffffffffffffffffffffffffffffffffffff1673ffffffffffffffffffffffffffffffffffffffff1681526020019081526020016000208190555080806105bc90611586565b915050610547565b508660010160006105d59190611169565b4287600001819055505050505050505050565b60606105f2610dd7565b600201805480602002602001604051908101604052809291908181526020016000905b828210156106fd5783829060005260206000209060030201604051806060016040529081600082015481526020016001820160009054906101000a900473ffffffffffffffffffffffffffffffffffffffff1673ffffffffffffffffffffffffffffffffffffffff1673ffffffffffffffffffffffffffffffffffffffff1681526020016002820160009054906101000a900473ffffffffffffffffffffffffffffffffffffffff1673ffffffffffffffffffffffffffffffffffffffff1673ffffffffffffffffffffffffffffffffffffffff168152505081526020019060010190610615565b50505050905090565b6000610710610daa565b9050816101f461072091906115cf565b8160010160003373ffffffffffffffffffffffffffffffffffffffff1673ffffffffffffffffffffffffffffffffffffffff1681526020019081526020016000205410156107a3576040517f08c379a000000000000000000000000000000000000000000000000000000000815260040161079a90611675565b60405180910390fd5b60006107ad610dd7565b90506107c633846101f46107c191906115cf565b610e3b565b828160030160003373ffffffffffffffffffffffffffffffffffffffff1673ffffffffffffffffffffffffffffffffffffffff16815260200190815260200160002060008282546108179190611530565b925050819055503373ffffffffffffffffffffffffffffffffffffffff167fb24ee662b0a257d0321d324e737d2507fbe45df8af8d0da951f630f3754eb6a0846040516108649190611381565b60405180910390a2505050565b600061087b610daa565b905060008160000160003373ffffffffffffffffffffffffffffffffffffffff1673ffffffffffffffffffffffffffffffffffffffff1681526020019081526020016000205411610901576040517f08c379a00000000000000000000000000000000000000000000000000000000081526004016108f8906116e1565b60405180910390fd5b60008160000160003373ffffffffffffffffffffffffffffffffffffffff1673ffffffffffffffffffffffffffffffffffffffff16815260200190815260200160002054905060008260000160003373ffffffffffffffffffffffffffffffffffffffff1673ffffffffffffffffffffffffffffffffffffffff16815260200190815260200160002081905550610998338261100f565b3373ffffffffffffffffffffffffffffffffffffffff167f29905ee98cc5a52738c570e0e2f3a5bd2ba210114a0c6062448a2cb5580df78d826040516109de9190611381565b60405180910390a25050565b6000806109f5610daa565b90508060000160003373ffffffffffffffffffffffffffffffffffffffff1673ffffffffffffffffffffffffffffffffffffffff1681526020019081526020016000205491505090565b6000610a49610dd7565b9050818160030160003373ffffffffffffffffffffffffffffffffffffffff1673ffffffffffffffffffffffffffffffffffffffff168152602001908152602001600020541015610acf576040517f08c379a0000000000000000000000000000000000000000000000000000000008152600401610ac69061174d565b60405180910390fd5b818160030160003373ffffffffffffffffffffffffffffffffffffffff1673ffffffffffffffffffffffffffffffffffffffff1681526020019081526020016000206000828254610b20919061176d565b9250508190555060005b828111610ba95781600101339080600181540180825580915050600190039060005260206000200160009091909190916101000a81548173ffffffffffffffffffffffffffffffffffffffff021916908373ffffffffffffffffffffffffffffffffffffffff1602179055508080610ba190611586565b915050610b2a565b50818160040160003373ffffffffffffffffffffffffffffffffffffffff1673ffffffffffffffffffffffffffffffffffffffff1681526020019081526020016000206000828254610bfb9190611530565b925050819055503373ffffffffffffffffffffffffffffffffffffffff167f4f5daf1b50728a229415059b766fb8332e669057402c5ac727f4cd6fc208ce9b83604051610c489190611381565b60405180910390a25050565b600080610c5f610dd7565b90508060050160003373ffffffffffffffffffffffffffffffffffffffff1673ffffffffffffffffffffffffffffffffffffffff1681526020019081526020016000205491505090565b600080610cb4610daa565b90508060010160008473ffffffffffffffffffffffffffffffffffffffff1673ffffffffffffffffffffffffffffffffffffffff16815260200190815260200160002054915050919050565b600080610d0b610dd7565b90508060030160003373ffffffffffffffffffffffffffffffffffffffff1673ffffffffffffffffffffffffffffffffffffffff1681526020019081526020016000205491505090565b600080610d60610dd7565b90508060040160003373ffffffffffffffffffffffffffffffffffffffff1673ffffffffffffffffffffffffffffffffffffffff1681526020019081526020016000205491505090565b6000807f1b091a9fb79d8a0a791074366f5ea0051fa79aed1deb4e83519829de6fb92bb190508091505090565b6000807f6bc844e8f78d8de9f3b120d94fd2efae4c9d3b45b2ddde509e79ee4515f298cc90508091505090565b6000423383604051602001610e1b93929190611884565b6040516020818303038152906040528051906020012060001c9050919050565b6000610e45610daa565b9050600073ffffffffffffffffffffffffffffffffffffffff168373ffffffffffffffffffffffffffffffffffffffff161415610eb7576040517f08c379a0000000000000000000000000000000000000000000000000000000008152600401610eae9061192f565b60405180910390fd5b60008160010160008573ffffffffffffffffffffffffffffffffffffffff1673ffffffffffffffffffffffffffffffffffffffff16815260200190815260200160002054905082811015610f40576040517f08c379a0000000000000000000000000000000000000000000000000000000008152600401610f37906119c1565b60405180910390fd5b8281038260010160008673ffffffffffffffffffffffffffffffffffffffff1673ffffffffffffffffffffffffffffffffffffffff1681526020019081526020016000208190555082826002016000828254610f9c919061176d565b92505081905550600073ffffffffffffffffffffffffffffffffffffffff168473ffffffffffffffffffffffffffffffffffffffff167fddf252ad1be2c89b69c2b068fc378daa952ba7f163c4a11628f55a4df523b3ef856040516110019190611381565b60405180910390a350505050565b6000611019610daa565b9050600073ffffffffffffffffffffffffffffffffffffffff168373ffffffffffffffffffffffffffffffffffffffff16141561108b576040517f08c379a000000000000000000000000000000000000000000000000000000000815260040161108290611a2d565b60405180910390fd5b8181600201600082825461109f9190611530565b92505081905550818160010160008573ffffffffffffffffffffffffffffffffffffffff1673ffffffffffffffffffffffffffffffffffffffff16815260200190815260200160002060008282546110f79190611530565b925050819055508273ffffffffffffffffffffffffffffffffffffffff16600073ffffffffffffffffffffffffffffffffffffffff167fddf252ad1be2c89b69c2b068fc378daa952ba7f163c4a11628f55a4df523b3ef8460405161115c9190611381565b60405180910390a3505050565b5080546000825590600052602060002090810190611187919061118a565b50565b5b808211156111a357600081600090555060010161118b565b5090565b600081519050919050565b600082825260208201905092915050565b6000819050602082019050919050565b6000819050919050565b6111e6816111d3565b82525050565b600073ffffffffffffffffffffffffffffffffffffffff82169050919050565b6000611217826111ec565b9050919050565b6112278161120c565b82525050565b60608201600082015161124360008501826111dd565b506020820151611256602085018261121e565b506040820151611269604085018261121e565b50505050565b600061127b838361122d565b60608301905092915050565b6000602082019050919050565b600061129f826111a7565b6112a981856111b2565b93506112b4836111c3565b8060005b838110156112e55781516112cc888261126f565b97506112d783611287565b9250506001810190506112b8565b5085935050505092915050565b6000602082019050818103600083015261130c8184611294565b905092915050565b600080fd5b611322816111d3565b811461132d57600080fd5b50565b60008135905061133f81611319565b92915050565b60006020828403121561135b5761135a611314565b5b600061136984828501611330565b91505092915050565b61137b816111d3565b82525050565b60006020820190506113966000830184611372565b92915050565b6113a58161120c565b81146113b057600080fd5b50565b6000813590506113c28161139c565b92915050565b6000602082840312156113de576113dd611314565b5b60006113ec848285016113b3565b91505092915050565b600082825260208201905092915050565b7f6e6f7420656e6f75676820706c61796572730000000000000000000000000000600082015250565b600061143c6012836113f5565b915061144782611406565b602082019050919050565b6000602082019050818103600083015261146b8161142f565b9050919050565b7f4e487b7100000000000000000000000000000000000000000000000000000000600052601260045260246000fd5b60006114ac826111d3565b91506114b7836111d3565b9250826114c7576114c6611472565b5b828206905092915050565b7f4e487b7100000000000000000000000000000000000000000000000000000000600052603260045260246000fd5b7f4e487b7100000000000000000000000000000000000000000000000000000000600052601160045260246000fd5b600061153b826111d3565b9150611546836111d3565b9250827fffffffffffffffffffffffffffffffffffffffffffffffffffffffffffffffff0382111561157b5761157a611501565b5b828201905092915050565b6000611591826111d3565b91507fffffffffffffffffffffffffffffffffffffffffffffffffffffffffffffffff8214156115c4576115c3611501565b5b600182019050919050565b60006115da826111d3565b91506115e5836111d3565b9250817fffffffffffffffffffffffffffffffffffffffffffffffffffffffffffffffff048311821515161561161e5761161d611501565b5b828202905092915050565b7f6e6f7420656e6f75676820737461726d2062616c616e63650000000000000000600082015250565b600061165f6018836113f5565b915061166a82611629565b602082019050919050565b6000602082019050818103600083015261168e81611652565b9050919050565b7f6e6f20737461726d000000000000000000000000000000000000000000000000600082015250565b60006116cb6008836113f5565b91506116d682611695565b602082019050919050565b600060208201905081810360008301526116fa816116be565b9050919050565b7f6e6f7420656e6f756768207469636b6574730000000000000000000000000000600082015250565b60006117376012836113f5565b915061174282611701565b602082019050919050565b600060208201905081810360008301526117668161172a565b9050919050565b6000611778826111d3565b9150611783836111d3565b92508282101561179657611795611501565b5b828203905092915050565b6000819050919050565b6117bc6117b7826111d3565b6117a1565b82525050565b60008160601b9050919050565b60006117da826117c2565b9050919050565b60006117ec826117cf565b9050919050565b6118046117ff8261120c565b6117e1565b82525050565b600081519050919050565b600081905092915050565b60005b8381101561183e578082015181840152602081019050611823565b8381111561184d576000848401525b50505050565b600061185e8261180a565b6118688185611815565b9350611878818560208601611820565b80840191505092915050565b600061189082866117ab565b6020820191506118a082856117f3565b6014820191506118b08284611853565b9150819050949350505050565b7f45524332303a206275726e2066726f6d20746865207a65726f2061646472657360008201527f7300000000000000000000000000000000000000000000000000000000000000602082015250565b60006119196021836113f5565b9150611924826118bd565b604082019050919050565b600060208201905081810360008301526119488161190c565b9050919050565b7f45524332303a206275726e20616d6f756e7420657863656564732062616c616e60008201527f6365000000000000000000000000000000000000000000000000000000000000602082015250565b60006119ab6022836113f5565b91506119b68261194f565b604082019050919050565b600060208201905081810360008301526119da8161199e565b9050919050565b7f45524332303a206d696e7420746f20746865207a65726f206164647265737300600082015250565b6000611a17601f836113f5565b9150611a22826119e1565b602082019050919050565b60006020820190508181036000830152611a4681611a0a565b905091905056fea2646970667358221220f6359b368aa4b8de6ef97c592109e884519fdd7e0f8d6ea985b0f1d0f85d1a5a64736f6c634300080b0033",
  "immutableReferences": {},
  "source": "//SPDX-License-Identifier: MIT\n\npragma solidity 0.8.11;\n\nimport {\n    LibLottery, Winners\n} from \"../libraries/LibLottery.sol\";\nimport {\n    LibStarm\n} from \"../libraries/LibStarm.sol\";\n\ncontract LotteryFacet {\n\n    /**\n     * @dev Emitted when `value` tokens are moved from one account (`from`) to\n     * another (`to`).\n     */\n    event DixelLotteryWinners(address _winner);\n        /**\n     * @dev Emitted when `value` tokens are moved from one account (`from`) to\n     * another (`to`).\n     */\n    event StarmLotteryWinners(address _winner);\n\n        /**\n     * @dev Emitted when `value` tokens are moved from one account (`from`) to\n     * another (`to`).\n     */\n    event TicketsBought(address indexed _buyer, uint _amount);\n\n        /**\n     * @dev Emitted when `value` tokens are moved from one account (`from`) to\n     * another (`to`).\n     */\n    event RegisteredTickets(address indexed _buyer, uint _amount);\n\n        /**\n     * @dev Emitted when `value` tokens are moved from one account (`from`) to\n     * another (`to`).\n     */\n    event LotteryStarted(address indexed _starter, uint _init_time, address[] _winners);\n\n        /**\n     * @dev Emitted when `value` tokens are moved from one account (`from`) to\n     * another (`to`).\n     */\n    event StarmClaimed(address indexed _from, uint _amount);\n\n    /**\n     * @dev a user can check its balance in Starm\n     * @param _owner the balance of the caller\n     */\n    function balanceOfStarm(address _owner) external view returns(uint) {\n        LibStarm.StarmStorage storage starm = LibStarm.starmStorage();\n        return starm._balances[_owner];\n    }\n\n    /**\n    * @dev will be changed by  chainlink RNG for mainnet deployment\n     */\n    function _generateRandomnessLottery(string memory _string) internal view returns(uint) {\n        return uint(keccak256(abi.encodePacked(block.timestamp, msg.sender, _string)));\n    }\n\n    /**\n     * @param _amount number of lottery tickets to buy\n     */\n    function buyTicket(uint _amount) external {\n        LibStarm.StarmStorage storage starm = LibStarm.starmStorage();\n        require(starm._balances[msg.sender] >= LibLottery.ticketPrice * _amount, \"not enough starm balance\");\n        LibLottery.LotteryStorage storage ls = LibLottery.lotteryStorage();\n        LibStarm._burnStarm(msg.sender,(LibLottery.ticketPrice * _amount));\n        ls.lotteryTickets[msg.sender] += _amount;\n        emit TicketsBought(msg.sender, _amount);\n    }\n\n    /**\n    * @notice \n    * @param _amount number of tickets to spend\n    */\n    function registerForLottery(uint _amount) external {\n    LibLottery.LotteryStorage storage ls = LibLottery.lotteryStorage();\n        require(ls.lotteryTickets[msg.sender] >= _amount, \"not enough tickets\");\n        ls.lotteryTickets[msg.sender] -= _amount;\n        for (uint i = 0; i <= _amount; i++) {\n            ls.players.push(msg.sender);\n        }\n        ls.registeredTickets[msg.sender] += _amount;\n        emit RegisteredTickets(msg.sender, _amount);\n    }\n\n    /**\n     * @dev allow a user to withdraw the Starms won in the lottery\n     */\n    function withdrawLotteryStarm() external {\n        LibStarm.StarmStorage storage starm = LibStarm.starmStorage();\n        require(starm.starmToWithdraw[msg.sender] > 0, \"no starm\");\n        uint amount = starm.starmToWithdraw[msg.sender];\n        starm.starmToWithdraw[msg.sender] = 0;\n        LibStarm._mintStarm(msg.sender, amount);\n        emit StarmClaimed(msg.sender, amount);\n    }\n\n    /**\n     * @dev initiate lottery and will select Dixel winners and Starm winners\n     */\n    function startLottery() public {\n        LibStarm.StarmStorage storage starm = LibStarm.starmStorage();\n        LibLottery.LotteryStorage storage ls = LibLottery.lotteryStorage();\n\n        // require(block.timestamp >= ls.lastLaunchTime + LibLottery.oneDayCoolDown, \"cool down\");\n        require(ls.players.length >= 20, \"not enough players\");\n        address[] memory players = ls.players;\n\n        uint p = _generateRandomnessLottery(\"Dixel\") % players.length;\n        uint p2 = _generateRandomnessLottery(\"Lottery\") % players.length;\n\n        address winnerD = players[p];\n        address winnerS = players[p2];\n\n        ls.freeMintTickets[winnerD] += 1;\n        starm.starmToWithdraw[winnerS] += 200;\n\n        Winners memory dayWinners = Winners(block.timestamp, winnerD, winnerS);\n        ls.allWinners.push(dayWinners);\n\n        for (uint i = 0; i < players.length; i++) {\n            ls.registeredTickets[players[i]] = 0;\n        }\n        delete ls.players;\n        ls.lastLaunchTime = block.timestamp;\n    }\n\n    /**\n     * @notice\n     */\n    function returnLotteryTickets() external view returns(uint) {\n        LibLottery.LotteryStorage storage ls = LibLottery.lotteryStorage();\n        return ls.lotteryTickets[msg.sender];\n    }\n\n    /**\n     * @notice\n     */\n    function returnFreeMintTickets() external view returns(uint) {\n    LibLottery.LotteryStorage storage ls = LibLottery.lotteryStorage();\n        return ls.freeMintTickets[msg.sender];\n    }\n\n    /**\n     * @notice\n     */\n    function returnRegisteredTickets() external view returns(uint) {\n        LibLottery.LotteryStorage storage ls = LibLottery.lotteryStorage();\n        return ls.registeredTickets[msg.sender];\n    }\n\n    /**\n     * @notice\n     */\n    function returnStarmWon() external view returns(uint) {\n        LibStarm.StarmStorage storage starm = LibStarm.starmStorage();\n        return starm.starmToWithdraw[msg.sender];\n    }\n\n    /**\n     * @notice\n     */\n    function returnLotteryWinners() external view returns(Winners[] memory) {\n        return LibLottery.lotteryStorage().allWinners;\n    }\n\n}\n",
  "sourcePath": "/home/torof/Desktop/Dixel-folder/dixel-22/contracts/facets/LotteryFacet.sol",
  "compiler": {
    "name": "solc",
    "version": "0.8.11+commit.d7f03943.Emscripten.clang"
  },
  "schemaVersion": "3.4.4",
  "updatedAt": "2022-01-24T19:32:35.239Z",
  "networkType": "ethereum",
  "devdoc": {
    "events": {
      "DixelLotteryWinners(address)": {
        "details": "Emitted when `value` tokens are moved from one account (`from`) to another (`to`)."
      },
      "LotteryStarted(address,uint256,address[])": {
        "details": "Emitted when `value` tokens are moved from one account (`from`) to another (`to`)."
      },
      "RegisteredTickets(address,uint256)": {
        "details": "Emitted when `value` tokens are moved from one account (`from`) to another (`to`)."
      },
      "StarmClaimed(address,uint256)": {
        "details": "Emitted when `value` tokens are moved from one account (`from`) to another (`to`)."
      },
      "StarmLotteryWinners(address)": {
        "details": "Emitted when `value` tokens are moved from one account (`from`) to another (`to`)."
      },
      "TicketsBought(address,uint256)": {
        "details": "Emitted when `value` tokens are moved from one account (`from`) to another (`to`)."
      }
    },
    "kind": "dev",
    "methods": {
      "balanceOfStarm(address)": {
        "details": "a user can check its balance in Starm",
        "params": {
          "_owner": "the balance of the caller"
        }
      },
      "buyTicket(uint256)": {
        "params": {
          "_amount": "number of lottery tickets to buy"
        }
      },
      "registerForLottery(uint256)": {
        "params": {
          "_amount": "number of tickets to spend"
        }
      },
      "startLottery()": {
        "details": "initiate lottery and will select Dixel winners and Starm winners"
      },
      "withdrawLotteryStarm()": {
        "details": "allow a user to withdraw the Starms won in the lottery"
      }
    },
    "version": 1
  },
  "userdoc": {
    "kind": "user",
    "methods": {},
    "version": 1
  }
}