{
  "contractName": "Test2Facet",
  "abi": [
    {
      "inputs": [],
      "name": "test2Func1",
      "outputs": [],
      "stateMutability": "nonpayable",
      "type": "function"
    },
    {
      "inputs": [],
      "name": "test2Func2",
      "outputs": [],
      "stateMutability": "nonpayable",
      "type": "function"
    },
    {
      "inputs": [],
      "name": "test2Func3",
      "outputs": [],
      "stateMutability": "nonpayable",
      "type": "function"
    },
    {
      "inputs": [],
      "name": "test2Func4",
      "outputs": [],
      "stateMutability": "nonpayable",
      "type": "function"
    },
    {
      "inputs": [],
      "name": "test2Func5",
      "outputs": [],
      "stateMutability": "nonpayable",
      "type": "function"
    },
    {
      "inputs": [],
      "name": "test2Func6",
      "outputs": [],
      "stateMutability": "nonpayable",
      "type": "function"
    },
    {
      "inputs": [],
      "name": "test2Func7",
      "outputs": [],
      "stateMutability": "nonpayable",
      "type": "function"
    },
    {
      "inputs": [],
      "name": "test2Func8",
      "outputs": [],
      "stateMutability": "nonpayable",
      "type": "function"
    },
    {
      "inputs": [],
      "name": "test2Func9",
      "outputs": [],
      "stateMutability": "nonpayable",
      "type": "function"
    },
    {
      "inputs": [],
      "name": "test2Func10",
      "outputs": [],
      "stateMutability": "nonpayable",
      "type": "function"
    },
    {
      "inputs": [],
      "name": "test2Func11",
      "outputs": [],
      "stateMutability": "nonpayable",
      "type": "function"
    },
    {
      "inputs": [],
      "name": "test2Func12",
      "outputs": [],
      "stateMutability": "nonpayable",
      "type": "function"
    },
    {
      "inputs": [],
      "name": "test2Func13",
      "outputs": [],
      "stateMutability": "nonpayable",
      "type": "function"
    },
    {
      "inputs": [],
      "name": "test2Func14",
      "outputs": [],
      "stateMutability": "nonpayable",
      "type": "function"
    },
    {
      "inputs": [],
      "name": "test2Func15",
      "outputs": [],
      "stateMutability": "nonpayable",
      "type": "function"
    },
    {
      "inputs": [],
      "name": "test2Func16",
      "outputs": [],
      "stateMutability": "nonpayable",
      "type": "function"
    },
    {
      "inputs": [],
      "name": "test2Func17",
      "outputs": [],
      "stateMutability": "nonpayable",
      "type": "function"
    },
    {
      "inputs": [],
      "name": "test2Func18",
      "outputs": [],
      "stateMutability": "nonpayable",
      "type": "function"
    },
    {
      "inputs": [],
      "name": "test2Func19",
      "outputs": [],
      "stateMutability": "nonpayable",
      "type": "function"
    },
    {
      "inputs": [],
      "name": "test2Func20",
      "outputs": [],
      "stateMutability": "nonpayable",
      "type": "function"
    }
  ],
  "bytecode": "0x608060405234801561001057600080fd5b50610257806100206000396000f3fe608060405234801561001057600080fd5b506004361061012c5760003560e01c80638ee8be30116100ad578063d2f0c73e11610071578063d2f0c73e146101c7578063e5f687b2146101d1578063e7de23a4146101db578063ea36b558146101e5578063ef3f4d78146101ef5761012c565b80638ee8be301461019557806391d0396b1461019f578063c670641d146101a9578063ca5fa5c0146101b3578063caae8f23146101bd5761012c565b80632e463958116100f45780632e463958146101635780635fd6312b1461016d5780636dc16b0114610177578063792a8e2e14610181578063884280a61461018b5761012c565b806303feeeae146101315780630c103a931461013b5780630e4cd7fc14610145578063148843091461014f57806317fd06e714610159575b600080fd5b6101396101f9565b005b6101436101fb565b005b61014d6101fd565b005b6101576101ff565b005b610161610201565b005b61016b610203565b005b610175610205565b005b61017f610207565b005b610189610209565b005b61019361020b565b005b61019d61020d565b005b6101a761020f565b005b6101b1610211565b005b6101bb610213565b005b6101c5610215565b005b6101cf610217565b005b6101d9610219565b005b6101e361021b565b005b6101ed61021d565b005b6101f761021f565b005b565b565b565b565b565b565b565b565b565b565b565b565b565b565b565b565b565b565b565b56fea2646970667358221220f56c190da1302c0facdaa9a92dfb2a56c3f8a1d1e2b66ec393ece4d68cee107364736f6c634300080b0033",
  "immutableReferences": {},
  "source": "// SPDX-License-Identifier: MIT\npragma solidity ^0.8.11;\n\ncontract Test2Facet {\n    function test2Func1() external {}\n\n    function test2Func2() external {}\n\n    function test2Func3() external {}\n\n    function test2Func4() external {}\n\n    function test2Func5() external {}\n\n    function test2Func6() external {}\n\n    function test2Func7() external {}\n\n    function test2Func8() external {}\n\n    function test2Func9() external {}\n\n    function test2Func10() external {}\n\n    function test2Func11() external {}\n\n    function test2Func12() external {}\n\n    function test2Func13() external {}\n\n    function test2Func14() external {}\n\n    function test2Func15() external {}\n\n    function test2Func16() external {}\n\n    function test2Func17() external {}\n\n    function test2Func18() external {}\n\n    function test2Func19() external {}\n\n    function test2Func20() external {}\n}",
  "sourcePath": "/home/torof/Desktop/Dixel-folder/dixel-22/contracts/testing/Test2Facet.sol",
  "compiler": {
    "name": "solc",
    "version": "0.8.11+commit.d7f03943.Emscripten.clang"
  },
  "schemaVersion": "3.4.4",
  "updatedAt": "2022-01-24T19:32:35.264Z",
  "networkType": "ethereum",
  "devdoc": {
    "kind": "dev",
    "methods": {},
    "version": 1
  },
  "userdoc": {
    "kind": "user",
    "methods": {},
    "version": 1
  }
}